:020000040800F2
:1000000010760020F903000801040008DD01000853
:10001000C32F0008C72F0008CB2F000800000000E6
:10002000000000000000000000000000390100088E
:10003000CF2F0008000000007D010008B11F00085C
:10004000130400081304000813040008D32F000849
:100050001304000813040008B12E0008130400085C
:10006000C92E000813040008130400081304000834
:100070001304000813040008130400081304000804
:1000800013040008130400081304000813040008F4
:10009000130400081304000813040008372F000895
:1000A00013040008130400081304000813040008D4
:1000B00013040008130400081304000813040008C4
:1000C00013040008130400081304000813040008B4
:1000D00013040008130400081304000813040008A4
:1000E0001304000813040008130400081304000894
:1000F0001304000813040008E12E0008130400088C
:100100001304000813040008130400081304000873
:100110001304000813040008130400081304000863
:1001200013040008DFF80CD007F070FC004800470B
:10013000272C000810760020204B19680868B0E8CA
:10014000F00F80F30988BFF36F8F4FF0000080F34A
:1001500011884EF00D0E7047000000000648006840
:10016000006880F3088862B661B6BFF34F8FBFF3B3
:100170006F8F00DF00BF00BF08ED00E0EFF30980E4
:10018000BFF36F8F0D4B1A6820E9F00F106008B5B0
:100190004FF0500080F3118801F057F84FF0000045
:1001A00080F31188BDE8084019680868B0E8F00FCE
:1001B00080F30988BFF36F8F704700BF20000020D5
:1001C000EFF311804FF0500181F31188704780F3F5
:1001D00011887047EFF30580704700001EF0040F90
:1001E0000CBFEFF30880EFF3098002F0D9BE0000E6
:1001F00008B5002000907548006800F4007010B148
:100200000120009001E000200090009801284AD1D0
:100210006F48006820F001006D49086008460068DA
:1002200020F0020008600846006820F00400086022
:1002300066482430006840F08050644924310860EA
:100240004FF4C0506349086000BF6248406800F046
:1002500010000028F9D15D48083000685B4908317A
:100260000860084600680860084600680860081FC3
:10027000006820F46040091F08600846006840F4E8
:1002800000400860081D006820F00300091D086098
:1002900008460068086000BF4C480830006800F05D
:1002A0000C000028F8D108BD00B54848006840F4AB
:1002B0008070464908604548083000684649084053
:1002C00042490831086041480068444908403F49B4
:1002D00008600846006820F4802008603B48083029
:1002E000006820F47D003949083108600020091DAC
:1002F0000860FFF77DFF4FF000603949086000BDDE
:1003000070B5002200200021002400232F4D083565
:100310002D6805F00C0232B1042A10D0082A12D040
:100320000C2A39D113E0294D2D1D2D68C5F3423318
:100330005D1C0126AE40F5032A4E356038E02A4D9B
:10034000284E356034E0294D264E356030E01F4D93
:1003500008352D6805F470101C4D08352D6805F41E
:100360004001234D05EB90452878012505EB91517F
:10037000164D08352D6805F4803434B91A4D4543BF
:10038000B5FBF1F5174E356005E0184D4543B5FB5B
:10039000F1F5144E35600BE00C4D2D1D2D68C5F3A5
:1003A00042335D1C0126AE40F5030E4E356000BFA2
:1003B00000BF064D08352D68C5F303150D4E725D5F
:1003C000084D2D68D540074E356070BD003802409D
:1003D000003C0240007000400CC0FF88FEFFFEEEB3
:1003E00008ED00E0000000200024F40000127A0074
:1003F000040000200D000020064880470648004702
:10040000FEE7FEE7FEE7FEE7FEE7FEE7FEE7FEE7C4
:10041000FEE7FEE7A90200082501000800F1080137
:1004200041604FF0FF31816000F10801C16001615E
:1004300000210160704700210161704742684A60F5
:1004400093688B60936859609160086103685B1CD6
:100450000360704710B502460B685C1C0CB910694C
:1004600007E002F1080000E04068446824689C420C
:10047000FAD944684C604C68A160886041600A61A8
:100480001468641C146010BD01460A69D1E901308A
:100490009860D1E9010358605068884201D18868AA
:1004A0005060002008611068401E1060106870479E
:1004B00070B505460E462C4601F060FDD4E90F12DA
:1004C000206801FB020060600020A0632068A0603B
:1004D000E06B401E226C216800FB0210E0604FF0D0
:1004E000FF306064A06476B9206908B9012000E09B
:1004F000002080B904F1100001F077F901280AD139
:1005000001F032FD07E004F11000FFF787FF04F16E
:100510002400FFF783FF01F03EFD012070BD2DE9AF
:10052000F04705460E4617464FF00009DDB154204E
:1005300001F0B7FD0446B4B105FB06F000F1010877
:10054000404601F0AEFD2060206848B1E5632664B6
:1005500001212046FFF7ACFF84F85070A14602E06D
:10056000204601F001FE4846BDE8F08710B504467C
:1005700001F004FD11E0606A08B9012000E00020EC
:1005800038B904F1240001F030F918B101F0E2F9B2
:1005900000E005E0A06C401EA064A06C0028EADC2E
:1005A00000BF4FF0FF30A06401F0F5FC01F0E6FC65
:1005B00011E0206908B9012000E0002050B904F1E1
:1005C000100001F012F908B101F0C4F9606C401E8E
:1005D000606400E002E0606C0028EADC00BF4FF0DD
:1005E000FF30606401F0D7FC10BD70B5054601F026
:1005F000C5FCA86BE96B884201D1012400E000240E
:1006000001F0C9FC204670BD2DE9F04104460E46BC
:1006100015460027206C58B92068002831D101F018
:100620005AFA606801F006FA07460020606028E088
:100630007DB93146226CA06806F0DCFD216CA06813
:100640000844A060D4E9011088421AD32068A06051
:1006500017E03146226CE06806F0CCFD216CE068C2
:10066000401AE0602168E068884203D2216C60682B
:10067000401AE060022D04D1A06B10B1A06B401EA7
:10068000A063A06B401CA0633846BDE8F0812DE953
:10069000FF4383B0074688461D464FF000093C469D
:1006A00000BF01F06BFCA06BE16B884201D3022D0F
:1006B0001DD12A4641462046FFF7A6FF0646606A3E
:1006C00008B9012000E0002040B904F1240001F045
:1006D0008CF8012805D101F047FC02E00EB101F0D1
:1006E00043FC01F058FC012007B0BDE8F0830598F9
:1006F00018B901F050FC0020F6E7B9F1000F04D161
:1007000001A801F0F6F84FF0010901F044FC00F0F7
:10071000B9FC01F033FC606C401C08B90020606437
:10072000A06C401C08B90020A06401F034FC05A9AD
:1007300001A801F0E5F8C0B92046FFF756FF70B1F7
:1007400004F11000059900F0D3FF2046FFF70EFFDB
:1007500000F0F3FB0028A4D101F006FCA1E720463D
:10076000FFF704FF00F0E9FB9BE72046FFF7FEFEE2
:1007700000F0E3FB0020B7E770B50546542001F018
:1007800090FC0446F4B1002060602060A060E0604E
:10079000A0630120E06300202064401E6064A06428
:1007A00084F8505004F11000FFF738FE04F12400E3
:1007B000FFF734FE01F084F900231A46194620465B
:1007C000FFF765FF204670BD70B50646344601F060
:1007D000D0F8616888420CD1E068401EE060E068B3
:1007E00028B900231A4619462046FFF750FF012575
:1007F00000E00025284670BD70B5054601F0BEFB3F
:10080000A86B08B9012400E0002401F0C4FB2046D5
:1008100070BD70B504460D46206878B1216CE06863
:100820000844E0606168E068884201D32068E060C5
:100830002846226CE16806F0DDFC01E001F040F999
:1008400070BD2DE9FF4383B0054688461E464FF034
:1008500000092C4600BF01F091FBA06B80B3E76854
:1008600041462046FFF7D5FFB6B9A06B401EA063F6
:10087000206810B901F07DF86060206908B9012096
:1008800000E00020B0B904F1100000F0AEFF012834
:1008900010D101F069FB0DE0E760606A08B9012042
:1008A00000E0002030B904F1240000F09EFF08B100
:1008B00001F05AFB01F06FFB012007B0BDE8F083A7
:1008C000FFE7059818B901F066FB0020F5E7B9F1DC
:1008D000000F04D101A801F00CF84FF0010901F05C
:1008E0005AFB00F0CFFB01F049FB606C401C08B9DB
:1008F00000206064A06C401C08B90020A06401F0D6
:100900004AFB05A901A800F0FBFF08BB2046FFF742
:1009100073FFB8B1206830B901F030FB606801F0B6
:1009200037F801F038FB04F12400059900F0E0FEEF
:100930002046FFF71BFE00F000FB00288BD101F0E2
:1009400013FB88E72046FFF711FE00F0F6FA82E776
:100950002046FFF70BFE00F0F0FA0020ADE72DE98E
:10096000F04106460F46344601F003F861688842BC
:1009700004D1E068401CE06001250BE000233A460A
:1009800019462046FFF75DFF0546012D02D1E068BC
:10099000401CE0602846BDE8F08170B506460D4673
:1009A000022200213046FFF7BAFD044604B1A563D8
:1009B000204670BD2DE9F0470646894615461F467C
:1009C0003446FFF7FDFB8246A06BE16B884201D302
:1009D000022F20D13A4649462046FFF715FE10B1B6
:1009E0000DB101202860A06C401C70B9606A08B984
:1009F000012000E0002058B904F1240000F0F5FEC9
:100A000030B12DB10120286002E0A06C401CA06430
:100A10004FF0010801E04FF000085046FFF7D7FB08
:100A20004046BDE8F0872DE9F04705468846164662
:100A30002C46FFF7C5FB8146A06BE8B14146204636
:100A4000FFF7E7FEA06B401EA063606C401C70B90E
:100A5000206908B9012000E0002058B904F1100015
:100A600000F0C3FE30B12EB10120306002E0606CB6
:100A7000401C6064012700E000274846FFF7A7FB01
:100A80003846BDE8F0872DE9F047054688462C46F4
:100A9000FFF796FB8146A06B38B1E76841462046D8
:100AA000FFF7B7FEE760012600E000264846FFF7A3
:100AB0008EFB3046BDE8F08770B5044601F05EFA63
:100AC000A56B01F068FA284670BD70B5044625464E
:100AD00001F054FAD5E90E10461A01F05CFA3046DE
:100AE00070BD0146886B7047014600200BE0344A18
:100AF00002EBC00252688A4204D10022304B43F814
:100B0000302002E0401C0528F1D300BF704770B5CB
:100B1000044625462846FFF7E7FF286810B12868F5
:100B200001F022FB284601F01FFB70BD0146C86C96
:100B30007047C1647047014691F850007047014604
:100B40008A6B0AB9012000E00020704701468A6BD9
:100B5000CB6B9A4201D1012000E000207047024691
:100B600000200BE0164B53F8303033B9144B43F8E8
:100B7000301003EBC0035A6002E0401C0528F1D39B
:100B800000BF704770B505460E462C4601F0F6F9D9
:100B9000606C401C08B900206064A06C401C08B95F
:100BA0000020A06401F0F7F9A06B20B9314604F1F0
:100BB000240000F0F9FD2046FFF7D8FC70BD0000CE
:100BC000D800002010B5002407E004EB8401F94AA6
:100BD00002EB8100FFF722FC641C052CF5D3F648DC
:100BE000FFF71CFCF548FFF719FCF548FFF716FC6A
:100BF000F448FFF713FCF448FFF710FCEE48F34904
:100C00000860EE48F249086010BD2DE9F04704463F
:100C10000F4615469946DDF82080002607E0B95DAD
:100C200004F134008155B85D00B902E0761C102E45
:100C3000F5D300BF002143200155052D00D3042525
:100C4000E562E56400202065201DFFF7F4FB04F158
:100C50001800FFF7F0FB2461C5F10500A061646294
:100C6000BDE8F08770B505460E46542001F019FA2C
:100C7000044694B11EB9A80001F013FA00E0304612
:100C80002063206B20B9204601F06EFA002404E0B6
:100C9000A900A522206B06F0BFFA204670BD2DE901
:100CA000FF4F81B0804615469946DDE90E7A284609
:100CB0001099FFF7D7FF0446002C52D0681E216B15
:100CC00001EB800B2BF0070B00953A462046119B59
:100CD0000299FFF79AFF4A464146584601F014F937
:100CE0002060BAF1000F01D0CAF8004001F046F9C7
:100CF000B8480068401CB7490860B748006840B968
:100D0000B54804600846006801280CD1FFF75AFF77
:100D100009E0B248006830B9AF480068C06AB8421C
:100D200001D8AD480460AE480068401CAC4908607A
:100D300008460068606494F82C1001208840A94996
:100D400009680843A7490860E16A01EB8101994AF3
:100D500002EB8100211DFFF771FB012601F01BF959
:100D600001E04FF0FF36012E09D19C48006830B1F8
:100D700099480068C06AB84201D201F0F5F83046DF
:100D800005B0BDE8F08F91490968096809B90121EA
:100D900000E0002121B14FF0FF31934A116006E0DD
:100DA0008A490968C968C8688F4A416811607047F4
:100DB00070B5054601F0E2F815B98748006800E013
:100DC00028460446201DFFF75FFB78B9E06A00EB78
:100DD0008000784951F8200040B994F82C10012087
:100DE00088408049096881437E480160A06A18B143
:100DF00004F11800FFF748FB211D7248FFF71EFBA6
:100E00007A480068401C7949086075480068401CB1
:100E10007349086001F0BFF87048006860B16E481F
:100E20000068844202D101F09FF805E001F0A6F8C5
:100E3000FFF7A9FF01F0AFF870BD2DE9F0410027E1
:100E40006B48006800286AD16A480068401C6949FC
:100E50000860084606688EB95C48D0F800805C4897
:100E600000685A4908605A48C0F800806248006823
:100E7000401C61490860FFF786FF00BF5A480068C0
:100E800086423BD300BF51480068006808B9012082
:100E900000E0002020B14FF0FF30534908602CE003
:100EA0004A480068C068C4686568AE4202D24E48CD
:100EB000056022E0201DFFF7E7FAA06A18B104F1EF
:100EC0001800FFF7E1FA94F82C10012088404549FA
:100ED0000968084343490860E16A01EB8101354A2A
:100EE00002EB8100211DFFF7A9FA3B49E06A09687E
:100EF000C96A8842C7D30127C5E700BF36480068E2
:100F0000C06A00EB80002B4951F82000012800D96D
:100F100001273A48006848B901F06CFF06E03748FD
:100F20000068401C3549086001F064FF34480068DF
:100F300000B101273846BDE8F08170B5002501F009
:100F40001DF82B480068401E2949086008460068C3
:100F5000002874D11F480068002870D024E0184889
:100F6000C068C46804F11800FFF78EFA201DFFF76F
:100F70008BFA94F82C10012088401A49096808431C
:100F800018490860E16A01EB81010A4A02EB81001D
:100F9000211DFFF753FA1049E06A0968C96A8842BF
:100FA00002D30120164908600548006808B90120ED
:100FB00029E027E0000100206401002078010020E2
:100FC0008C010020A0010020B4010020240000209A
:100FD0002800002030000020200000203C000020DD
:100FE0004C00002038000020500000202C00002081
:100FF0005400002034000020480000204000002061
:101000004400002000200028A9D0FC48006878B1E6
:101010000AE0FFF712FF10B10120F9490860F74814
:101020000068401EF5490860F44800680028F0D1C7
:10103000F3480068012802D1012500F095FF00F077
:10104000AAFF284670BD10B50446EE48006844600B
:10105000ED480068844207D2EA480168091DEB4860
:101060000068FFF7F7F90CE0E6480168091DE84859
:101070000068FFF7EFF9E7480068844201D2E548CD
:10108000046010BDE4480068401CE34908607047F4
:101090002DE9F047044688464FF00009FFF7F2FFBC
:1010A000D9480768206800EB08052068B84207D9CE
:1010B0002068A8420BD9BD4209D94FF0010906E0CA
:1010C0002068A84201D8BD4201D94FF0010925602E
:1010D000B9F1000F13D0CB480068001DFFF7D4F919
:1010E00050B9C848006890F82C1001208840CB49BE
:1010F00009688143C94801602846FFF7A4FFFFF74C
:101100001CFF06460EB900F02FFFBDE8F08770B552
:1011100004460026DCB1FFF7B5FFBB48006805199F
:10112000B8480068001DFFF7AFF950B9B54800682E
:1011300090F82C1001208840B84909688143B748CD
:1011400001602846FFF77FFFFFF7F7FE06460EB95E
:1011500000F00AFF70BD70B5044600F00FFF14B92F
:10116000A848006800E020460646F56A00F013FF34
:10117000284670BD2DE9F04780460D464FF0000926
:10118000052D00D3042500F0F9FEB8F1000F02D1BF
:101190009C48006800E040460446E66CAE4250D0F1
:1011A000B5420BD99748006884420DD09548006835
:1011B000C06AA84208D84FF0010905E091480068CC
:1011C000844201D14FF00109E76AE16AE06C88428C
:1011D00000D1E562E564A06900F0004010B9C5F1F6
:1011E0000500A06107EB87018D4A02EB8101606970
:1011F000884201D1012000E00020E0B1201DFFF76E
:1012000043F930B90120B8408449096881438348D3
:10121000016094F82C100120884080490968084337
:101220007E490860E16A01EB81017D4A02EB8100A1
:10123000211DFFF703F9B9F1010F01D100F094FE70
:1012400000BF00F0A8FEBDE8F08710B57248006846
:1012500018B101206A49086039E000206849086037
:1012600068480068006867490968096B884205D8C2
:10127000644801683431006801F0B8FD61490968CB
:101280001422086B674905F0D9FF28B15D48016851
:101290003431006801F0AAFD60480068B0FA80F0BF
:1012A000C0F11F0101EB81025D4B03EB820042683C
:1012B0005268426000F108024368934202D14268DA
:1012C000526842604268D2684E4B1A6000BF10BD3F
:1012D00070B5054600F052FE15B94A48006800E0B6
:1012E00028460446201DFFF7CFF878B9E06A00EBE6
:1012F00080004B4951F8200040B994F82C1001208F
:10130000884046490968814344480160A06A18B191
:1013100004F11800FFF7B8F8211D4348FFF78EF8D5
:1013200000F039FE37480068844212D13F48006817
:1013300010B100F019FE15E03B4800683C4909680F
:10134000884203D100202F4908600BE0FFF77DFFA2
:1013500008E03648006828B100F010FEFFF713FDE2
:1013600000F019FE70BD10B5014600200A462E4C53
:101370005369A34201D1012300E0002373B12D4C36
:10138000936AA34201D1012300E0002333B9936A99
:101390000BB9012300E0002303B1012010BD70B59B
:1013A00005462C464CB317480068844225D000F00F
:1013B000E5FD2046FFF7D7FF01281CD1201DFFF7D0
:1013C00063F894F82C1001208840144909680843F8
:1013D00012490860E16A01EB8101114A02EB8100C8
:1013E000211DFFF72BF80749E06A0968C96A88429E
:1013F00001D300F0B9FD00F0CEFD70BD400000202B
:10140000440000202000002034000020280000209C
:10141000240000205000002054000020380000204C
:101420000001002054830008B40100203C0000208B
:10143000300000208C0100202DE9F04105460026F7
:101440002C46FEF7BDFE07462046FFF78CFF01281D
:1014500024D1F6480068E0B9F549E06A0968C96A2C
:10146000884200D30126201DFFF70EF894F82C10B7
:1014700001208840EF4909680843EE490860E16AA5
:1014800001EB8101EC4A02EB8100211DFEF7D6FF42
:1014900004E004F11801E948FEF7D0FF3846FEF7F2
:1014A00096FE3046BDE8F08110B50446206B00F092
:1014B0005BFE204600F058FE10BD70B523E0FFF73C
:1014C000E1FDDF48006808B9012000E00020054682
:1014D000FFF733FDBDB900F051FDD948C068C468BD
:1014E000201DFEF7D1FFD7480068401ED54908608F
:1014F000D5480068401ED449086000F04CFD2046E5
:10150000FFF7D2FF00BFD04800680028D7D170BDD8
:1015100000BFFFF7D2FFC8480068012801D900F0DA
:1015200023FD01F062FCF4E71FB50020009001905C
:10153000029003464622C5A10390C648FFF7AFFBC1
:101540000446012C02D100F076FC0446012C09D19E
:10155000FEF736FE0120C04908600020BF49086040
:1015600000F0ECFC1FBD10B5FEF72AFE0020BA49C2
:10157000086000F0F8FC10BD10B500F0FFFCB748A3
:10158000046800F008FD204610BD70B5FEF718FE97
:101590000546B24804682846FEF719FE204670BD8D
:1015A000A848006870470246002101E0521C491C0F
:1015B0001078A528FAD0890888B270472DE9F0473D
:1015C00006460C4690460025206800284BD0204651
:1015D00041684968416000F1080142688A4202D1CD
:1015E0004168496841604168D1F80C9000BF2046CD
:1015F00041684968416000F1080142688A4202D1AD
:101600004168496841604168CF6806EB4510076052
:1016100007F1340006EB45114860786C06EB451184
:10162000886006EB451080F80C80F86A06EB4511DF
:101630000861B8F1030F05D1B86A18B1022006EBB2
:1016400045110873F86C06EB45114861002006EB64
:1016500045118861386BFFF7A6FF06EB45118883BB
:101660006D1C4F45C3D12846BDE8F0872DE9F041F8
:1016700005468846164600240527FFF703FD7148F6
:10168000006880452FD300BF7F1E07EB87026A4B9F
:1016900003EB820105EB44100122FFF78FFF0444A6
:1016A000002FF1D105EB441002226D490968FFF7C4
:1016B00085FF044405EB441002226A490968FFF7DC
:1016C0007DFF044405EB441004225D49FFF776FFDB
:1016D000044405EB441003226349FFF76FFF044401
:1016E0000EB100203060FFF728FC2046BDE8F081F5
:1016F00070B506460C464E48016818313046FEF774
:10170000A9FE4B480068001DFEF7BEFE50B94848D0
:10171000006890F82C1001208840464909688143F0
:1017200044480160601C30B941480168091D4E48B9
:10173000FEF784FE05E04948006805192846FFF7D2
:1017400082FC70BD2DE9F04107460D46144645F078
:1017500000403749096888613548016818313846C2
:10176000FEF76CFE32480068001DFEF78DFE50B992
:101770002F48006890F82C10012088402D490968F6
:1017800081432C480160601C30B929480168091D5B
:101790003548FEF753FE05E030480068061930462C
:1017A000FFF751FCBDE8F08170B506460C462048B5
:1017B000016818313046FEF741FE1D480068001DE3
:1017C000FEF762FE50B91A48006890F82C1001200C
:1017D0008840184909688143164801601F4800681D
:1017E00005192846FFF72FFC70BD70B50646F06856
:1017F000C46804F11800FEF747FE0C480068A8BB57
:10180000201DFEF741FE94F82C1001208840094964
:101810000968084307490860E16A01EB8101064A4B
:1018200002EB8100211DFEF709FE25E05400002097
:101830002000002038000020000100208C01002042
:10184000A0010020300000202C00002049444C451D
:1018500000000000111500083C00002034000020AA
:101860002400002028000020B4010020FFE704F13C
:1018700018019E48FEF7E2FD9D49E06A0968C96AC1
:10188000884204D9012501209A49086000E000251A
:10189000284670BD2DE9F04105460F4647F000404F
:1018A0002860EC682846FEF7EFFD201DFEF7ECFDF2
:1018B00094F82C10012088408F49096808438E490C
:1018C0000860E16A01EB81018C4A02EB8100211D75
:1018D000FEF7B4FD8649E06A0968C96A884204D9FE
:1018E000012601208349086000E000263046BDE85B
:1018F000F081834909680160824909684160704745
:1019000070B504460D4600F039FB7E480268286831
:10191000401C08B9002619E0794920680968884206
:1019200004D06068904201D801260FE06068101A68
:101930002968884209D228686168511A401A2860CB
:101940002046FFF7D6FF002600E0012600F023FB2B
:10195000304670BD0120674908607047014611B1EB
:101960000A46906C00E00020704708B1024691647E
:1019700070475F49086870476349096809B90120E1
:1019800005E06249096809B9022000E000207047BB
:1019900070B505462C46002D4BD05549E06A0968C4
:1019A000C96A884245D2A06900F0004028B9504871
:1019B0000068C06AC0F10500A061E16A01EB810125
:1019C0004E4A02EB81016069884201D1012000E0AA
:1019D000002050B3201DFEF757FD78B9E06A00EBF8
:1019E0008000464951F8200040B994F82C1001209D
:1019F00088404149096881433F4801603C4800688C
:101A0000C06AE06294F82C10012088403A490968C5
:101A1000084339490860E16A01EB8101374A02EB6A
:101A20008100211DFEF70AFD03E031480068C06A0D
:101A3000E06270BD70B505462C46002695B3E16C9A
:101A4000E06A88422ED0206D60BB201DFEF71CFD91
:101A500078B9E06A00EB8000284951F8200040B9CD
:101A600094F82C10012088402349096881432248BA
:101A70000160E06CE062E06AC0F10500A06194F8EA
:101A80002C10012088401C49096808431A49086045
:101A9000E16A01EB8101194A02EB8100211DFEF789
:101AA000CDFC0126304670BD11490968886910498E
:101AB0000968C96AC1F105010D4A12689161704750
:101AC0000B48006830B10A49096801F15000096DFE
:101AD000491C016070470648006830B10449096834
:101AE00001F15000096D491E016070478C01002012
:101AF00020000020440000203800002000010020C9
:101B000048000020340000203C0000205400002049
:101B10002DE9F04104460D4616461F464FF00008D9
:101B200065602461B5420CD8F01BA169884202D3DC
:101B30004FF0010811E0211DE6480068FEF78AFC1D
:101B40000BE0BE4204D2BD4202D34FF0010804E0D4
:101B5000211DE1480068FEF77DFC4046BDE8F081AC
:101B60002DE9FE4305460C4616461F46DDF8288043
:101B70004FF00009D948006810B30094019602950F
:101B8000062C15DAFFF7F8FE022808D1002342469A
:101B90006946D2480068FEF77AFD814610E00023CE
:101BA0001A466946CD480068FEF771FD814607E098
:101BB00000233A466946C9480068FEF7FBFE8146A5
:101BC0004846BDE8FE832DE9F84326E0C248006898
:101BD000C0680568C0480068C068C468201DFEF77A
:101BE00053FC2046616A8847E069012815D1A06945
:101BF0004619AE4207D966602461211DB6480068C7
:101C0000FEF728FC09E0002003462A460146009022
:101C10002046FFF7A5FF804600BFAF480068006878
:101C200008B9012000E000200028CFD0AA480768AA
:101C3000A8480068A8490860A6480760BDE8F8837E
:101C400070B50446FFF798FC0546A5480068854234
:101C500004D2FFF7B8FF0120206001E000202060DF
:101C60009F480560284670BD70B586B04EE0039869
:101C700000284BDB059C606908B9012000E00020CA
:101C800010B9201DFEF700FC02A8FFF7D9FF05469A
:101C900003980A2838D2DFE800F009050726283320
:101CA0000608272900BF00BF00BF00BF0498A26933
:101CB000811803462A462046FFF72AFF012811D142
:101CC0002046616A8847E06901280BD10020009016
:101CD0000498A1694218002319462046FFF740FFE7
:101CE000064600BF11E000BF0FE000BF0498A061EE
:101CF000A06941192B462A462046FFF709FF04E058
:101D0000204600F031FA00E000BF00BF00231A4671
:101D100003A972480068FEF794FD0028A7D106B019
:101D200070BDF8B505460E466B480068C068C468CB
:101D3000201DFEF7A9FBE069012812D1A069411915
:101D40002B4632462046FFF7E3FE012809D100204A
:101D500003462A46014600902046FFF701FF07464A
:101D600000BF2046616A8847F8BDF8B504460E46B4
:101D7000FFF788F96846FFF763FF05460098A0B9AA
:101D800046B9AC4206D8FFF7D8F829462046FFF7F7
:101D9000C8FF0CE0611B51480068FEF7F3FEFFF737
:101DA000CCF820B900F0E0F801E0FFF7C6F8F8BD84
:101DB0000146494A126812680AB9012200E000226D
:101DC0000A600A6822B9444A1268D268106800E0C2
:101DD0000020704708B500BF6846FFF7E9FF0446DA
:101DE00020460099FFF7C1FFFFF73EFFF4E710B56B
:101DF00000F0C4F839480068D0B93A48FEF70EFB45
:101E00003948FEF70BFB37483349086036483149FB
:101E1000086000220C210A20FEF781FB2F49086090
:101E20000846006820B131A12C480068FEF797FEF3
:101E300000F0B1F810BD1FB50024FFF7D8FF274808
:101E4000006860B100200423CDE900300290034611
:101E5000462228A103902948FEF721FF0446204688
:101E600004B010BD2DE9F04706460D4617469846CA
:101E7000DDF820900DB9002410E02C2000F011F9BD
:101E800004465CB1FFF7B3FF2660A561E761C4F8C3
:101E90002080C4F82490201DFEF7CDFA2046BDE82E
:101EA000F08701460A461068704770B5044626461A
:101EB00000F064F8706908B9012000E0002080F0AB
:101EC000010500F068F8284670BD01460A46106A10
:101ED000704700005C0000205800002060000020D7
:101EE00064000020C8010020DC010020546D725104
:101EF00000000000546D722053766300D51D000869
:101F0000FEF75EF900BFFEE7001F4FF0807303602D
:101F1000001F0160001F2E4B036014380260203840
:101F200070472C480068C0086421B0FBF1F0401EE7
:101F30004FF0E021486103200861704710B5264842
:101F4000006840F47000244908600846006840F0CA
:101F500070400860FFF7E5FF002020490860FEF7A9
:101F6000FDF8002010BD70474FF080501A491C3911
:101F70000860BFF34F8FBFF36F8F704710B5FEF748
:101F80001FF916480068401C14490860BFF34F8FC2
:101F9000BFF36F8F10BD10B510480068401E0F4989
:101FA00008600846006810B90020FEF710F910BD5F
:101FB00010B5FEF705F9FEF740FF20B14FF0805055
:101FC00005491C3908600020FEF701F910BD00002A
:101FD000011F00080000002020ED00E06800002044
:101FE00010B50146744800E0006803688B42FBD3DB
:101FF0000246436813448B4204D143684C6823442F
:10200000436001460A464B6813440468A34211D159
:102010006A4C03682468A34208D04B68046864686B
:1020200023444B6003681B680B6005E0634B1B682F
:102030000B6001E003680B60884200D0016010BDB6
:1020400030B54FF4E0435E4800F007042CB1C01DEA
:1020500020F007005A4C041B1B1B0246564C226002
:102060000024554D6C60D018083820F00700534C00
:1020700020600024514D2D686C60504D2D682C60FF
:102080001146441A4C604D4C24680C604D4D4C6810
:102090002C604D4D4C682C604FF000444B4D2C6033
:1020A00030BD2DE9F04105464FF00008FEF7EAFF8C
:1020B0004248006808B9FFF7C3FF44480068284059
:1020C000002847D145B1083505F0070020B105F0DB
:1020D0000700C0F108000544002D3BD03A480068D5
:1020E000854237D8344E3046046801E026462468DD
:1020F0006068A84202D220680028F7D12F48006803
:10210000844227D0306800F1080820683060606899
:10211000401B102807D967196068401B786065600C
:102120003846FFF75DFF284960680968081A2649A4
:1021300008600846006823490968884203D222489B
:1021400000682049086021496068096808436060A8
:1021500000202060FEF7F1FEB8F1000F01D100F081
:1021600040FE4046BDE8F08170B506463546D6B122
:10217000083D2C46154960680968084098B12068F8
:1021800088B912496068096888436060FEF77AFF81
:102190000D496068096808440B4908602046FFF74C
:1021A0001FFFFEF7CAFE70BD07480068704705486C
:1021B00000687047704700006C0000207400002029
:1021C000F00100207C00002078000020800000202A
:1021D0002DE9F04107460D462C4614F8016B14F822
:1021E000011B46EA012614F8011B46EA014614F8D1
:1021F000011B46EA01663146384603F0E2FCBDE8C1
:10220000F081F8B506466C46304603F0E7FC05461B
:1022100004F8015B280A04F8010B280C04F8010BF0
:10222000280E04F8010B0098F8BD38B50120FE49CE
:102230000880FFF7A1F904464FF0FF300023224643
:1022400001210090F9480068FFF78AFC38BD1CB5F1
:10225000002400BF00235A1E1946F5480068FEF707
:10226000F0FAF4480068F3490968491CF14A116022
:1022700040B101282CD002282BD0A0F613600028F2
:102280007ED163E0FFF7D1FF00235A1E1946EA48CA
:102290000068FEF7D6FAE9A20021022001F025FD30
:1022A000EAA20021032001F0A3FCEC480378EC48EB
:1022B0000278ECA1EF4805F0CBFBEE4801F0C6F93F
:1022C00000231A461946DC480068FEF7E0F949E1A8
:1022D00048E100235A1E1946D7480068FEF7B1FAB4
:1022E000E5A20021022001F0C7FBE7A200210320A4
:1022F00001F0C2FBE84800680A2190FBF1F201FB03
:102300001205E548006890FBF1F62B463246E3A142
:10231000D84805F09DFBD74A0921032001F0ACFB0A
:1023200000231A461946C4480068FEF7B0F9002396
:102330001A461946DB480068FEF7A9F900231A4639
:102340001946D9480068FEF7A2F90BE10320B94904
:102350000860C2480078401CC049087008460078F0
:10236000182806DB00200870BD480078401CBC49D6
:102370000870012201A9022000F04CFE012200E0B9
:102380004CE06946032000F045FEB54800789DF812
:10239000001088420EDDFFF7F1FD0122AF49022057
:1023A00000F046FE0122AE49032000F041FEFFF797
:1023B000F2FD19E0AA4800789DF80010884213D178
:1023C000A64800789DF8041088420DDDFFF7D6FD81
:1023D0000122A249022000F02BFE0122A049032085
:1023E00000F026FEFFF7D7FD00235A1E194692483B
:1023F0000068FEF726FA994803789948027899A16F
:102400009C4805F025FB9B4801F020F900231A4663
:10241000194689480068FEF73AF9A3E0A348008A04
:1024200000F0010088BB2046611CCCB205282DD1EC
:10243000012201A9022000F0EDFD012269460320DE
:1024400000F0E8FD00235A1E19467B480068FEF79D
:10245000F8F99DF804309DF8002082A1854805F028
:10246000F7FA844801F0F2F800231A461946724838
:102470000068FEF70CF900231A4619468C480068DC
:10248000FEF705F9FFF7D1FE2DE007E000231A461D
:10249000194685480068FEF7FAF824E0002C1BDD99
:1024A000002400235A1E194663480068FEF7C9F944
:1024B0006A4803786A4802786AA16E4805F0C8FA4B
:1024C0006C4801F0C3F800231A4619465A480068C0
:1024D000FEF7DDF8FFF7A9FE00231A4619467248F9
:1024E0000068FEF7D4F873480078012839D14F48C6
:1024F0000068FFF7DAFCA0BB00206E4908700023DB
:10250000421E19464C480068FEF79BF96AA2092151
:10251000022001F0B1FA604800680A2190FBF1F254
:1025200001FB12055C48006890FBF1F62B46324631
:102530005AA1504805F08CFA4E4A0921032001F0B7
:102540009BFA00231A4619463B480068FEF79FF89D
:10255000FFF714FD022250490A2000F069FDFFF741
:102560001AFD00BF76E600BF4FF400604F49488374
:102570000023052219464E480068FEF762F94FF421
:1025800000604A49088300235A1E194648480068DB
:10259000FEF757F9E8E700235A1E19464848006835
:1025A000FEF74FF900BF00235A1E19464448006841
:1025B000FEF747F9FFF739FE0520FEF7A8FD3D4875
:1025C000007880F001003B49087000235A1E19462C
:1025D00019480068FEF735F93648007801287BD1A4
:1025E0002D4800683749086023A20021022001F02D
:1025F00043FA25A20021032001F03EFA2EA2092170
:10260000022001F072FB244800680A2190FBF1F2DD
:1026100001FB12042048006890FBF1F523462A468E
:102620001EA1144850E057E01A040240B0000020F8
:10263000A80000208C00002098000020434F534B3E
:10264000554E20455247414E000000004953492D48
:102650004E454D2056312E350000000090000020E0
:10266000910000203A3A25302E326425302E326413
:1026700000000000F07100204953493A202020203A
:1026800020415941520000004E454D3A202520205E
:102690002020202020000000880000202530326407
:1026A0002E2564009C0000209400002000000240C1
:1026B000A400002084000020415941520000000085
:1026C000A00000202404004005F0C2F9FE4A0921C0
:1026D000032001F08DFA25E0AFF224020921022047
:1026E00001F0CAF9F94800680A2190FBF1F201FBF8
:1026F0001204F648006890FBF1F523462A46AFF233
:102700006401F14805F0A4F9EF4A0921032001F022
:10271000B3F9FFF733FC0222EC490A2000F088FCF1
:10272000FFF739FC00231A461946E9480068FDF70F
:10273000AEFF00231A461946E6480068FDF7A7FFDA
:1027400031E7E548046800235A1E1946E34800684B
:10275000FEF777F800BF00235A1E1946DF480068CD
:10276000FEF76FF8DC480068A04203D0DA4804683E
:10277000FFF75BFDDA4800780128ECD1D648006805
:10278000D249086000235A1E1946D1480068FEF756
:1027900058F8AFF2DC020921022001F0A6FACB487A
:1027A00000680A2190FBF1F201FB1205C74800689E
:1027B00090FBF1F62B463246AFF22011C24805F0ED
:1027C00047F9C14A0921032001F012FA00231A46F1
:1027D0001946BF480068FDF75AFFBCE788B00020E3
:1027E000FFF70FFD049000235A1E1946BD480068EC
:1027F000FEF727F800BF00235A1E1946B9480068A3
:10280000FEF71FF806A907A801F06AFD00287CD191
:10281000B549079804F06CFF09D3B449079804F050
:102820005DFF04D3B049069804F062FF00D2E2E7EE
:10283000A648006804F0C0FE0646AD4AAD4B04F061
:102840003BFE044604F02EFF0590079804F0E6FED8
:1028500080460022A84B04F029FE04460D46059848
:1028600004F0DCFE064622462B4604F0EBFE04D8BC
:102870000020A2490870049066E0079804F0CEFE9C
:10288000804600229C4B04F070FD04460D460598DE
:1028900004F0C4FE064622462B4604F0EBFE05D8A3
:1028A000632096490870002004904DE00799059830
:1028B00004F023FD0446049904F0CDFC049004A91F
:1028C0000020FFF785FC049804F0A8FE04468C4A1B
:1028D0008C4B04F0F1FDCDE90001079804F09EFE59
:1028E00080468946059804F099FE06460022824BF0
:1028F00004F03BFD044642464B4604F0D7FD8246B9
:10290000DDE9002304F031FD00E057E0CDE90201EC
:1029100004F0C8FE05900021059804F0DFFE03D204
:1029200000207649087008E07749059804F0EBFC30
:10293000044604F05FFE714908707048007863280F
:1029400002DD63206D49087000235A1E1946604855
:102950000068FDF776FF079804F060FE0446224603
:102960000B466AA1584805F073F8574A0421022023
:1029700001F082F8069804F051FE044622460B4608
:1029800064A1514805F064F84F4A0621032001F084
:1029900073F85A48027861A14B4805F059F84A4A41
:1029A0000021012001F068F800231A461946484822
:1029B0000068FDF76CFE04F006FC24E106A907A8F8
:1029C00001F034FD00287DD14749079804F090FEBE
:1029D00009D34649079804F081FE04D3424906987A
:1029E00004F086FE00D206E73848006804F0E4FDF3
:1029F00006463F4A3F4B04F05FFD044604F052FE9A
:102A00000590079804F00AFE804600223A4B04F035
:102A10004DFD04460D46059804F000FE064622468C
:102A20002B4604F00FFE04D80020344908700490AF
:102A30008CE0079804F0F2FD804600222E4B04F053
:102A400094FC04460D46059804F0E8FD064622462F
:102A50002B4604F00FFE05D863202849087000209B
:102A6000049073E00799059804F047FC0446049924
:102A700004F0F1FB049004A90020FFF7A9FB0498DF
:102A800004F0CCFD04461E4A1E4B04F015FD8046A2
:102A90008946079804F0C2FD04460D46059804F0E7
:102AA000BDFD06460022144B04F05FFC8246224620
:102AB0002B4604F0FBFC42464B46CDE9000104F0F6
:102AC00054FC2FE07FE00000F0710020880000201F
:102AD00098000020A4000020240400409C00002056
:102AE00084000020940000200000C642000020C1A5
:102AF0009A9999999999B93F0000E03F9200002076
:102B00007B14AE47E17A843F0000C8422530322E64
:102B10003166000025322E30660000002530326418
:102B200000000000CDE9020104F0BCFD0590BA49A7
:102B3000059804F0E8FB044604F05CFDB749087012
:102B400008460078632801DD6320087000235A1EC0
:102B50001946B3480068FDF774FE079804F05EFD5F
:102B6000044622460B46AFF25C01AE4804F070FF0B
:102B7000AC4A0421022000F07FFF069804F04EFDCD
:102B8000044622460B46AFF27401A64804F060FFEB
:102B9000A44A0621032000F06FFFA0480278AFF29C
:102BA0008401A04804F054FF9E4A0021012000F057
:102BB00063FF00231A46194699480068FDF767FD30
:102BC00004F001FB1FE000235A1E194694480068D8
:102BD000FDF737FE9148007820B190480078401EFC
:102BE0008E49087090A20421022000F045FF90A2B7
:102BF0000621032000F040FF00231A4619468848AA
:102C00000068FDF744FDF6E538B504460120894922
:102C10000880801E00231A46032100908648006821
:102C2000FEF79EFF38BD1FB545F2555004F0C2FABD
:102C3000062004F0C2FA4FF4147004F0C1FA04F054
:102C4000C2FA5D2001F0F0FF18B100210846FFF73D
:102C5000BFFA012080F3108800BF00F019FA00F0DD
:102C60002CFE00F048FD0120FDF786FD6C49086050
:102C7000032200210120FDF752FC7049086008463C
:102C8000006830B100231A4619466C480068FDF709
:102C9000FEFC032200210120FDF741FC6849086089
:102CA0000846006830B100231A4619466448006897
:102CB000FDF7EDFC032200210120FDF730FC614906
:102CC00008600846006830B100231A4619465D487E
:102CD0000068FDF7DCFC032200210120FDF71FFC4A
:102CE000594908600846006830B100231A46194661
:102CF00055480068FDF7CBFC032200210120FDF7B9
:102D00000EFC524908600846006830B100231A469C
:102D100019464E480068FDF7BAFC4D4800230122D1
:102D20004FF4FA7100904BA0FFF79CF842490860FD
:102D300000200923CDE90030029003464FF40072D1
:102D400047A103904948FDF7AAFF00200523CDE9DC
:102D50000030029003464FF4007245A103904848AA
:102D6000FDF79DFF00200523CDE9003002900346CA
:102D70004FF4007243A103904548FDF790FF0020F7
:102D80000F23CDE90030029003464FF4807241A139
:102D900003904248FDF783FF00200623CDE9003071
:102DA000029003464FF480723DA103903D48FDF729
:102DB00076FF02221B490A2000F02CF919480078FE
:102DC0003949086017484078096841EA00203649C7
:102DD00008600121354803F03FFAFEF7A5FB00BF6C
:102DE000FEE7FDF7EDF900BFFEE77047FDF7E8F9F4
:102DF00000BFFEE7704738B504460D46002000903E
:102E0000FFF7BCF801E000BF00BF00980028FAD02F
:102E1000FFF7C1F838BD00000000C8429200002052
:102E200098000020F071002058582E580000000033
:102E30005858000018040240B00000209400002000
:102E40009C000020A0000020A4000020A80000207A
:102E5000092C0008424C2054696D65720000000086
:102E60005461736B2053656E736F7200DD27000829
:102E700054616B7320456E636F64657200000000DF
:102E80004327000854616B73204275746F6E000015
:102E90009725000842757A7A657200006725000858
:102EA000525443004F2200088800002000040040D4
:102EB00010B5012001F0BCFC00231A4619464D480C
:102EC0000068FDF777FD10BD10B5042001F0B0FCDF
:102ED00000231A46194648480068FDF76BFD10BDEF
:102EE00010B50121454803F0F2FC0021434803F0EE
:102EF000B3F901204249088000BF00BF00BF00BFF6
:102F000000BF00BF00BF00BF00BF00BF00BF00BFC9
:102F100000BF00BF00BF00BF00BF00BF00BF00BFB9
:102F200000BF00BF00BF00BF00BF00BF0120344989
:102F3000891C088010BD10B5802001F079FC314853
:102F4000406A3149086000202E4948622F480078C5
:102F5000632803D101202A49088020E02B4800780B
:102F600020B901202649891C088018E00120244945
:102F7000891C0880244800686321B0FBF1F02249D5
:102F800009684FF6FF72511A204A127800FB0210AE
:102F90001A49243108600121184803F05DF910BD79
:102FA0000446042204F114014FF4407000F040F88C
:102FB000042204F118014FF4417000F039F800BF09
:102FC000FEE700BFFEE700BFFEE700BFFEE700BF71
:102FD000FEE710B54FF4804002F0CDFE4FF48010B4
:102FE00001F026FC00231A46194609480068FDF73F
:102FF000E1FC10BDA00000209C000020000C00405F
:103000001808024000100040B40000209200002088
:10301000A800002030B584181B4D63192C462044AD
:1030200003E004780C70491C401C9842F9D330BD71
:103030002DE9F04104460D461646A01912494718DD
:1030400008460444012080F3108800BF03F08AFD85
:1030500010E02978204603F0A8FE0C4908700846C5
:103060000078042802D1641C6D1C03E040F6027055
:1030700004F097F8BC42ECD303F009FE002080F383
:10308000108800BFBDE8F08100000808B8000020EB
:1030900030B589B0002544F620640121080701F00D
:1030A0002DFF012001F0F3FC012001F001FF0020C1
:1030B00001F0FEFE012001F00AFE02E0641E04B9E8
:1030C00004E0492001F0B0FD0028F7D000BF8CB922
:1030D000002001F0FCFD012001F000FE00BF4120B6
:1030E00001F0A2FD0028FAD04FF4003001F0BCFE40
:1030F000012503E04FF4803001F0B6FE012001F01D
:10310000D3FE012001F0F8FD012001F0F8FD01F0EF
:10311000A7FF002002F044FB012D04D140F61F1050
:1031200002F053FB03E04FF4006002F04EFB01217C
:10313000880302F0A9FD012002F057FB01210720BE
:1031400003F0B1FC012001F0BEFC0121FF2001F0E1
:10315000B3FE03208DF8200000208DF821008DF8AB
:1031600023004FF6FF70079007A9F54801F0C8FB50
:1031700007A9F44801F0C4FB07A9F34801F0C0FB1C
:1031800007A9F24801F0BCFB07A9F14801F0B8FB20
:1031900007A9F04801F0B4FB07A9EF4801F0B0FB24
:1031A00049F6FF70079007A9EC4801F0A9FB002140
:1031B000F82001F081FE012007908DF8200000200A
:1031C0008DF822008DF8230003208DF8210007A937
:1031D000E04801F095FB4FF40060079001208DF866
:1031E000200000208DF822008DF8230003208DF8A8
:1031F000210007A9D94801F083FB4FF480500790C4
:1032000001208DF8200000208DF822008DF8230089
:1032100003208DF8210007A9D04801F071FB4FF47D
:103220008070079001208DF8200000208DF822008A
:103230008DF8230003208DF8210007A9C74801F06D
:103240005FFB46F20700079001208DF82000002068
:103250008DF822008DF8230003208DF8210007A9A6
:10326000BC4801F04DFB4FF48070079001208DF8B1
:1032700020008DF8220000208DF8230003208DF817
:10328000210007A9B34801F03BFB4FF40070079001
:1032900001208DF820008DF8220000208DF82300F9
:1032A00003208DF8210007A9AA4801F029FB8020FE
:1032B000079000208DF820008DF8230003208DF862
:1032C000210007A9A34801F01BFB10200790022052
:1032D0008DF8200003208DF8210001208DF82300B7
:1032E00007A99D4801F00CFB2020079002208DF8D3
:1032F000200003208DF8210001208DF8230007A96C
:10330000954801F0FDFA0120079000208DF820007B
:1033100001208DF8230003208DF8210007A98F4894
:1033200001F0EEFA0420079000208DF820008DF8BF
:10333000230003208DF8210007A9884801F0E0FA56
:103340004FF40060854908834000088301208249CA
:10335000183108800002814908837E4918310880AD
:10336000400008800121084601F0B7FD0021084611
:1033700002F047FD0221002002F043FD0721022058
:1033800002F03FFD7648059000208DF818000C20D3
:103390008DF8190001208DF81A0005A801F0D1F967
:1033A0004FF48010059000208DF8180008208DF84B
:1033B000190001208DF81A0005A801F0C2F90420B7
:1033C000059000208DF8180010208DF819000120BC
:1033D0008DF81A0005A801F0B4F9012001F028FACF
:1033E000042001F025FA802001F022FA06208DF851
:1033F00010000F208DF8110000208DF81200012020
:103400008DF8130004A801F022F908208DF81000AF
:103410000F208DF8110000208DF8120001208DF88A
:10342000130004A801F013F917208DF810000020F4
:103430008DF811008DF8120001208DF8130004A8FA
:1034400001F005F903208DF810000F208DF8110010
:1034500000208DF8120001208DF8130004A801F05F
:10346000F6F80121022001F049FD022204213A4828
:1034700001F0CFFA02220521374801F0CAFA0020F4
:10348000ADF80400ADF80C004FF416700290002067
:10349000ADF8060001A9334802F064FE012131486D
:1034A00002F0BCFE02231A4619462E4803F0BAFA6F
:1034B0000121082001F022FD0121102001F01EFD54
:1034C0000020ADF80400ADF80C004FF6FF7002903C
:1034D0000020ADF8060001A9234802F043FE0121B7
:1034E000214802F09BFE0020ADF80400ADF80C006E
:1034F0004FF6FF7002900020ADF8060001A91B48AE
:1035000002F030FE2E208DF8100000208DF8110002
:103510008DF8120001208DF8130004A801F097F82F
:1035200001221146104803F0AAF900210E4802F0CA
:1035300093FE01210D4802F08FFE09B030BD00005E
:10354000001C02400014024000180240001002401B
:10355000000C02400008024000040240000002404B
:103560008100100000040040000C004000100040EA
:103570002DE9F04105460F468024012D00D101249C
:103580000221F74801F036FA00261EE00421F44833
:1035900001F032FA07EA0400A04205D14FF480415D
:1035A000EF4801F027FA04E04FF48041EC4801F0C5
:1035B00023FA0421EA4801F01DFA012D02D1600628
:1035C000040E00E06410701CC6B2082EDEDBBDE8FD
:1035D000F08170B5064680240221E14801F00CFA22
:1035E000002519E00421DE4801F006FA06EA04008D
:1035F000A04205D14FF48041D94801F0FBF904E025
:103600004FF48041D64801F0F7F90421D44801F085
:10361000F1F96410681CC5B2082DE3DB70BD70B50C
:1036200004460D46B820FFF7D4FF04F00F00FFF763
:10363000D0FF04F0F004241144F010042046FFF7FA
:10364000C8FF29460020FFF793FF70BD70B50546FF
:10365000002614E000240DE02A78303AC14B53F8DC
:103660002220115DC04A52F82620105DFFF7D7FFD7
:10367000601CC4B2072CEFDB6D1C701CC6B2062E9A
:10368000E8DB70BD2DE9F04106460C4617464FF4C5
:103690000051B34801F0A2F910BB3046FFF799FF83
:1036A00000BF04F00F052846FFF793FF04F0F00574
:1036B0002846E91705EB11710D1145F0100500BF03
:1036C0002846FFF786FF00210120FFF751FF601C0D
:1036D000C4B2102C02D1B82E00D12F24BC42E0DBA2
:1036E000BDE8F08110B504468120FFF772FF204647
:1036F000FFF76FFF10BD70B59C4C00254FF40051D3
:10370000974801F079F92021994801F075F900BF37
:10371000681EC0B2051EFBD12021954801F06AF950
:1037200000BF681EC0B2051EFBD100BF2078FFF7A6
:1037300050FF641C2078FF28F8D10820FFF7D2FF43
:1037400000BF681EC0B2051EFBD1AF20FFF741FFCE
:1037500060220021B020FFF795FF60221021B120E8
:10376000FFF790FF60220B21B820FFF78BFF70BDA1
:1037700070B500264FF40051794801F02FF940B19F
:10378000FFF7B9FFAF20FFF724FF0121744801F0D4
:1037900033F978A0FFF75AFF01210D20FFF73FFF13
:1037A00001210E20FFF73BFF01210C20FFF737FF1F
:1037B00001210B20FFF733FF01214620FFF72FFFE8
:1037C00001215020FFF72BFF01213620FFF727FFB3
:1037D00001210F20FFF723FF01215F20FFF71FFFCB
:1037E00001215D20FFF71BFF01215E20FFF717FF7E
:1037F00001213F20FFF713FFB020FFF7EAFE06F09C
:103800000F052846FFF7E5FE06F0F0052D1145F0FF
:1038100010052846FFF7DDFE002405E0FF2100200B
:10382000FFF7A6FE601CC4B2602CF7DBB120FFF7E7
:10383000D0FE06F00F052846FFF7CBFE06F0F00598
:103840002D1145F010052846FFF7C3FE002405E0C2
:10385000FF210020FFF78CFE601CC4B2602CF7DB58
:1038600070BD4FF400503E49183108800120088097
:103870008003891C08800420088002200880202002
:103880003B491A31088070477CB506460C46154600
:103890000121284601F010FB009401208DF804005E
:1038A00000208DF806008DF8070001208DF8050036
:1038B0006946304601F024F87CBD10B5022204218F
:1038C0002748FFF7E1FF022251032548FFF7DCFFFD
:1038D000022211462248FFF7D7FF02221103204897
:1038E000FFF7D2FF042220212148FFF7CDFF02225B
:1038F00001211B48FFF7C8FF022211461848FFF7B5
:10390000C3FF4FF40051164801F074F82021184805
:1039100001F070F80121124801F06CF810BD70B58B
:1039200004460D4604F00F00FFF753FE04F0F004C8
:10393000241144F010042046FFF74BFE29460020D6
:10394000FFF716FE70BD10B58120FFF742FE0B4851
:103950000088B0F5AD7F13DB0020FFF73AFE3FE0B3
:1039600000040240FC8300089483000828840008B7
:10397000000802403838383838380000BA000020D3
:10398000FE480088B0F5AA7F03DD0120FFF721FE85
:1039900026E0FA480088B0F5A87F03DB0220FFF795
:1039A00018FE1DE0F5480088B0F5A37F03DB042076
:1039B000FFF70FFE14E0F1480088B0F5A07F03DDAB
:1039C0000820FFF706FE0BE0EC480088B0F59E7F6C
:1039D00003DB1020FFF7FDFD02E01220FFF7F9FDE9
:1039E00010BD01460020E12940D012DCDD2931D094
:1039F00008DCC7292AD0D0292AD0D6292CD0DC2906
:103A000038D12DE0DE2929D0DF292BD0E02931D192
:103A10002AE0F62914D006DCE22929D0E72909D0CA
:103A2000F02927D108E0FC290ED0FD2906D0FE2977
:103A300020D107E07F201DE080201BE0812019E0DD
:103A4000822017E0832015E0842013E0852011E018
:103A500086200FE087200DE088200BE0892009E018
:103A60008A2007E08B2005E08C2003E08D2001E018
:103A70008E2000BF00BF70472DE9F84F05460E4667
:103A800017464FF000080020009082468346012D23
:103A90000ED101200090B020FFF79BFD06EB460001
:103AA000002101EB400000F0FF0A4FF0090B1CE081
:103AB000022D0CD100200090B020FFF78AFD06EB0C
:103AC0004600102101EB400000F0FF0A0DE0032D3D
:103AD0000BD100200090B120FFF77BFD06EB4600E4
:103AE000102101EB400000F0FF0A0AF00F094846E0
:103AF000FFF76FFD0AF0F0094FEA291949F01009A4
:103B00004846FFF766FD00210098FFF731FD28E0E9
:103B10000BF1010000F0FF0B3C787F1C04B920245E
:103B20007E2C03DD2046FFF75CFF0446A4F1200055
:103B3000C4B24FF000080DE004EB4400904A02EBE1
:103B4000400010F808100098FFF712FD08F101007E
:103B500000F0FF08B8F1060FEEDBBBF10C0F00DD43
:103B600002E038780028D3D100BFBDE8F88FF0B567
:103B700089B007460E4683A30FCB05AC0FC40025C2
:103B800009E0307801A94855761C01A8405D00B9CC
:103B900003E0681CC5B20F2DF3DB00BFC5F10E00BA
:103BA00000EBD071C1F3470500240CE0AC4204DB0C
:103BB000601B01A9085C05A9085505A8005D00B9AE
:103BC00003E0601CC4B20F2CF0DB00BF202005A96D
:103BD000085504E0202005A90855601CC4B20F2C2C
:103BE000F8DB05AA00213846FFF746FF09B0F0BD13
:103BF0002DE9F84F05460E4617464FF00008002005
:103C0000009082468346012D0ED101200090B02005
:103C1000FFF7DFFC06EB4600002101EB400000F05F
:103C2000FF0A4FF0090B1CE0022D0CD10020009080
:103C3000B020FFF7CEFC06EB4600102101EB400060
:103C400000F0FF0A0DE0032D0BD100200090B12001
:103C5000FFF7BFFC06EB4600102101EB400000F02F
:103C6000FF0A0AF00F094846FFF7B3FC0AF0F00913
:103C70004FEA291949F010094846FFF7AAFCFF212D
:103C80000098FFF775FC2AE00BF1010000F0FF0B34
:103C90003C787F1C04B920247E2C03DD2046FFF7EE
:103CA000A0FE0446A4F12000C4B24FF000080FE0CB
:103CB00004EB4400324A02EB400010F80800C04315
:103CC000C1B20098FFF754FC08F1010000F0FF08B2
:103CD000B8F1060FECDBBBF10C0F00DD02E0387829
:103CE0000028D1D100BFBDE8F88F2DE9F84F054677
:103CF0000E4617464FF0000800200090824683468B
:103D0000012D0ED101200090B020FFF762FC06EBE0
:103D10004600002101EB400000F0FF0A4FF0090BC4
:103D20001CE0022D0CD100200090B020FFF751FCC8
:103D300006EB4600102101EB400000F0FF0A0DE009
:103D4000032D0BD100200090B120FFF742FC06EBC1
:103D50004600102101EB400000F0FF0A0AF00F09B5
:103D60004846FFF736FC0AF0F0094FEA291949F0F6
:103D700010094846FFF72DFC80210BE0BA00002017
:103D8000EC8500082020202020202020202020203A
:103D9000202000000098FFF7EBFB2AE00BF1010068
:103DA00000F0FF0B3C787F1C04B920247E2C03DD3F
:103DB0002046FFF716FE0446A4F12000C4B24FF0DF
:103DC00000080FE004EB4400764A02EB400010F8D4
:103DD000080040F080010098FFF7CAFB08F10100DD
:103DE00000F0FF08B8F1060FECDBBBF10C0F00DDB3
:103DF00002E038780028D1D100BFBDE8F88F2DE966
:103E0000F04705464FF00008C146B020FFF7E1FB40
:103E10004FF0100808F00F073846FFF7DAFB08F0FC
:103E2000F0073F1147F010073846FFF7D2FB3EE09E
:103E300009F1010000F0FF092C786D1C482C01D11C
:103E40000F241AE0412C01D1102416E0542C01D18A
:103E5000112412E0422C01D112240EE0592C01D180
:103E600013240AE04C2C01D1142406E04E2C01D17D
:103E7000152402E0A4F12B00C4B2002611E0162C98
:103E800009DA04EB8400484A02EB4000815D01201E
:103E9000FFF76EFB03E000210120FFF769FB701CB8
:103EA000C6B20A2EEBDBB9F10C0F00DD00E0BFE774
:103EB00000BF4FF00008C146B120FFF78AFB4FF06A
:103EC000100808F00F073846FFF783FB08F0F007EB
:103ED0003F1147F010073846FFF77BFB0D3D3EE0F2
:103EE00009F1010000F0FF092C786D1C482C01D16C
:103EF0000F241AE0412C01D1102416E0542C01D1DA
:103F0000112412E0422C01D112240EE0592C01D1CF
:103F100013240AE04C2C01D1142406E04E2C01D1CC
:103F2000152402E0A4F12B00C4B2002611E0162CE7
:103F300009DA04EB84001D4A02EB4000815D012098
:103F4000FFF716FB03E000210120FFF711FB701CB7
:103F5000C6B20A2EEBDBB9F10C0F00DD00E0BFE7C3
:103F600000BFBDE8F0872DE9F04104460D4610483A
:103F700050F825600F4850F82470B820FFF729FB4F
:103F80004FF0000809E039783078FFF748FB761CDD
:103F90007F1C08F1010000F0FF08B8F1070FF2DB09
:103FA000BDE8F081EC850008348400081085000825
:103FB00094830008FC8300084FF48070D749088080
:103FC00000BF00BF4FF40070D449891E088000BFB5
:103FD00000BF4FF40070D149088000BF00BF4FF40C
:103FE0008070CE49891E088070474FF48070CB499D
:103FF000891E08804000891C088000BF00BF4FF464
:104000000070C649891E088000BF00BFC3480A3837
:104010000088C0F3002070470146802000BF4FF4A5
:104020000072BE4B1A8001EA00021AB19A159B1E5B
:104030001A8003E04FF48072B84B1A8000BF4FF42F
:104040000072B64B9B1E1A80401000BF0028E6D1BC
:10405000704700B54FF40070B049891E08804010C9
:104060000880FF20FFF7D8FF4FF40070AB490880AD
:1040700000BF00BF4FF40070A849891E088000BF30
:1040800000BD4FF40070A549088000BF00BF4FF489
:104090000070A249891E088000BF00BF4FF48070E5
:1040A0009E49088000BF00BF4FF400709B49088004
:1040B00000BF00BF00BF00BF4FF400709749891ECA
:1040C000088000BF00BF4FF480709449891E0880AB
:1040D00000BF00BF4FF400709049088000BF00BFD0
:1040E0004FF480708D49088000BF00BF70470020EA
:1040F000802100BF4FF40072884B9B1E1A8000BFC6
:10410000864A0A3A128802F4807202B1084300BF5C
:104110004FF40072814B1A80491000BF0029E9D189
:104120007047014608460722491007E04306180E6B
:1041300001F001031843531EDAB249100029F5D1EA
:1041400000FA02F3D8B2704702464A4000230BE05F
:1041500002F0800020B1312080EA4200C2B201E0CA
:104160005006020E581CC3B2082BF1DBD0B27047C8
:104170002DE9F84304460D4644F62066FFF769FF33
:10418000FFF77FFF2046FFF747FFFFF72EFF10B135
:104190000120BDE8F8834FF400706049088000BF3B
:1041A00000BF00BF00BF00BF761E0EB90120F0E7C0
:1041B0005A480A38008800F480700028F4D1FFF7CC
:1041C00096FF8DF80000FFF7F7FEFFF790FF8DF8E0
:1041D0000100FFF7F1FEFFF78AFF8046FFF705FFBA
:1041E00021460020FFF7B0FF07469DF80010384633
:1041F000FFF7AAFF07469DF801103846FFF7A4FF16
:1042000007464046FFF78DFFB84201D00120C0E7C6
:104210009DF801109DF8002041EA022003F0BEF94C
:1042200028600020B5E72DE9F04F85B004460D4623
:104230002868049020680390039803F0EFF907467C
:10424000374A384B03F038F9374A384BCDE900018B
:1042500003F02CF9824603F025FA8146344804998C
:1042600003F051F882463348049903F04CF8834632
:10427000049903F048F88046514602F0ECFF0746E7
:104280002D4902F0E8FF02902C48049903F03BF816
:1042900083462B4902F0DFFF80462A49484603F057
:1042A0002CF88246414603F02EF80746029902F0A8
:1042B000D2FF06462449304603F01AFA00D2224EB5
:1042C000304603F0ABF90746174A204B03F0BAF922
:1042D00000D21F4E2E60C4F8009005B0BDE8F08FEC
:1042E0007CB504460D46002669460320FFF740FFD3
:1042F000064301A90520FFF73BFF064326B1002036
:104300002060286001207CBD01A96846FFF78BFF73
:1043100000982060019828600020F4E71A08024005
:104320007B14AE47E17A843F9A99999999D9434091
:10433000BD52163DF624D6B5C5FE02C0ACC5A73A9F
:104340000AD7233C0000C8410000C6429999B93FF2
:10435000CDCCCC3D65E000BF00BF00BF00BF00BFBB
:1043600000BF00BF00BF00BF00BF00BF00BF00BF55
:1043700000BF00BF00BF00BF00BF00BF00BF00BF45
:1043800000BF00BF00BF00BF00BF00BF00BF00BF35
:1043900000BF00BF00BF00BF00BF00BF00BF00BF25
:1043A00000BF00BF00BF00BF00BF00BF00BF00BF15
:1043B00000BF00BF00BF00BF00BF00BF00BF00BF05
:1043C00000BF00BF00BF00BF00BF00BF00BF00BFF5
:1043D00000BF00BF00BF00BF00BF00BF00BF00BFE5
:1043E00000BF00BF00BF00BF00BF00BF00BF00BFD5
:1043F00000BF00BF00BF00BF00BF00BF00BF00BFC5
:1044000000BF00BF00BF00BF00BF00BF00BF00BFB4
:1044100000BF00BF00BF00BF00BF00BF00BF00BFA4
:1044200000BF011EA0F1010095D170472DE9F04FAA
:1044300087B005460E464FF000084FF007094CF2D2
:104440005037002404E0002004A90855601CC4B2C1
:10445000052CF8DB4FF4807077490880B420FFF713
:1044600079FF012000F0E4F84FF480707249891E52
:10447000088000BF00BF00BF00BF00BF00BF00BF7B
:1044800000BF00BF00BF00BF00BF00BF00BF00BF34
:1044900000BF00BF00BF00BF00BF00BF00BF00BF24
:1044A00000BF00BF00BF00BF00BF00BF00BF00BF14
:1044B00000BF00BF00BF00BF00BF00BF00BF00BF04
:1044C00000BF00BF00BF0AE0381EA7F101018FB294
:1044D00005D100F0ADF8012007B0BDE8F08F5648D7
:1044E0000A380088C0F300200028EDD008E0381E0C
:1044F000A7F101018FB203D100F09AF80120EBE798
:104500004D480A380088C0F300200028EFD100246D
:1045100046E008E0381EA7F101018FB203D100F098
:1045200087F80120D8E744480A380088C0F3002003
:104530000028EFD04FF0E020D0F818A008E0381E97
:10454000A7F101018FB203D100F072F80120C3E797
:1045500039480A380088C0F300200028EFD14FF016
:10456000E0208069AAEB0000052809D304A810F810
:104570000800012101FA09F1084304A901F8080023
:10458000B9F1000F06D14FF0070908F1010000F062
:10459000FF0803E0A9F1010000F0FF09601CC4B2AC
:1045A000282CB6DB002000F043F89DF810009DF8A1
:1045B000111008449DF8121008449DF81310084487
:1045C0009DF81410884201D0022085E79DF8120062
:1045D00002F0EDFF28609DF8130002F0FEFF174A7D
:1045E000174BCDE9000102F067FFCDE9020103F0AE
:1045F00059F88346296802F02EFE28609DF81000C5
:1046000002F0D5FF30609DF8110002F0E6FF0B4A82
:104610000B4BCDE9000102F04FFFCDE9020103F0A1
:1046200041F88346316802F016FE3060002053E7FF
:1046300080F31088704700001A0802409A999999EF
:104640009999B93F32490143324A1160704770B5B8
:10465000002100230F22C4781CB32E4C246804F4DC
:10466000E064C4F5E064C4F30721C1F10404E3B2DB
:104670000A4144789C40E1B28478144021430C07FD
:10468000210E254C05786155047804F01F0501249E
:10469000AC4005786D11AD0005F1E025C5F800418D
:1046A00009E0047804F01F050124AC401B4D067896
:1046B000761145F8264070BD194A0A400243154B51
:1046C0001B1F1A60704739B1124A121D126802434B
:1046D000104B1B1D1A6006E00E4A121D1268824321
:1046E0000C4B1B1D1A607047042808D14FF0E021C5
:1046F000096941F004014FF0E022116107E04FF039
:10470000E021096921F004014FF0E02211617047B6
:104710000000FA050CED00E000E400E080E100E0BC
:1047200080FFFF1F002044490860091D0860091D23
:104730000860091D08606FF07F403F491431086030
:10474000704700213C498279002A3AD00A46126813
:1047500003689A430B461A600A1D126803689A435D
:104760000B1D1A60027911440A6803681A430A6033
:10477000314A0832126803689A432F4B08331A6093
:104780001A1D126803689A432B4B0C331A60427946
:10479000102A0ED11A1F126803681A43264B0833D9
:1047A0001A601A1D126803681A43234B0C331A60EF
:1047B0000DE02149427911440A6803681A430A60EE
:1047C00005E0027911440A6803689A430A60704759
:1047D0000021016001710C2141710021817170473C
:1047E0001549103109680143134A103211607047AE
:1047F00001460020104A143212680A400AB1012012
:1048000000E0002070470C491431086070470146F1
:1048100000200022084B1B6803EA0102064B1433F8
:104820001B680B4013B10AB1012000E00020704763
:1048300001491431086070470004014010B5044676
:104840008548844208D10121084600F068FB002118
:10485000012000F064FB52E08048844208D101212D
:10486000022000F05CFB0021022000F058FB46E033
:104870007B48844208D10121042000F050FB002134
:10488000042000F04CFB3AE07648844208D1012134
:10489000082000F044FB0021082000F040FB2EE03F
:1048A0007148844208D10121102000F038FB00211A
:1048B000102000F034FB22E06C48844208D1012132
:1048C000402000F02CFB0021402000F028FB16E0E7
:1048D0006748844208D10121802000F020FB00219C
:1048E000802000F01CFB0AE06248844207D10121CD
:1048F000202000F014FB0021202000F010FB10BD50
:10490000F0B50A4600210023002400BF3DE0012548
:1049100005FA01F3156805EA03049C4234D10568E1
:104920004F000326BE40B543056015794E00B540E3
:104930000668354305601579012D02D01579022DE1
:1049400016D185684F000326BE40B5438560557972
:104950004E00B540866835438560858801268E40C7
:10496000B5438580858896798E40B6B2354385807B
:10497000C5684F000326BE40B543C560D5794E00DB
:10498000B540C6683543C560491C1029BFD3F0BD8A
:104990004FF6FF7101600021017141718171C17198
:1049A000704708B54FF480320092009A0A43009293
:1049B000009AC261C161009AC261C2690092C26973
:1049C000009208BD02460020138A0B400BB1012063
:1049D00000E0002070470146088A70470246002028
:1049E000938A0B400BB1012000E000207047014684
:1049F000888A704701837047418370470AB10183F9
:104A000000E04183704781827047828A4A408282F7
:104A10007047F0B5002300244D07ED0E02FA05F3B0
:104A2000CE1000F1200555F826504E07F70E0F2640
:104A3000BE40B543CF1000F1200646F82750CE10F7
:104A400000F1200555F8265045EA0304CE1000F188
:104A5000200545F82640F0BD000002400004024059
:104A600000080240000C0240001002400018024002
:104A7000001C02400014024010B50121080700F09C
:104A800070FA00214FF0805000F06BFA10BD4D49D4
:104A900008627047014600204B4A106820F0E00091
:104AA00008431060704747490861704708B5002205
:104AB0000092444AA03202440092009A116008BD5C
:104AC0004049886270473F4948627047014600206C
:104AD0003D4A106820F4C050084320F00C023A4BC5
:104AE0001A60704758B13849096841F00101364AE7
:104AF00011601146096841F4804111600AE03249B1
:104B0000096821F48041304A11601146096821F09A
:104B100001011160704710B5024600202A4B186849
:104B200020F0030010431860284B1B6823F0040397
:104B3000264C2360012901D130BF00E020BF10BD09
:104B400010B502460020204B186820F003001043E7
:104B500018601E4B1B6843F004031C4C23600129A2
:104B600001D130BF00E020BF184B1B6823F00403C5
:104B7000164C236010BD1448006840F00400124930
:104B800008600846006840F0020008600F480068AE
:104B900040F004000D49086000BF00BF30BF7047FF
:104BA00001460020084A52680A400AB1012000E08C
:104BB000002070470449096841EA8001024A1160F7
:104BC0007047000000000E420070004010ED00E051
:104BD000F948006840F48070F7490860F6480830EA
:104BE0000068F6490840F44908310860F248006856
:104BF000F3490840F04908600846006820F4802026
:104C00000860ED480830006820F47D00EA4908316A
:104C100008600020091D086070470021E64A921CC8
:104C2000117011460870704710B50146002200232C
:104C300000204A11012A02D1DF4C236802E0DE4C39
:104C40003434236801F01F02012494401C400CB14D
:104C5000012000E0002010BD38B5002000900024A5
:104C6000002500BF3120FFF7DFFF05460098401CFC
:104C700000900098B0F5A06F01D0002DF2D0312047
:104C8000FFF7D2FF08B1012400E00024204638BD20
:104C9000C949C91D0870704701460020C64A121D47
:104CA000106820F46040084310607047C5490862EE
:104CB000704701460020C04A121D106820F4F850C9
:104CC00040EA012010607047BE490860704700212B
:104CD000B94A35321170114608707047BA490860F8
:104CE000704710B541EA02030343B34C0A34237002
:104CF00010BDB44908667047B24908677047B249A9
:104D00002C310860704740EA0102AB4B0B331A703C
:104D1000704701460020A84A0832106820F00300BE
:104D2000084310607047A4480830006800F00C0089
:104D3000704701460020A04A0832106820F0F000B9
:104D4000084310607047014600209B4A08321068F3
:104D500020F4E06008431060704701460020964A46
:104D60000832106820F4605040EAC10010607047BB
:104D7000F0B50021002200230026002400258E4FDC
:104D800008373F6807F00C0131B1042912D0082917
:104D900013D00C2937D113E0874F3F1D3F68C7F36D
:104DA00042356F1C4FF0010C0CFA07FC4FEACC3770
:104DB000076036E0854F076033E0854F076030E0DD
:104DC0007D4F08373F6807F470127B4F08373F6804
:104DD00007F440037F4F07EB92473A78012707EB30
:104DE0009353754F08373F6807F480362EB9774FD5
:104DF0005743B7FBF3F7076004E0754F5743B7FB22
:104E0000F3F707600DE06C4F3F1D3F68C7F3423575
:104E10006F1C4FF0010C0CFA07FC4FEACC3707600F
:104E200000BF00BF644F08373F6807F0F001090971
:104E3000694F7C5C0768E74047605F4F08373F6811
:104E400007F4E061090A644F7C5C4768E7408760CB
:104E5000594F08373F6807F46051C90A5E4F7C5CC0
:104E60004768E740C760F0BD002100F44032B2F56A
:104E7000403F08D1504A116821F0C04100F0C042C3
:104E800011434D4A11604C4A3432126822F44032C8
:104E9000494B34331A601A46126800F440331A43FF
:104EA000454B34331A6070474749583108607047A2
:104EB00045495C310860704739B13F4A1C3212687D
:104EC00002433D4B1C331A6006E03B4A1C32126819
:104ED0008243394B1C331A60704739B1364A20324D
:104EE00012680243344B20331A6006E0324A203203
:104EF00012688243304B20331A60704739B12E4A12
:104F00002432126802432C4B24331A6006E02A4AEA
:104F1000243212688243284B24331A60704739B117
:104F2000254A103212680243234B10331A6006E000
:104F3000214A1032126882431F4B10331A607047A7
:104F400039B11D4A1432126802431B4B14331A60E4
:104F500006E0194A143212688243174B14331A6060
:104F6000704739B1144A183212680243124B183391
:104F70001A6006E0104A1832126882430E4B18334A
:104F80001A60704739B10C4A2832126802430A4B42
:104F900028331A6006E0084A283212688243064B1A
:104FA00028331A607047C9B1034A2C321268024391
:104FB000014B2C331A6016E0003802400CC0FF8809
:104FC000FEFFFEEE00004742800647420024F40048
:104FD00000127A00BC000020C50000201F4A1268A1
:104FE00082431E4B1A60704739B11C4A121D126869
:104FF00002431A4B1B1D1A6006E0184A121D126864
:105000008243164B1B1D1A60704739B1134A1F3A71
:1050100012780243114B1F3B1A7006E00F4A1F3AE9
:10502000127882430D4B1F3B1A7070470B480830B3
:10503000006840F0807009490831086070470146F7
:105040000020064A203A12680A400AB1012000E016
:105050000020704701491E39087070472C38024003
:1050600008B50022009200200021CA22F94B1A60E4
:1050700053221A60F74A183A126822F0A002F54B40
:10508000183B1A6000BFF34A183A126802F0200178
:10509000009A521C0092009AB2F5004F01D00029EC
:1050A000F1D0EC4A183A126802F020020AB101204D
:1050B00000E00020FF22E74B1A6008BD08B500227F
:1050C000009200200021E34A183A126802F04002E0
:1050D000E2B9421EDF4B183B1A6000BFDD4A183AA6
:1050E000126802F04001009A521C0092009AB2F538
:1050F000005F01D00029F1D0D64A183A126802F0B8
:1051000040020AB1012002E0002000E0012008BDB9
:1051100038B50020009000240025CA20CD49086041
:1051200053200860FFF7CAFF00B952E00020C949C8
:105130002439086042F20110091D0860081D00684A
:1051400000F00700091D086000BFC2481838006859
:1051500000F004040098401C00900098B0F5005F37
:1051600001D0002CF1D0BB481838006800F00400D2
:1051700008B900252DE0B7481C3800680020B54963
:105180001C3908604FF6FF70B24910390860B24808
:10519000091F08600020AF490C390860091D08602C
:1051A000091D0860AB4908310860AA491831086038
:1051B000A84920310860091D0860A649183908600F
:1051C000A4491C310860FFF74BFF08B9002500E037
:1051D0000125FF209F490860284638BD9D481838A2
:1051E000006820F080009B4918390860704730B58E
:1051F00004460025CA209749086053200860FFF73D
:105200005DFF00B91DE093481C38006820F04000A5
:1052100090491C39086008460068216808438D4998
:105220001C3908608B491439A0680860084600687A
:10523000A18840EA0140874914390860FFF7CEFF92
:105240000125FF2083490860284630BD0021016008
:105250007F214160FF218160704718B1FF217D4AA5
:10526000116004E0CA217B4A11605321116070472C
:1052700030B504460025CA207649086053200860EE
:10528000FFF71CFF00B914E044B172481C380068F5
:1052900040F010006F491C39086007E06D481C3869
:1052A000006820F010006B491C390860FFF796FF7A
:1052B0000125FF2067490860284630BDCA21654A9C
:1052C00011605321116040B162491C39096841F0F5
:1052D0002001604A1C3A116007E05E491C390968E8
:1052E00001F0DF015B4A1C3A1160FF21594A11604D
:1052F00070470146002204E0501CC2B2A1F10A002E
:10530000C1B20A29F8DA100741EA10607047014675
:1053100000BF080900EB8000420001F00F001044BC
:10532000C0B270472DE9F04105460C460026002723
:1053300055B948481C38006800F0400000B102E050
:105340000020E07000BF0EE042481C38006800F00A
:10535000400020B12078FFF7DAFF064602E0002087
:10536000E07000BF00BF55B120780004617840EACA
:105370000120A1780843E17840EA014611E0207855
:10538000FFF7B7FF4FEA00486078FFF7B2FF48EA3F
:105390000028A078FFF7ADFF48EA0008E07848EA67
:1053A0000046CA202B49086053200860FFF786FE9C
:1053B00008B9002714E029483040264924390860FC
:1053C000FFF70CFF23481C38006800F0200030B9BC
:1053D000FFF746FE08B9002702E0012700E0012799
:1053E000FF201C4908603846BDE8F0810021C170EB
:1053F000017041708170704770B506460C460025FB
:10540000144824380068154900EA0105C5F3054031
:105410002070C5F30620607005F07F00A07005F4D1
:105420008000000CE0705EB92078FFF770FF2070FC
:105430006078FFF76CFF6070A078FFF768FFA070DE
:1054400070BD00200349091D086802492039096818
:105450007047000024280040FF007F007F7F7F000E
:105460002DE9F04105460C46002600274DB960782D
:1054700000F01000102804D1607820F010000A30ED
:10548000607005B908E06078FFF741FF0646A07834
:10549000FFF73DFF064600BF55B1E0780004617894
:1054A00040EA0120A1780843217840EA413611E022
:1054B000E078FFF71EFF4FEA00486078FFF719FF1A
:1054C00048EA0028A078FFF714FF48EA000820788F
:1054D00048EA4036CA20FE49086053200860FFF7BA
:1054E000EDFD08B9002714E0FA483040F8492039AA
:1054F0000860FFF773FEF6481C38006800F02000D3
:1055000030B9FFF7ADFD08B9002702E0012700E040
:105510000127FF20EE4908603846BDE8F0810121EF
:105520000170817041700021C170704770B50646EE
:105530000C460025E64820380068E64900EA0105E7
:10554000280CE070C5F30420607005F03F00A070E7
:10555000C5F3423020705EB9E078FFF7D8FEE07006
:105560006078FFF7D4FE6070A078FFF7D0FEA070DF
:1055700070BD2DE9F04105460E46144600276DB971
:10558000D3481C38006800F0400000B102E0002061
:10559000E07000BFA06800B91AE019E0CC481C38E0
:1055A000006800F0400020B12078FFF7B0FE074609
:1055B00002E00020E07000BFA06820B9207BFFF768
:1055C000A6FE074604E0207BFFF7A1FE074600BFCA
:1055D00095B120780004617840EA0120A178084361
:1055E000E17840EA0140217B40EA0160A16808437C
:1055F000616840EA01071BE02078FFF77AFE4FEA76
:1056000000486078FFF775FE48EA0028A078FFF7A9
:1056100070FE48EA0008E07848EA0048207BFFF77F
:1056200068FE48EA0060A1680843616840EA010733
:10563000CA20A749086053200860B6F5807F03D1CF
:10564000A3480838076002E0A148001F0760FF2058
:105650009F490860BDE8F0810021C1700170417070
:1056600081708160012101730021416070472DE943
:10567000F04106460F4614460025B7F5807F03D15A
:1056800093480838056802E09148001F0568C5F393
:1056900005402070C5F30620607005F07F00A07003
:1056A00005F48000000CE070C5F30560207305F080
:1056B0008040A06005F0803060607EB92078FFF700
:1056C00026FE20706078FFF722FE6070A078FFF75A
:1056D0001EFEA070207BFFF71AFE2073BDE8F0814C
:1056E00038B502460024009400230020CA24784DD7
:1056F0002C6053242C6041B1754C1C3C246814432D
:10570000734D1C3D2C6001201EE0714C1C3C246834
:1057100094436F4D1C3D2C6000BF6D4C183C2468B9
:1057200004EA1223009C641C0094009CB4F5005F02
:1057300001D0002BF1D0664C183C246804EA1224F6
:105740000CB9002000E00120FF24614D2C6038BD21
:1057500030B50023CA245E4D2C6053242C6041EAEE
:105760000203B0F5807F03D1594C2034236002E05E
:10577000574C24342360FF24554D2C6030BD014626
:105780000020B1F5807F05D1514A20321268C2F362
:105790000E0004E04E4A24321268C2F30E00704735
:1057A000CA214B4A11605321116049491C390968CB
:1057B00021F00701464A1C3A11601146096801436D
:1057C0001160FF21424A11607047CA21404A1160AE
:1057D000532111603E4910390860FF211160704764
:1057E0003B481038006880B2704718B50146002366
:1057F000009300220020CA23354C236053232360EA
:1058000049B1334B1C3B1B6843F48063304C1C3C58
:10581000236001201FE02E4B1C3B1B6823F4806398
:105820002B4C1C3C236000BF294B183B1B6803F02A
:105830000402009B5B1C0093009BB3F5005F01D04A
:10584000002AF1D0224B183B1B6803F004030BB96C
:10585000002000E00120FF231D4C236018BDCA2258
:105860001B4B1A6053221A60194A1C3A126822F420
:105870008022174B1C3B1A601A46126840EA01034B
:105880001A43134B1C3B1A60FF22114B1A607047DE
:105890000F481C38006800F480207047CA220C4B67
:1058A0001A6053221A600A4A1C3A126822F4E00273
:1058B000074B1C3B1A601A46126840EA01031A4360
:1058C000034B1C3B1A60FF22014B1A60704700001B
:1058D000242800403FFFFF0070B504460D46002617
:1058E000CA20FE49086053200860FFF7E7FB00B9B3
:1058F00007E044EA0500F9490C390860FFF76EFC3F
:105900000126FF20F5490860304670BD30B50446D9
:105910000025CA20F149086053200860FFF7CEFB3C
:1059200000B914E044B1ED481C38006840F0800034
:10593000EA491C39086007E0E8481C38006820F094
:105940008000E6491C390860FFF748FC0125FF206C
:10595000E2490860284630BDCA21E04A116053215F
:10596000116040B1DD491C39096841F40001DB4A8E
:105970001C3A116007E0D9491C39096821F400017B
:10598000D64A1C3A1160FF21D44A11607047CA21DF
:10599000D24A116053211160D0491C39096821F4A1
:1059A0000021CE4A1C3A116011460968014311607A
:1059B000FF21CA4A1160704770B5034600200024D9
:1059C000CA25C64E356053253560C44D183D2D6837
:1059D00005F4803555B100E0641CC04D183D2D68BC
:1059E00005F4803515B1B4F5805FF5D1BB4D183D98
:1059F0002D6805F480353DB943EA01051543B74EDE
:105A000018363560012000E00020FF25B34E3560D8
:105A100070BD10B50A460021B04B1C3B1B6840F618
:105A2000080423EA04011AB140F40063194300E0BA
:105A30000143CA23A94C236053232360A74B1C3B7B
:105A40001960FF23236010BD2DE9F04180460C460C
:105A5000154600260027A1480C300068A04900EA3E
:105A600001069E48103000689E4900EA0107C6F30F
:105A700005402070C6F30620607006F07F00A0701D
:105A800006F48000000CE0700020E870C7F30420EA
:105A9000687007F03F00A870C7F342302870B8F173
:105AA000000F17D12078FFF732FC20706078FFF7E5
:105AB0002EFC6070A078FFF72AFCA0706878FFF7D2
:105AC00026FC6870A878FFF722FCA8702878FFF7FA
:105AD0001EFC2870BDE8F0818048143000687047D3
