:020000040800F2
:10000000F0750020F1010008F9010008DD01000889
:10001000451B0008890A00080926000800000000A6
:10002000000000000000000000000000390100088E
:10003000F10D0008000000007D0100086D2300089C
:100040000B0200080B0200080B020008BD1D00088F
:100050000B0200080B020008350E00080B02000816
:10006000510E00080B0200080B0200080B020008EA
:100070000B0200080B0200080B0200080B0200082C
:100080000B0200080B0200080B0200080B0200081C
:100090000B0200080B0200080B0200086D0E00089E
:1000A0000B0200080B0200080B0200080B020008FC
:1000B0000B0200080B0200080B0200080B020008EC
:1000C0000B0200080B0200080B0200080B020008DC
:1000D0000B0200080B0200080B0200080B020008CC
:1000E0000B0200080B0200080B0200080B020008BC
:1000F0000B0200080B020008F52300080B020008A1
:100100000B0200080B0200080B0200080B0200089B
:100110000B0200080B0200080B0200080B0200088B
:100120000B020008DFF80CD000F076FC0048004716
:100130007D2F0008F0750020204B19680868B0E892
:10014000F00F80F30988BFF36F8F4FF0000080F34A
:1001500011884EF00D0E7047000000000648006840
:10016000006880F3088862B661B6BFF34F8FBFF3B3
:100170006F8F00DF00BF00BF08ED00E0EFF30980E4
:10018000BFF36F8F0D4B1A6820E9F00F106008B5B0
:100190004FF0500080F3118803F082FE4FF0000012
:1001A00080F31188BDE8084019680868B0E8F00FCE
:1001B00080F30988BFF36F8F704700BF20000020D5
:1001C000EFF311804FF0500181F31188704780F3F5
:1001D00011887047EFF30580704700001EF0040F90
:1001E0000CBFEFF30880EFF3098001F0C3B9000002
:1001F0000648804706480047FEE7FEE7FEE7FEE7C1
:10020000FEE7FEE7FEE7FEE7FEE7FEE78D230008D8
:100210002501000840EA01039B0703D009E008C953
:10022000121F08C0042AFAD203E011F8013B00F8BB
:10023000013B521EF9D27047D2B201E000F8012B07
:10024000491EFBD270470022F6E710B513460A4656
:1002500004461946FFF7F0FF204610BD30B50446AE
:100260000020034600E05B1C934203D2E05CCD5CBF
:10027000401BF8D030BDF0B480EA0102D40F420038
:10028000B2EB410F02D20246084611464A0042D064
:10029000C30DDDB2C1F3C752AD1A202D35DAC1F35B
:1002A000160141F4000204B15242C5F1200602FADF
:1002B00006F12A411044B3EBD05F23D0C4B1012D25
:1002C000A0EBC35009DCF0BC4FF0004202EAC3527D
:1002D000DBB200F5000000F08CBA400000F1807045
:1002E00000EBC350A0F1807040EAD170490009E0F2
:1002F000490841EAC071A0EBC35000F50000400876
:1003000000EBC350F0BC00F06BBA6142012202EB7B
:100310004101001BF6E7F0BC704781F00041AAE7FD
:1003200080F00040A7E780EA010210B502F0004328
:10033000400022D04A001FD0010E01EB1261C0F331
:100340005600C2F3560240F4000042F40002A0FB43
:10035000022000047F39140400D0401C50EA1240EF
:1003600001D44000491EC2B20C0604EBD010401C60
:100370004008802A02D003E0002010BD20F00100D8
:10038000002900DA0020184310BD2DE9FE4F8046F9
:1003900081EA0300C00F0C46009021F0004123F0D9
:1003A0000045B8EB0200A94105D2404621469046DF
:1003B0001C460B46024623F00040104347D0270D51
:1003C000C7F30A00C3F30A510290401A0190402873
:1003D0006BDAC3F3130040F4801B0098924620B1FF
:1003E0000023D2EB030A63EB0B0B01985946C0F1D3
:1003F0004002504600F0D3F906460D465046594695
:10040000019A00F0DBF910EB08006141002487EA53
:10041000115284EAE7731A4340D0009A62B3019AFA
:10042000012A4FEA075215DC001B61EB02014FF075
:10043000004202EA0752CDE90042001C41F580115A
:1004400032462B4600F012FA03B0BDE8F08F40466A
:100450002146F9E7001B61EB0201001C41F5801306
:1004600000185B412018A2F5001747EB030140EA92
:10047000D570B6196D4111E06D084FEA360645EAB0
:10048000C0754FEA0752001B61EB0201001C41F5E9
:10049000801149084FEA30000019514132462B467D
:1004A00003B0BDE8F04F00F0D2B90098012240003F
:1004B0000023D0EB020263EBE073009821464FEA81
:1004C000E074B8EB000061EB0401E9E783F000435E
:1004D0005BE781F0004158E72DE9FE4F81EA030414
:1004E00004F0004421F0004100944FF0000B23F091
:1004F000004350EA01045ED052EA03045BD0C3F328
:100500000A54C1F30A552C44A4F2F3340194A0FB1D
:100510000254C1F3130141F48011C3F3130343F4F4
:10052000801301FB024400FB034E840A970A44EA4D
:10053000815447EA8357A4FB076802958D0A05FB9F
:1005400007854FEA932C04FB0C542705029D4FEAC4
:10055000065847EA1637B5EB08056EEB070C870E11
:10056000920E47EA811742EA8312A7FB0201B6EB1B
:100570000B0164EB00042B0D43EA0C335E1844EBD3
:100580001C50DA465146E7FB0201C5F313044FEA5B
:100590000B3343EA14534FEA0432019C43EA060347
:1005A000A4F10C040294009CCDE900B400F05EF9C3
:1005B00003B0BDE8F08F00200146F9E79623002242
:1005C000114600F016B90EB5C10F80EAE07008447C
:1005D000CA07002140F233438DE80E000A460B465D
:1005E00000F044F903B000BD0EB540F23341029172
:1005F0000021CDE900110A460B4600F037F903B09F
:1006000000BD20F00040C10DC0F3160040F4000012
:100610007F2901DA00207047962903DCC1F1960199
:10062000C840704796398840704700F0004230F06B
:1006300000400AD0C10D01F56071C0F3160042EA16
:100640000151C2084007114370470020014670471E
:1006500030B5041E71F1000404DB4FF00044404249
:1006600064EB0101141E73F1000405DB1C464FF01E
:100670000043524263EB04038B4208BF824230BD09
:1006800030B5041E71F1000404DB4FF00044404219
:1006900064EB0101141E73F1000405DB1C464FF0EE
:1006A0000043524263EB0403994208BF904230BDBD
:1006B00001F0004330B421F0004150EA010206D0BD
:1006C0000A0DA2F56072C1F31301002A02DC30BCEE
:1006D00000207047440F44EAC104C100E01830BC58
:1006E00000EBC25000F07CB8002801DBC0F10040F4
:1006F000002901DBC1F1004181427047002801DB84
:10070000C0F10040002901DBC1F10041884270477F
:1007100030B50B46014600202022012409E021FAD1
:1007200002F59D4205D303FA02F5491B04FA02F5CE
:100730002844151EA2F10102F1DC30BD2DE9F05F65
:100740000546002092469B46884606468146402440
:100750001BE0284641464746224600F06FF95346C3
:100760005A46C01A914110D311461846224600F04D
:1007700016F82D1A67EB01084F462246012000218A
:1007800000F00DF817EB00094E41201EA4F1010402
:10079000DFDC484631462A464346BDE8F09F202A22
:1007A00004DB203A00FA02F1002070479140C2F1C8
:1007B000200320FA03F3194390407047202A06DBF8
:1007C000CB17203A41FA02F043EAE07306E041FA1F
:1007D00002F3D040C2F1200291400843194670470D
:1007E0000029A8BF7047401C490008BF20F0010045
:1007F000704710B4B0FA80FC00FA0CF050EA010423
:1008000004BF10BC704749B1CCF1200421FA04F4B4
:1008100011FA0CF118BF012121430843A3EB0C018D
:10082000CB1D4FEA00614FEA102042BF002010BCF0
:10083000704700EBC35010440029A4BF10BC7047A0
:10084000401C490008BF20F0010010BC704710B5E3
:10085000141E73F1000408DA401C41F100019218E3
:100860005B411A4301D120F0010010BD2DE9F04D8C
:1008700092469B4611B1B1FA81F202E0B0FA80F2E1
:1008800020329046FFF78BFF04460F4640EA0A00ED
:1008900041EA0B0153465A46084313D0114653EA26
:1008A000010019D0C8F14002504600F0C7F80546D3
:1008B0000E46504659464246FFF771FF084305D0A1
:1008C000012004E020463946BDE8F08D00200543B4
:1008D00046EAE0762C4337430A986305E40AA0EB26
:1008E00008000022FD0A44EA47540A3002D50020DD
:1008F0000146E9E7010510196941DDE908450019DC
:100900006941BDE8F04DA2E72DE9F04D81EA03040D
:1009100004F0004B21F0004514464FF0000A23F08C
:10092000004150EA050220D054EA01021DD0C5F36F
:100930000A570246C5F31303C1F31300C1F30A5665
:1009400040F4801543F48013A7EB0608101BD6462D
:1009500008F2FD3873EB050002D308F1010801E04D
:1009600092185B41B8F1000F03DA00200146BDE8A0
:10097000F08D00204FF48011064684460EE0171BD0
:1009800073EB050705D3121B63EB050306434CEA23
:10099000010C49084FEA300092185B4150EA010708
:1009A000EDD152EA030012D082EA040083EA050185
:1009B000084305D0101BAB4106D20122002306E0FC
:1009C00000224FF0004302E06FF0010253101AEBD7
:1009D00006004CEB085110EB0A0041EB0B01BDE89F
:1009E000F04DFFF734BFC1F30A52C1F3130140F2D7
:1009F000FF3341F480119A4202DA00200146704729
:100A000040F233439A42A2F2334202DC524200F0F7
:100A100015B8FFF7C4BE0000064C074D06E0E068BD
:100A200040F0010394E8070098471034AC42F6D335
:100A3000FFF77CFB5C5900087C590008202A04DB86
:100A4000203A21FA02F00021704721FA02F3D04047
:100A5000C2F12002914008431946704738B5012081
:100A60000749088004F012FA04464FF0FF300023D3
:100A70002246012100900348006804F0D5FB38BDF0
:100A80001A040240B000002000BFFEE703480068DF
:100A900040F001000149086070470000043C02403A
:100AA00070B504460D460426700300F06DFA064644
:100AB000042E04D12570400300F066FA0646304645
:100AC00070BD00000548006800F0010028B104482E
:100AD000024908310860034808607047043C02403E
:100AE000EFCDAB890504030229B1064A52680243DF
:100AF000044B5A6004E0034A52688243014B5A6037
:100B000070470000002004E02DE9F04F87B0054653
:100B10000E464FF000084FF007094CF25037002402
:100B200004E0002004A90855601CC4B2052CF8DBC1
:100B30004FF4807075490880B42000F0EDF8012072
:100B400001F0BBFD4FF480707049891E088000BF22
:100B500000BF00BF00BF00BF00BF00BF00BF00BF9D
:100B600000BF00BF00BF00BF00BF00BF00BF00BF8D
:100B700000BF00BF00BF00BF00BF00BF00BF00BF7D
:100B800000BF00BF00BF00BF00BF00BF00BF00BF6D
:100B900000BF00BF00BF00BF00BF00BF00BF00BF5D
:100BA00000BF0AE0381EA7F101018FB205D101F0A4
:100BB00084FD012007B0BDE8F08F54480A38008852
:100BC000C0F300200028EDD008E0381EA7F1010195
:100BD0008FB203D101F071FD0120EBE74B480A38D9
:100BE0000088C0F300200028EFD1002446E008E090
:100BF000381EA7F101018FB203D101F05EFD012083
:100C0000D8E742480A380088C0F300200028EFD017
:100C10004FF0E020D0F818A008E0381EA7F101013D
:100C20008FB203D101F049FD0120C3E737480A38EC
:100C30000088C0F300200028EFD14FF0E020806949
:100C4000AAEB0000052809D304A810F80800012128
:100C500001FA09F1084304A901F80800B9F1000FED
:100C600006D14FF0070908F1010000F0FF0803E08A
:100C7000A9F1010000F0FF09601CC4B2282CB6DB0A
:100C8000002001F01AFD9DF810009DF81110084495
:100C90009DF8121008449DF8131008449DF8141094
:100CA000884201D0022085E79DF81200FFF786FCFC
:100CB00028609DF81300FFF797FC154A154BCDE906
:100CC0000001FFF709FCCDE90201FFF7F1FC8346C3
:100CD0002968FFF7D0FA28609DF81000FFF76EFC36
:100CE00030609DF81100FFF77FFC094A094BCDE900
:100CF0000001FFF7F1FBCDE90201FFF7D9FC8346C4
:100D00003168FFF7B8FA3060002053E71A08024054
:100D10009A9999999999B93F65E000BF00BF00BFC2
:100D200000BF00BF00BF00BF00BF00BF00BF00BFCB
:100D300000BF00BF00BF00BF00BF00BF00BF00BFBB
:100D400000BF00BF00BF00BF00BF00BF00BF00BFAB
:100D500000BF00BF00BF00BF00BF00BF00BF00BF9B
:100D600000BF00BF00BF00BF00BF00BF00BF00BF8B
:100D700000BF00BF00BF00BF00BF00BF00BF00BF7B
:100D800000BF00BF00BF00BF00BF00BF00BF00BF6B
:100D900000BF00BF00BF00BF00BF00BF00BF00BF5B
:100DA00000BF00BF00BF00BF00BF00BF00BF00BF4B
:100DB00000BF00BF00BF00BF00BF00BF00BF00BF3B
:100DC00000BF00BF00BF00BF00BF00BF00BF00BF2B
:100DD00000BF00BF00BF00BF00BF00BF00BF00BF1B
:100DE00000BF00BF00BF011EA0F1010095D17047F8
:100DF00000BFFEE770B50546002614E000240DE0B4
:100E00002A78303A094B53F82220115D084A52F8EB
:100E10002620105D00F0E2FB601CC4B2072CEFDB63
:100E20006D1C701CC6B2062EE8DB70BD5C5300085A
:100E3000F452000810B5012000F036F800231A46DD
:100E400019460248006803F024FF10BDA0000020EE
:100E500010B5042000F028F800231A46194602486D
:100E6000006803F016FF10BD9C00002010B5802024
:100E700000F01AF809480078094908600748007826
:100E800020B101210648243801F0F3FA0348007824
:100E9000632802D101200349088010BD9200002080
:100EA000240C004018080240014908607047000007
:100EB00014040140002123498279002A3AD00A46CD
:100EC000126803689A430B461A600A1D1268036889
:100ED0009A430B1D1A60027911440A6803681A4389
:100EE0000A60184A0832126803689A43154B08339F
:100EF0001A601A1D126803689A43124B0C331A6069
:100F00004279102A0ED11A1F126803681A430D4B3A
:100F100008331A601A1D126803681A43094B0C3310
:100F20001A600DE00749427911440A6803681A43C0
:100F30000A6005E0027911440A6803689A430A606E
:100F4000704700000004014001490860704700003C
:100F5000183C024004200B49096801F0010109B165
:100F600001200EE00749096801F4807109B10220EF
:100F700007E00449096801F4F05109B1032000E0D9
:100F800004207047183C024008B502460420009037
:100F9000FFF7E0FF009003E0FFF7DCFF0090521E38
:100FA0009DF80000012801D1002AF5D10AB90520D9
:100FB00000909DF8000008BDF0B50A46002100230E
:100FC000002400BF3DE0012505FA01F3156805EA9C
:100FD00003049C4234D105684F000326BE40B5434C
:100FE000056015794E00B5400668354305601579F2
:100FF000012D02D01579022D16D185684F000326E8
:10100000BE40B543856055794E00B540866835438E
:101010008560858801268E40B543858085889679D0
:101020008E40B6B235438580C5684F000326BE406A
:10103000B543C560D5794E00B540C6683543C56037
:10104000491C1029BFD3F0BDF0B5002300244D0783
:10105000ED0E02FA05F3CE1000F1200555F82650EA
:101060004E07F70E0F26BE40B543CF1000F1200605
:1010700046F82750CE1000F1200555F8265045EAD5
:101080000304CE1000F1200545F82640F0BD0246CD
:101090000020938A0B400BB1012000E00020704734
:1010A0004183704701837047F8B506466C46304669
:1010B00000F066FE054604F8015B280A04F8010BFF
:1010C000280C04F8010B280E04F8010B0098F8BD59
:1010D00030B589B0002544F620640121080700F0EE
:1010E0008BFD012000F06CFD012000F001FE0020CE
:1010F00000F0FEFD012000F0C5FD02E0641E04B911
:1011000004E0492000F09EFD0028F7D000BF8CB914
:10111000002000F0B7FD012000F0BCFD00BF412021
:1011200000F090FD0028FAD04FF4003000F0BEFD32
:10113000012503E04FF4803000F0B8FD012000F0FD
:10114000AFFD012000F078FD012000F095FD00F0DA
:1011500049FE002000F076FE012D04D140F61F105C
:1011600000F01EFE03E04FF4006000F019FE0121C4
:10117000880300F0D3FD012000F07CFE0121072050
:10118000FFF7B2FC012000F021FD0121FF2000F05B
:1011900023FD03208DF8200000208DF821008DF81C
:1011A00023004FF6FF70079007A9E748FFF704FFF9
:1011B00007A9E648FFF700FF07A9E548FFF7FCFE8F
:1011C00007A9E448FFF7F8FE07A9E348FFF7F4FE94
:1011D00007A9E248FFF7F0FE07A9E148FFF7ECFE98
:1011E00049F6FF70079007A9DE48FFF7E5FE0021EA
:1011F000F82000F0F1FC012007908DF8200000207D
:101200008DF822008DF8230003208DF8210007A916
:10121000D248FFF7D1FE4FF40060079001208DF80F
:10122000200000208DF822008DF8230003208DF887
:10123000210007A9CB48FFF7BFFE4FF4805007906D
:1012400001208DF8200000208DF822008DF8230069
:1012500003208DF8210007A9C248FFF7ADFE4FF427
:101260008070079001208DF8200000208DF822006A
:101270008DF8230003208DF8210007A9B948FFF756
:101280009BFE46F20700079001208DF82000002009
:101290008DF822008DF8230003208DF8210007A986
:1012A000AE48FFF789FE4FF48070079001208DF85B
:1012B00020008DF8220000208DF8230003208DF8F7
:1012C000210007A9A548FFF777FE4FF400700790AB
:1012D00001208DF820008DF8220000208DF82300D9
:1012E00003208DF8210007A99C48FFF765FE8020A8
:1012F000079000208DF820008DF8230003208DF842
:10130000210007A99548FFF757FE102007900220FB
:101310008DF8200003208DF8210001208DF8230096
:1013200007A98F48FFF748FE2020079002208DF87C
:10133000200003208DF8210001208DF8230007A94B
:101340008748FFF739FE0120079000208DF8200024
:1013500001208DF8230003208DF8210007A9814882
:10136000FFF72AFE0420079000208DF820008DF85A
:10137000230003208DF8210007A97A48FFF71CFEFF
:101380004FF40060774908834000088301207449C6
:1013900018310880000273490883704918310880A9
:1013A000400008800121084600F036FC0021084674
:1013B00000F040FF0221002000F03CFF0721022046
:1013C00000F038FF6848059000208DF818000C20C8
:1013D0008DF8190001208DF81A0005A8FFF76AFDA5
:1013E0004FF48010059000208DF8180008208DF82B
:1013F000190001208DF81A0005A8FFF75BFD0420F5
:10140000059000208DF8180010208DF8190001209B
:101410008DF81A0005A8FFF74DFD0120FFF744FDE8
:101420000420FFF741FD8020FFF73EFD06208DF8E8
:10143000100001208DF811008DF812008DF81300B6
:1014400004A800F081FB08208DF8100002208DF820
:1014500011008DF8120001208DF8130004A800F08F
:1014600073FB17208DF8100003208DF811008DF804
:10147000120001208DF8130004A800F065FB032082
:101480008DF8100000208DF811008DF81200012059
:101490008DF8130004A800F057FB0121022000F092
:1014A000ABFB022204212E48FFF7CEFD02220521CC
:1014B0002B48FFF7C9FD0020ADF80400ADF80C0083
:1014C0004FF4167002900020ADF8060001A92748DD
:1014D00001F006F80121254800F0BCFF02231A465E
:1014E0001946224800F0D1FF0121082000F084FBBA
:1014F0005520ADF804000020ADF80C0064200290E7
:101500000020ADF8060001A9194800F0E9FF01210B
:10151000174800F09FFF2E208DF8100004208DF852
:1015200011008DF8120001208DF8130004A800F0BE
:101530000BFB012211460E4800F0C8FF00210C48A9
:1015400000F097FF09B030BD001C024000140240BB
:101550000018024000100240000C02400008024047
:10156000000402400000024081001000000400401E
:10157000000C00400446042204F114014FF44070B2
:1015800000F054F8042204F118014FF4417000F007
:101590004DF800BFFEE700004CF6CC400149086062
:1015A00070470000003000404AF6AA200149086058
:1015B000704700000030004001494860704700005B
:1015C0000030004001498860704700000030004052
:1015D00001490860704700000030004070B50446C3
:1015E0000D46B82000F052F804F00F0000F04EF85D
:1015F00004F0F004241144F01004204600F046F8F2
:101600002946002001F002F870BD000030B58418B2
:10161000054D63192C46204403E004780C70491CE6
:10162000401C9842F9D330BD000008082DE9F04174
:1016300004460D461646A0191249471808460444A8
:10164000012080F3108800BFFFF73CFA10E02978F2
:101650002046FFF725FA0C49087008460078042850
:1016600002D1641C6D1C03E040F60270FFF76CFCB5
:10167000BC42ECD3FFF70AFA002080F3108800BFC9
:10168000BDE8F08100000808B400002070B50646EF
:10169000802402211048FFF703FD002519E00421F2
:1016A0000D48FFF7FDFC06EA0400A04205D14FF407
:1016B00080410948FFF7F6FC04E04FF480410648FA
:1016C000FFF7EEFC04210448FFF7ECFC6410681CF3
:1016D000C5B2082DE3DB70BD000402402DE9F041E6
:1016E00006460C4617464FF400511448FFF7CFFC4E
:1016F00010BB3046FFF7CAFF00BF04F00F052846B5
:10170000FFF7C4FF04F0F0052846E91705EB117157
:101710000D1145F0100500BF2846FFF7B7FF002167
:10172000012000F073FF601CC4B2102C02D1B82E4F
:1017300000D12F24BC42E0DBBDE8F0810004024070
:1017400010B504468120FFF7A1FF2046FFF79EFF5A
:1017500010BD000070B51E4C00254FF400511D480F
:10176000FFF79EFC20211C48FFF79AFC00BF681E73
:10177000C0B2051EFBD120211748FFF793FC00BF24
:10178000681EC0B2051EFBD100BF2078FFF77EFFA8
:10179000641C2078FF28F8D10820FFF7D1FF00BF94
:1017A000681EC0B2051EFBD1AF20FFF76FFF60229D
:1017B0000021B020FFF792FF60221021B120FFF737
:1017C0008DFF60220B21B820FFF788FF70BD00005D
:1017D0008853000800040240000802402DE9F84F39
:1017E00005460E4617464FF000080020009082463E
:1017F0008346012D0ED101200090B020FFF746FF57
:1018000006EB4600002101EB400000F0FF0A4FF01C
:10181000090B1CE0022D0CD100200090B020FFF736
:1018200035FF06EB4600102101EB400000F0FF0AF7
:101830000DE0032D0BD100200090B120FFF726FF13
:1018400006EB4600102101EB400000F0FF0A0AF011
:101850000F094846FFF71AFF0AF0F0094FEA291965
:1018600049F010094846FFF711FFFF21009800F0EA
:10187000CDFE2AE00BF1010000F0FF0B3C787F1C4D
:1018800004B920247E2C03DD204600F072FE0446BD
:10189000A4F12000C4B24FF000080FE004EB4400B4
:1018A0000D4A02EB400010F80800C043C1B2009896
:1018B00000F0ACFE08F1010000F0FF08B8F1060FDF
:1018C000ECDBBBF10C0F00DD02E038780028D1D151
:1018D00000BFBDE8F88F00004C55000810B502228B
:1018E0000421174800F02CFE02225103144800F096
:1018F00027FE02221146124800F022FE02221103A6
:101900000F4800F01DFE042220210E4800F018FEB2
:10191000022201210A4800F013FE02221146084863
:1019200000F00EFE4FF400510548FFF7BBFB2021ED
:101930000448FFF7B7FB01210148FFF7B3FB10BDD7
:1019400000040240000802402DE9F84F05460E460B
:1019500017464FF000080020009082468346012D74
:101960000ED101200090B020FFF790FE06EB46005C
:10197000002101EB400000F0FF0A4FF0090B1CE0D2
:10198000022D0CD100200090B020FFF77FFE06EB67
:101990004600102101EB400000F0FF0A0DE0032D8E
:1019A0000BD100200090B120FFF770FE06EB46003F
:1019B000102101EB400000F0FF0A0AF00F09484631
:1019C000FFF764FE0AF0F0094FEA291949F01009FF
:1019D0004846FFF75BFE0021009800F017FE28E064
:1019E0000BF1010000F0FF0B3C787F1C04B92024B0
:1019F0007E2C03DD204600F0BCFD0446A4F120004F
:101A0000C4B24FF000080DE004EB44000C4A02EBB6
:101A1000400010F80810009800F0F8FD08F10100EF
:101A200000F0FF08B8F1060FEEDBBBF10C0F00DD94
:101A300002E038780028D3D100BFBDE8F88F00005D
:101A40004C5500082DE9F84F05460E4617464FF055
:101A500000080020009082468346012D0ED101200F
:101A60000090B020FFF712FE06EB4600002101EBCC
:101A7000400000F0FF0A4FF0090B1CE0022D0CD1D2
:101A800000200090B020FFF701FE06EB4600102179
:101A900001EB400000F0FF0A0DE0032D0BD1002008
:101AA0000090B120FFF7F2FD06EB4600102101EB9C
:101AB000400000F0FF0A0AF00F094846FFF7E6FD74
:101AC0000AF0F0094FEA291949F010094846FFF7D2
:101AD000DDFD8021009800F099FD2AE00BF1010066
:101AE00000F0FF0B3C787F1C04B920247E2C03DD22
:101AF000204600F03EFD0446A4F12000C4B24FF0A1
:101B000000080FE004EB44000D4A02EB400010F81F
:101B1000080040F08001009800F078FD08F1010015
:101B200000F0FF08B8F1060FECDBBBF10C0F00DD95
:101B300002E038780028D1D100BFBDE8F88F00005E
:101B40004C55000800BFFEE770B5002100230F22AE
:101B5000C4781CB3174C246804F4E064C4F5E06452
:101B6000C4F30721C1F10404E3B20A4144789C4064
:101B7000E1B28478144021430C07210E0E4C057805
:101B80006155047804F01F050124AC4005786D11FF
:101B9000AD0005F1E025C5F8004109E0047804F046
:101BA0001F050124AC40054D0678761145F8264006
:101BB00070BD00000CED00E000E400E080E100E01A
:101BC000014908627047000000000E420149486266
:101BD0007047000000000E4229B1064A1268024315
:101BE000044B1A6004E0034A12688243014B1A60F6
:101BF000704700001C38024029B1064A12680243AF
:101C0000044B1A6004E0034A12688243014B1A60D5
:101C1000704700002438024029B1064A1268024386
:101C2000044B1A6004E0034A12688243014B1A60B5
:101C300070470000203802400149086770470000E3
:101C40000000474210B501460022002300204A113F
:101C5000012A02D1074C236802E0064C3434236881
:101C600001F01F02012494401C400CB1012000E04F
:101C7000002010BD00380240014908607047000094
:101C8000AC0647420021024A1170114608707047A5
:101C9000353802400149086070470000800647421D
:101CA0000149086070470000D8064742002100F44F
:101CB0004032B2F5403F08D10C4A116821F0C041D2
:101CC00000F0C0421143094A1160084A34321268D8
:101CD00022F44032054B34331A601A46126800F47D
:101CE00040331A43014B34331A60704700380240C6
:101CF0000149086070470000DC06474200210109E5
:101D00008AB242F08002044B1B6803F0800363EA4E
:101D10000202014B1A6070470C280040CA22174B80
:101D20001A6053221A6091B1144A1C3A126820F0CA
:101D300004031A43114B1C3B1A60104A1C321268F0
:101D400000F004031A430D4B1C331A6011E00B4AD8
:101D50001C3A126820F004039A43084B1C3B1A609B
:101D6000064A1C32126800F004039A43034B1C33EA
:101D70001A60FF22014B1A607047000024280040BF
:101D800008B501460020009004480090009800EB40
:101D9000810000900098006808BD000050280040B5
:101DA000CA21054A116053211160034910390860A6
:101DB000FF211160704700002428004010B54FF447
:101DC0008040FFF79BFF4FF48010FFF76DF8002372
:101DD0001A4619460248006802F05BFF10BD000079
:101DE000A800002008B50022009200200021CA228D
:101DF000134B1A6053221A60114A183A126822F0E3
:101E0000A0020F4B183B1A6000BF0D4A183A126827
:101E100002F02001009A521C0092009AB2F5004F85
:101E200001D00029F1D0064A183A126802F02002C7
:101E30000AB1012000E00020FF22014B1A6008BD1A
:101E400024280040CA210A4A116053211160084920
:101E50001C39096821F00701054A1C3A1160114636
:101E6000096801431160FF21014A116070470000B9
:101E70002428004018B501460023009300220020CA
:101E8000CA23194C23605323236049B1164B1C3BD2
:101E90001B6843F48063144C1C3C236001201FE04A
:101EA000114B1C3B1B6823F480630F4C1C3C2360CC
:101EB00000BF0D4B183B1B6803F00402009B5B1C2A
:101EC0000093009BB3F5005F01D0002AF1D0064BD0
:101ED000183B1B6803F004030BB9002000E001204D
:101EE000FF23014C236018BD2428004008B50022C0
:101EF0000092044A0092009A02EB80020092009A3B
:101F0000116008BD502800404FF4807009490880D6
:101F10004000891C088000BF00BF4FF400700549D5
:101F2000088000BF00BF034808380088C0F30020C5
:101F300070470000180802400146802000BF4FF49F
:101F400000720C4B1A8001EA00021AB19A159B1E0E
:101F50001A8003E04FF48072064B1A8000BF4FF4E2
:101F60000072044B9B1E1A80401000BF0028E6D16F
:101F7000704700001A0802402DE9F04F85B0044672
:101F80000D4628680490206803900398FEF74DFBE7
:101F90000746284A284BFEF79FFA284A284BCDE9E6
:101FA0000001FEF793FA8246FEF782FB8146254840
:101FB0000499FEF7B8F9824623480499FEF7B3F96D
:101FC00083460499FEF7AFF980465146FEF753F970
:101FD00007461E49FEF74FF902901D480499FEF787
:101FE000A2F983461B49FEF746F980461A4948463E
:101FF000FEF793F982464146FEF795F907460299A6
:10200000FEF739F9064615493046FEF777FB00D250
:10201000124E3046FEF709FB0746084A104BFEF702
:1020200017FB00D20F4E2E60C4F8009005B0BDE83B
:10203000F08F00007B14AE47E17A843F9A9999991A
:1020400099D94340BD52163DF624D6B5C5FE02C00F
:10205000ACC5A73A0AD7233C0000C8410000C642DD
:102060009999B93FCDCCCC3D4FF480700B49088095
:1020700000BF00BF4FF400700849891E088000BFF0
:1020800000BF4FF400700549088000BF00BF4FF447
:1020900080700249891E0880704700001A080240BB
:1020A0007CB504460D4600266946032000F032F850
:1020B000064301A9052000F02DF8064326B10020B3
:1020C0002060286001207CBD01A96846FFF754FF0D
:1020D00000982060019828600020F4E7002080210B
:1020E00000BF4FF400720A4B1A8000BF084A083A3A
:1020F000128802F4807202B1084300BF4FF40072EC
:10210000034B9B1C1A80491000BF0029E9D170477E
:10211000180802402DE9F04107460D4644F62066B6
:1021200000F036F800F04EF83846FFF705FFFFF7ED
:10213000EBFE10B10120BDE8F0814FF400701349AF
:10214000088000BF00BF00BF00BF00BF761E0EB9F1
:102150000120F0E70D480A38008800F4807000285C
:10216000F4D1FFF7BBFF0446FFF77EFF4FF6FF7089
:1021700000EA0424FFF7B2FF0443FFF7C5FE204640
:10218000FEF71CFA28600020D5E700001A0802407C
:1021900000B54FF400700A49088040100880FF2005
:1021A000FFF7CAFE4FF400700549891C088000BF84
:1021B00000BF4FF400700249088000BF00BD00005E
:1021C000180802404FF400701949088000BF00BF92
:1021D0004FF400701649891E088000BF00BF4FF4FD
:1021E00080701349088000BF00BF4FF40070104991
:1021F000088000BF00BF00BF00BF4FF400700C4953
:10220000891E088000BF00BF4FF480700849891EF6
:10221000088000BF00BF4FF400700549088000BF70
:1022200000BF4FF480700249088000BF00BF7047B4
:102230001A08024030B500228B071C0F0F2303FA47
:1022400004F20B4B8C1053F824309343084C8D1040
:1022500044F8253023468C1053F824308C07240F83
:1022600000FA04F42343024C8D1044F8253030BDAD
:102270000800014008B5002000902C48006800F4D8
:10228000007010B10120009001E000200090009843
:1022900001284AD12648006820F00100244908603E
:1022A0000846006820F0020008600846006820F038
:1022B000040008601D482430006840F080501B492D
:1022C000243108604FF4C0501A49086000BF194813
:1022D000406800F010000028F9D114480830006868
:1022E000124908310860084600680860084600681E
:1022F0000860081F006820F46040091F0860084655
:10230000006840F400400860081D006820F00300E9
:10231000091D086008460068086000BF03480830CF
:10232000006800F00C000028F8D108BD0038024019
:10233000003C0240007000402DE9F04107460D4688
:102340002C4614F8016B14F8011B46EA012614F818
:10235000011B46EA014614F8011B46EA01663146B4
:102360003846FFF7C3FDBDE8F081000010B5FDF76A
:1023700027FF02F097FD18B14FF080500249086026
:102380000020FDF724FF10BD04ED00E000B5154866
:10239000006840F4807013490860124808300068F3
:1023A000114908400F49083108600E4800680F497C
:1023B00008400C4908600846006820F48020086046
:1023C00008480830006820F47D000649083108609C
:1023D0000020091D0860FFF74DFF4FF00060044921
:1023E000086000BD003802400CC0FF88FEFFFEEE12
:1023F00008ED00E010B50121144800F037F8002185
:10240000124800F036F801201149088000BF00BFD3
:1024100000BF00BF00BF00BF00BF00BF00BF00BFC4
:1024200000BF00BF00BF00BF00BF00BF00BF00BFB4
:1024300000BF00BF00BF00BF00BF00BF00BF00BFA4
:1024400001200349891C088010BD0000000C0040D9
:102450001808024021B1028842F08002028004E0A4
:1024600002884FF67F731A4002807047CA43028287
:10247000704721B1028842F00102028004E0028824
:102480004FF6FE731A4002807047F0B50C461546B1
:102490001E460021002200230189028B038C4FF687
:1024A000F877394021434FF6FC473A4040F2011794
:1024B0003A434FF6DD773B404FF6FF7707EA0617C2
:1024C0002F433B43018102830384F0BD1AB183890A
:1024D0000B43838102E083898B4383817047000033
:1024E00000220288B0F1804F08D0104B984205D0EE
:1024F0000F4B984202D00F4B984204D14FF68F7386
:102500001A404B881A430C4B984207D00B4B984209
:1025100004D04FF6FF431A400B891A4302804B68E0
:10252000C3620B8803850123838270470004004047
:1025300000080040000C0040001000400014004063
:102540007CB506460C46154601212846FFF744FB9C
:10255000009401208DF8040000208DF806008DF80D
:10256000070001208DF8050069463046FEF724FD7E
:102570007CBD01460020E12940D012DCDD2931D0AC
:1025800008DCC7292AD0D0292AD0D6292CD0DC298A
:1025900038D12DE0DE2929D0DF292BD0E02931D117
:1025A0002AE0F62914D006DCE22929D0E72909D04F
:1025B000F02927D108E0FC290ED0FD2906D0FE29FC
:1025C00020D107E07F201DE080201BE0812019E062
:1025D000822017E0832015E0842013E0852011E09D
:1025E00086200FE087200DE088200BE0892009E09D
:1025F0008A2007E08B2005E08C2003E08D2001E09D
:102600008E2000BF00BF704700BFFEE72DE9F041FC
:1026100005460F468024012D00D1012402211448D3
:10262000FEF740FD00261EE004211148FEF738FDAC
:1026300007EA0400A04205D14FF480410C48FEF7A0
:1026400031FD04E04FF480410948FEF729FD0421E3
:102650000748FEF727FD012D02D16006040E00E0B9
:102660006410701CC6B2082EDEDBBDE8F0810000ED
:10267000000402400FB4084B10B504A902AA039845
:1026800000F0E0F8044602A9002000F072FC2046A9
:1026900010BC5DF814FB0000732F000802E008C8AE
:1026A000121F08C1002AFAD170477047002001E0CC
:1026B00001C1121F002AFBD1704780F310887047B8
:1026C0002DE9FF5F82B00021DDE90430020DDDF865
:1026D00040B0034318D044F61050A2F2FF324243F8
:1026E0001514119801281FD0A5EB0B00401C5FEAC0
:1026F000000A4FF000064E4FDFF83891B0465046C2
:1027000015D5CAF1000413E0119801244AA3012849
:1027100001D16FEA0B010298119AC0E90031C0E9BA
:10272000024206B0BDE8F09FCBF10000DFE70446AF
:102730000021404A491842EB0450CDE9001012E054
:10274000E00707D032463B4640464946FDF7C4FE07
:102750008046894632463B4610461946FDF7BCFE88
:1027600006460F466410002CEAD1DDE90401DDE9DC
:102770000023BAF1000F06DAFDF7AEFE42464B46E3
:10278000FDF7AAFE05E0FEF7BFF842464B46FEF70E
:10279000BBF804460E460022284BFDF771FF03D814
:1027A0004FF0FF30014607E00022254B204631461E
:1027B000FDF7EBFDFEF717F9102409E0002C0ADB0A
:1027C0000A220023FDF7BAFF039B30321A55641E1C
:1027D00050EA0102F2D1641C039AC4F111031444BB
:1027E000119A012A03D0012208430DD10AE00843BF
:1027F00004D000204FF0110B119072E7A3EB0B05F2
:102800006D1E0DE05B4504DD4FF0000205F1010592
:1028100004E003DA4FF00002A5F10105002AECD034
:1028200002981199C0E90231C0E9004579E700003A
:10283000000014400000F03F300000000000F043B2
:102840000000E03F2DE9FF4F95B09B4689460646C4
:1028500000250FE2252877D100242746F84A0121D8
:10286000059400E0044316F8013F203B01FA03F011
:102870001042F7D130782A2811D06FF02F0330782A
:10288000A0F13002092A16D8059A44F0020402EB9E
:10289000820203EB42021044761C0590EFE759F8E0
:1028A000042B0592002A03DA504244F400540590A8
:1028B00044F00204761C30782E2816D116F8010F49
:1028C00044F004042A280DD06FF02F023078A0F1D4
:1028D0003003092B09D807EB870302EB4303C71822
:1028E000761CF3E759F8047B761C30786C280FD0FF
:1028F00006DC4C2817D068280DD06A2814D104E0D3
:10290000742810D07A280FD10DE044F400140AE0A6
:1029100044F4801401E044F440147278824202D1FD
:1029200004F58014761C761C307866280BD013DCF6
:10293000582877D009DC002875D04528F6D04628DD
:10294000F4D047281AD19DE118E0632835D06428D7
:1029500079D0652812D195E1702873D008DC6728FA
:10296000F1D069286FD06E280DD06F2806D1B5E060
:1029700073282CD0752875D0782874D05A461799AA
:1029800090476D1C75E1C4F30250022809D003285A
:102990000DD0D9F8001004280DD00D6009F10409FC
:1029A00067E1D9F80010EA17C1E90052F6E7D9F853
:1029B00000100D80F2E70D70F0E719F8041B8DF898
:1029C000001000208DF80100EA46012003E059F8CC
:1029D00004AB4FF0FF3061074FF0000102D40DE06F
:1029E00008F101018846B9420FDA8045F8DB1AF890
:1029F00008100029F4D108E008F10101884681425D
:102A0000FADB1AF808100029F6D105985B46A0EB0E
:102A1000080721463846179A00F094FA284400EB3C
:102A2000080507E04DE029E10DE01AF8010B5A46D0
:102A300017999047B8F10108F7D25B46214638460E
:102A4000179A13E142E00A220092C4F302524FF0B7
:102A5000000A022A08D059F804CB032A4FEAEC7185
:102A60000AD00DE029E02AE009F1070121F0070270
:102A7000F2E802C1914609E00FFA8CFC4FEAEC71D2
:102A8000042A03D14FFA8CFC4FEAEC71002907DAD3
:102A90000A460021DCF1000C61EB02012D2202E06C
:102AA000220504D52B228DF80420012203E0E20741
:102AB00001D02022F7E7904659E00A2102E01022D7
:102AC0000DE010214FF0000A00910BE010224FF0B2
:102AD000000A44F004040827009203E008224FF0A3
:102AE000000A0092C4F30252022A05D059F804CB1E
:102AF0000021032A08D009E009F1070121F00702AB
:102B0000F2E802C1914605E01FFA8CFC042A01D1CB
:102B10000CF0FF0C4FF00008220728D5702806D0D3
:102B2000009B83F0100353EA0A0305D00EE0402215
:102B30008DF80420012208E05CEA010206D0302270
:102B40008DF804208DF8050002229046009B83F04A
:102B5000080353EA0A030AD15CEA010201D16207C1
:102B600005D530228DF804204FF001087F1E58282B
:102B700004D034A003900EA802900DE036A0F9E72F
:102B800053466046009AFDF7D9FD84460398825C5F
:102B90000298401E029002705CEA0100F0D1029897
:102BA00006A9081A00F1200A600702D524F480342F
:102BB00000E00127574502DDA7EB0A0000E00020F6
:102BC00000EB0A01009005984144401A0590E0038B
:102BD00006D45B462146179A059800F0B3F90544E0
:102BE000002706E001A85A46C05D179990476D1C62
:102BF0007F1C4745F6DBE0030CD55B462146179A60
:102C0000059800F09FF9054404E030205A461799D2
:102C100090476D1C0099481E00900029F5DC08E0E3
:102C2000029802995A460078491C029117999047D8
:102C30006D1CBAF10001AAF1010AF1DC65E10000A6
:102C40000928010030313233343536373839616282
:102C50006364656600000000303132333435363746
:102C600038394142434445460000000000F058F91D
:102C70000544761C307800287FF4ECAD19B0284666
:102C8000BDE8F08F620700D4062709F1070222F0A1
:102C9000070CFCE80223E14603F000485FEA080C59
:102CA00002D00FF2702C0DE05FEA045C02D50FF247
:102CB000682C07E05FEAC47C02D00FF2602C01E0D0
:102CC000AFF2700C4FF0FF3823F00043CDF850C046
:102CD00065280CD006DC452809D046281DD0472899
:102CE0003DD13DE0662818D067287ED138E000212C
:102CF000112F01DB112000E0781CCDE9000106A9AD
:102D00000EA8FFF7DDFCDDE90F010E9A039100210B
:102D1000009207F1010A04914DE04FF00040009746
:102D2000CDE9011006A90EA8FFF7CAFCDDE90F02E4
:102D300003920E9B11990022DDF80CA000930492DF
:102D400011B9791C00EB010AB7EB0A0004D4C0F1F9
:102D5000FF3007F1010A0490AAEB0700019044E05C
:102D6000012F00DA01270021112F01DD112000E0E1
:102D70003846CDE9000106A90EA8FFF7A1FCDDE960
:102D80000F010E9A0391002104910092BA46210787
:102D90000CD40399514500DA8A46BAF1010F05DDDA
:102DA000009AAAF10101515C302908D0B84202DA38
:102DB00010F1040F06DA0121CDE9011015E0AAF1A6
:102DC0000101E9E7002805DC049901440491AAEB1C
:102DD000000102E0411C514500DD8A460499401A79
:102DE000401C01904FF000400290200704D401984D
:102DF000504501DBCDF8048000208DF84F0002988B
:102E00000DF14F07B0F1004F25D02B200E90029806
:102E10004FF0020800280CDA404202902D200E905C
:102E200007E00A210298FDF773FC3031029007F8A1
:102E3000011DB8F10001A8F10108F2DC0298002898
:102E4000EFD1791E0E980870307800F0200040F025
:102E5000450007F8020D12A8C01B00F107081498DE
:102E6000007800B1012000EB0A01019801EBE0714C
:102E700005984144401A401E0590E00306D45B4685
:102E80002146179A059800F05DF8054414980078DB
:102E900018B15A46179990476D1CE00324D55B463C
:102EA0002146179A059800F04DF805441CE0049857
:102EB000002807DBDDE90301884203DD0098405C60
:102EC000179901E0179930205A469047049805F168
:102ED0000105401C04900198401E019004D12E2051
:102EE0005A46179990476D1CBAF10001AAF1010AE0
:102EF000DDDC05E017F8010B5A46179990476D1C69
:102F0000B8F10001A8F10108F4DC5B462146179AEC
:102F10000598ABE62D0000002B000000200000000B
:102F20002DE9F041044600251E461746880404D4C6
:102F300005E039462020B0476D1C641EF9D52846AF
:102F4000BDE8F0812DE9F041044600251E4690467B
:102F5000C80301D5302700E02027880404D505E008
:102F600041463846B0476D1C641EF9D52846BDE879
:102F7000F0810A68531C0B60107070471FB545F252
:102F80005550FEF725FB0620FEF716FB4FF4147094
:102F9000FEF718FBFEF708FBFEF7FEFA5D20FEF7D2
:102FA00051FE18B100210846FFF7C6F9012080F351
:102FB000108800BFFEF78CF8FEF790FCFEF7CAFB06
:102FC000012001F0DDFC5D490860032200210120A1
:102FD00001F0FEFC5A4908600846006830B1002341
:102FE0001A4619465648006801F0DEFD032200210A
:102FF000012001F0EDFC534908600846006830B13B
:1030000000231A4619464F48006801F0CDFD0322FF
:103010000021012001F0DCFC4B49086008460068F3
:1030200030B100231A4619464748006801F0BCFD3C
:1030300003220021012001F0CBFC4449086008462E
:10304000006830B100231A4619464048006801F074
:10305000ABFD03220021012001F0BAFC3C490860CD
:103060000846006830B100231A46194638480068FF
:1030700001F09AFD3748002301224FF4FA710090C5
:1030800035A002F091F83749086000200923CDE906
:103090000030029003464FF4007233A1039035488C
:1030A00001F05EFE00200523CDE9003002900346CA
:1030B0004FF4007230A10390334801F051FE00201C
:1030C0000523CDE90030029003464FF400722FA192
:1030D0000390314801F044FE00200F23CDE9003079
:1030E000029003464FF480722CA103902D4801F00A
:1030F00037FE00200623CDE90030029003464FF44E
:10310000807229A10390294801F02AFE0222284951
:103110000020FEF77BFA26480078264908602448FC
:103120004078096841EA00202249086001212248CC
:10313000FFF79FF900F082FE00BFFEE79800002035
:10314000940000209C000020A0000020A40000208B
:10315000A80000206D3A0008424C2054696D657249
:1031600000000000B00000205461736B2053656EB6
:10317000736F72003545000854616B7320456E63B0
:103180006F64657200000000C940000854616B73F1
:10319000204275746F6E0000413F000842757A7AD4
:1031A00065720000914000085254430089410008B4
:1031B000D0710020880000200004004010B50446B3
:1031C0000E48006844600E480068844207D20B48ED
:1031D0000168091D0B48006800F06CFC0CE0074812
:1031E0000168091D0848006800F064FC0748006891
:1031F000844201D20548046010BD00002000002078
:10320000340000202800002024000020500000206E
:1032100070B505460E46542000F08CFB044694B170
:103220001EB9A80000F086FB00E030462063206B4A
:1032300020B9204600F084FC002404E0A900A52267
:10324000206BFCF7F9FF204670BD000010B500F0C0
:1032500057FC10480068D0B90F4800F01BFC0F481D
:1032600000F018FC0C480E4908600C480D49086035
:1032700000220C210A2001F0ABFB06490860084639
:10328000006820B108A10348006800F099FC00F034
:1032900047FC10BD60000020A8010020BC010020F8
:1032A000580000205C000020546D725100000000A6
:1032B00070B523E000F0ECFD1348006808B9012068
:1032C00000E00020054601F001FFBDB900F018FC48
:1032D0000D48C068C468201D00F0AAFB0B480068B8
:1032E000401E0A4908600A480068401E08490860F4
:1032F00000F016FC204600F068F800BF04480068A3
:103300000028D7D170BD00008001002030000020CF
:103310002C00002070B504460D46206878B1216C61
:10332000E0680844E0606168E068884201D3206892
:10333000E0602846226CE168FCF76CFF01E000F0D9
:10334000ABFC70BD2DE9F04104460E461546002742
:10335000206C58B92068002831D100F065FC606805
:1033600001F036FE07460020606028E07DB9314656
:10337000226CA068FCF74EFF216CA0680844A06096
:10338000D4E9011088421AD32068A06017E03146C2
:10339000226CE068FCF73EFF216CE068401AE060B8
:1033A0002168E068884203D2216C6068401AE060BE
:1033B000022D04D1A06B10B1A06B401EA063A06BC6
:1033C000401CA0633846BDE8F08110B50446206B70
:1033D00000F0B6FB204600F0B3FB10BD0146084AE2
:1033E000126812680AB9012200E000220A600A6825
:1033F00022B9034A1268D268106800E000207047C2
:103400005800002030B54FF4E043174800F007049F
:103410002CB1C01D20F00700134C041B1B1B0246DF
:10342000124C22600024114D6C60D018083820F036
:1034300007000F4C206000240D4D2D686C600C4D72
:103440002D682C601146441A4C60094C24680C60AD
:10345000084D4C682C60084D4C682C604FF00044BF
:10346000064D2C6030BD0000D00100206C00002013
:10347000740000207C0000207800002080000020E4
:1034800000BFFFF715FF04480068012801D900F0CC
:103490008BFB00F0E1FAF4E7E00000202DE9F047B3
:1034A00004460F4615469946DDF82080002607E0C1
:1034B000B95D04F134008155B85D00B902E0761CB5
:1034C000102EF5D300BF002143200155052D00D358
:1034D0000425E562E56400202065201D00F0E7FA80
:1034E00004F1180000F0E3FA2461C5F10500A061C1
:1034F0006462BDE8F087000010B5002407E004EB2B
:1035000084010F4A02EB810000F0C4FA641C052C10
:10351000F5D30C4800F0BEFA0B4800F0BBFA0B489C
:1035200000F0B8FA0A4800F0B5FA0A4800F0B2FA1A
:1035300004480949086004480849086010BD0000B3
:10354000E000002044010020580100206C01002010
:103550008001002094010020240000202800002089
:1035600010B50146164800E0006803688B42FBD3A3
:103570000246436813448B4204D143684C68234499
:10358000436001460A464B6813440468A34211D1C4
:103590000C4C03682468A34208D04B680468646834
:1035A00023444B6003681B680B6005E0054B1B68F8
:1035B0000B6001E003680B60884200D0016010BD21
:1035C0006C000020740000202DE9F04104460D46F7
:1035D00016461F464FF0000865602461B5420CD8BE
:1035E000F01BA169884202D34FF0010811E0211DB0
:1035F0000948006800F05EFA0BE0BE4204D2BD420A
:1036000002D34FF0010804E0211D0448006800F0D7
:1036100051FA4046BDE8F0815C00002058000020CF
:1036200070B5054600F06CFAA86B08B9012400E0FB
:10363000002400F075FA204670BD70B5054600F014
:103640005FFAA86BE96B884201D1012400E00024F5
:1036500000F066FA204670BDF8B505460E461048E3
:103660000068C068C468201D00F0E2F9E069012824
:1036700012D1A06941192B4632462046FFF7A4FF1C
:10368000012809D1002003462A4601460090204621
:1036900001F0CAFD074600BF2046616A8847F8BDB1
:1036A0005800002070B586B04EE0039800284BDB30
:1036B000059C606908B9012000E0002010B9201DB8
:1036C00000F0B6F902A800F08DF8054603980A2824
:1036D00038D2DFE800F00905072628330608272935
:1036E00000BF00BF00BF00BF0498A2698118034655
:1036F0002A462046FFF768FF012811D12046616A5B
:103700008847E06901280BD1002000900498A16946
:10371000421800231946204601F086FD064600BFE8
:1037200011E000BF0FE000BF0498A061A06941193B
:103730002B462A462046FFF747FF04E0204600F0CC
:10374000FFF900E000BF00BF00231A4603A90448A8
:10375000006801F064F90028A7D106B070BD000030
:1037600060000020F8B504460E4600F091FB684664
:1037700000F038F805460098A0B946B9AC4206D822
:1037800001F0A4FC29462046FFF766FF0CE0611B10
:103790000648006800F02AFA01F098FC20B900F011
:1037A00003FA01E001F092FCF8BD00006000002087
:1037B0000A490968096809B9012100E0002121B11D
:1037C0004FF0FF31064A116006E004490968C968F4
:1037D000C868034A41681160704700002400002057
:1037E0005000002070B5044601F050FB0546074824
:1037F0000068854204D200F00BF80120206001E04F
:103800000020206001480560284670BD640000204B
:103810002DE9F84326E01D480068C06805681B488C
:103820000068C068C468201D00F002F92046616A83
:103830008847E069012815D1A0694619AE4207D929
:1038400066602461211D1148006800F033F909E029
:10385000002003462A4601460090204601F0E4FC81
:10386000804600BF09480068006808B9012000E0F0
:1038700000200028CFD005480768054800680349A4
:10388000086003480760BDE8F88300005800002086
:103890005C000020FCF794FC00BFFEE708B500BF09
:1038A0006846FFF79BFD044620460099FFF75AFF44
:1038B000FFF7F8FEF4E710B5044600F021F911E037
:1038C000606A08B9012000E0002038B904F1240042
:1038D00001F0BCFB18B100F0EDF900E005E0A06CD0
:1038E000401EA064A06C0028EADC00BF4FF0FF304F
:1038F000A06400F015F900F003F911E0206908B99F
:10390000012000E0002050B904F1100001F09EFBFE
:1039100008B100F0CFF9606C401E606400E002E086
:10392000606C0028EADC00BF4FF0FF30606400F0FC
:10393000F7F810BD2DE9F04105464FF0000800F002
:10394000A7FA2E48006808B9FFF75CFD2C4800680C
:103950002840002847D145B1083505F0070020B1BF
:1039600005F00700C0F108000544002D3BD02548B4
:103970000068854237D8244E3046046801E0264668
:1039800024686068A84202D220680028F7D11B484A
:103990000068844227D0306800F108082068306051
:1039A0006068401B102807D967196068401B786061
:1039B00065603846FFF7D4FD124960680968081A47
:1039C000104908600846006810490968884203D217
:1039D0000C4800680D490860094960680968084397
:1039E00060600020206001F071FBB8F1000F01D190
:1039F00000F033F84046BDE8F0810000740000207C
:103A000080000020780000206C0000207C00002056
:103A1000001F4FF080730360001F0160001F034B05
:103A200003601438026020387047000095380008A1
:103A300001460A69D1E901309860D1E90103586073
:103A40005068884201D18868506000200861106881
:103A5000401E1060106870477047FCF7B1FB00BF54
:103A6000FEE7FCF7ADFB00BFFEE7704738B5044644
:103A7000012006490880801E00231A460321009079
:103A80000348006801F0D0FB38BD00001804024074
:103A9000B000002000F1080141604FF0FF3181606B
:103AA00000F10801C160016100210160704700213F
:103AB0000161704710B502460B685C1C0CB91069B7
:103AC00007E002F1080000E04068446824689C4276
:103AD000FAD944684C604C68A160886041600A6112
:103AE0001468641C146010BD42684A6093688B605F
:103AF000936859609160086103685B1C03607047BC
:103B000010B5FCF75DFB05480068401C03490860E0
:103B1000BFF34F8FBFF36F8F10BD00006800002010
:103B200010B506480068401E044908600846006851
:103B300010B90020FCF74BFB10BD0000680000200E
:103B400070B506463546D6B1083D2C460C4960682E
:103B50000968084098B1206888B90949606809680F
:103B60008843606000F094F9064960680968084479
:103B7000044908602046FFF7F3FC01F0A7FA70BD86
:103B8000800000207800002006480068C0086421FA
:103B9000B0FBF1F0401E4FF0E021486103200861C6
:103BA00070470000000000204FF08050034908607B
:103BB000BFF34F8FBFF36F8F7047000004ED00E03D
:103BC000024600200BE0084B53F8303033B9064B67
:103BD00043F8301003EBC0035A6002E0401C052894
:103BE000F1D300BF70470000B800002070B5054653
:103BF0000E462C46FFF784FF606C401C08B900207D
:103C00006064A06C401C08B90020A064FFF788FF26
:103C1000A06B20B9314604F1240000F083F820465F
:103C2000FFF749FE70BD00000548006830B1044947
:103C3000096801F15000096D491E016070470000DC
:103C40002000002070B504460026DCB100F020F909
:103C50000E48006805190E480068001DFFF7E8FED1
:103C600050B90B48006890F82C1001208840094991
:103C700009688143074801602846FFF79FFA01F071
:103C800025FA06460EB9FFF78FFF70BD34000020FD
:103C900020000020380000200548006830B10449A9
:103CA000096801F15000096D491C0160704700006E
:103CB00020000020012001490860704744000020D6
:103CC00070B506460C461348016818313046FFF7B8
:103CD000F1FE10480068001DFFF7AAFE50B90D481C
:103CE000006890F82C10012088400B490968814336
:103CF00009480160601C30B906480168091D074881
:103D0000FFF7F2FE05E00648006805192846FFF7B0
:103D100055FA70BD200000203800002094010020DA
:103D20003400002070B506460C460F480168183173
:103D30003046FFF7D9FE0C480068001DFFF778FEFB
:103D400050B90948006890F82C10012088400749B4
:103D5000096881430548016005480068051928463F
:103D6000FFF72CFA70BD0000200000203800002072
:103D70003400002070B505462C46002D4BD0264956
:103D8000E06A0968C96A884245D2A06900F000402B
:103D900028B921480068C06AC0F10500A061E16A45
:103DA00001EB81011D4A02EB81016069884201D16A
:103DB000012000E0002050B3201DFFF739FE78B944
:103DC000E06A00EB8000154951F8200040B994F8F2
:103DD0002C10012088401249096881431048016075
:103DE0000D480068C06AE06294F82C1001208840F9
:103DF0000B49096808430A490860E16A01EB81013F
:103E0000064A02EB8100211DFFF76EFE03E0024827
:103E10000068C06AE06270BD20000020E000002061
:103E200038000020034909680160034909684160BE
:103E30007047000048000020340000201FB500201B
:103E4000009001900290034646220CA103900D4879
:103E500000F086FF0446012C02D101F0C5F90446AA
:103E6000012C09D1FCF7ACF90120074908600020BA
:103E70000649086000F06AFD1FBD000049444C453A
:103E800000000000813400083C00002034000020C5
:103E900002480068401C0149086070475400002037
:103EA00010B52148006818B101202049086039E0A8
:103EB00000201E4908601E48006800681C49096807
:103EC000096B884205D81A48016834310068FFF749
:103ED000C8FD174909681422086B1649FCF7BEF99A
:103EE00028B11348016834310068FFF7BAFD124861
:103EF0000068B0FA80F0C0F11F0101EB81020F4BA6
:103F000003EB820042685268426000F10802436895
:103F1000934202D14268526842604268D268044BC0
:103F20001A6000BF10BD00005400002044000020B3
:103F300020000020B452000838000020E0000020DB
:103F400000235A1E19463F48006800F068FD00BF74
:103F500000235A1E19463B48006800F060FDFCF73C
:103F60007DFD0520FFF76EFE3748007880F00100E8
:103F70003549087000235A1E19463448006800F07D
:103F80004EFD31480078012829D131480068314977
:103F9000086031A200210220FDF7D6FC32A20021E8
:103FA0000320FDF7D1FC34A209210220FDF74AFDD0
:103FB000274800680A2190FBF1F201FB1204244813
:103FC000006890FBF1F523462A462DA12E48FEF706
:103FD00051FB2D4A09210320FDF700FC23E026A216
:103FE00009210220FDF7B0FC194800680A2190FB66
:103FF000F1F201FB12041648006890FBF1F523462C
:104000002A461FA12048FEF735FB1F4A092103203D
:10401000FDF79AFCFFF774FD02220D490020FDF721
:1040200005FBFFF77DFD00231A4619460748006887
:1040300000F0BAFD00231A4619461448006800F043
:10404000B3FD85E7A0000020840000209800002038
:1040500088000020240400404953493A20202020B1
:1040600020415941520000004E454D3A2025202064
:104070002020202020000000415941520000000073
:10408000253032642E256400D0710020A400002069
:1040900000BF4FF400600A494883002305221946F7
:1040A0000848006800F0BBFC4FF400600449088336
:1040B00000235A1E19460348006800F0B0FCE8E7E8
:1040C00000000240A40000202548046800235A1E76
:1040D00019462448006800F0A2FC00BF00235A1EC5
:1040E00019462048006800F09AFC1D480068A0426C
:1040F00003D01B480468FCF7B1FC1B48007801287A
:10410000ECD1174800681949086000235A1E194667
:104110001748006800F083FC16A209210220FDF771
:1041200091FC124800680A2190FBF1F201FB120594
:104130000E48006890FBF1F62B4632460FA111485D
:10414000FEF798FA0F4A09210320FDF747FB0023E9
:104150001A4619460648006800F026FDBEE7000032
:10416000240400409C0000208400002088000020DF
:10417000980000204159415200000000253032646F
:104180002E256400D07100201CB5002400BF002340
:104190005A1E1946C248006800F041FCC148006838
:1041A000C0490968491CBF4A116040B101282CD0A0
:1041B00002282BD0A0F6136000287DD163E0FCF725
:1041C0004DFC00235A1E1946B748006800F027FC32
:1041D000B6A200210220FDF735FCB8A20021032081
:1041E000FDF7FCFAB9480378B9480278B9A1BD488F
:1041F000FEF740FABB48FCF7FDFD00231A461946BE
:10420000A948006800F0D0FC49E148E100235A1EAB
:104210001946A548006800F002FCB3A20021022064
:10422000FDF792FBB4A200210320FDF78DFBB648F9
:1042300000680A2190FBF1F201FB1205B248006808
:1042400090FBF1F62B463246B0A1A648FEF712FAD3
:10425000A44A09210320FDF777FB00231A461946DB
:104260009148006800F0A0FC00231A461946A948AE
:10427000006800F099FC00231A461946A648006819
:1042800000F092FC0BE10320864908608F4800781B
:10429000401C8E49087008460078182806DB00206C
:1042A00008708B480078401C89490870012201A9D8
:1042B0000220FDF7ABF900E04DE001226946032042
:1042C000FDF7A4F9824800789DF8001088420EDDC1
:1042D000FFF716FC01227D490220FDF7A7F9012214
:1042E0007B490320FDF7A2F9FFF71AFC19E0784893
:1042F00000789DF80010884213D1744800789DF82A
:10430000041088420DDDFFF7FBFB01226F490220FC
:10431000FDF78CF901226E490320FDF787F9FFF7BD
:10432000FFFB00235A1E19465F48006800F077FB28
:10433000664803786648027866A16A48FEF79AF9EB
:104340006848FCF757FD00231A461946564800688E
:1043500000F02AFCA3E07148008A00F0010088BB4D
:104360002046611CCCB205282DD1012201A90220D2
:10437000FDF74CF9012269460320FDF747F90023B8
:104380005A1E19464848006800F049FB9DF8043061
:104390009DF800204FA15348FEF76CF95148FCF7F7
:1043A00029FD00231A4619463F48006800F0FCFB2F
:1043B00000231A4619465A48006800F0F5FBFCF73E
:1043C0004DFB2DE007E000231A46194652480068CD
:1043D00000F0EAFB24E0002C1BDD002400235A1E21
:1043E00019463148006800F01AFB3848037838480D
:1043F000027838A13B48FEF73DF93A48FCF7FAFC51
:1044000000231A4619462848006800F0CDFBFCF747
:1044100025FB00231A4619463F48006800F0C4FBFC
:1044200040480078012839D13F48006800F032FF49
:10443000A0BB00203B4908700023421E19461A48C1
:10444000006800F0ECFA39A209210220FDF77CFA9D
:104450002D4800680A2190FBF1F201FB12052A4861
:10446000006890FBF1F62B46324628A11D48FEF766
:1044700001F91C4A09210320FDF766FA00231A46B8
:1044800019460948006800F08FFBFFF739FB02224C
:104490001D490020FDF7CAF8FFF742FB00BF76E692
:1044A000A80000208C00002098000020434F534BB0
:1044B000554E20455247414E000000004953492DBA
:1044C0004E454D2056312E34000000009000002053
:1044D000910000203A3A25302E326425302E326485
:1044E00000000000D07100204953493A20202020CC
:1044F00020415941520000004E454D3A20252020D0
:104500002020202020000000880000202530326478
:104510002E2564009C000020940000200000024032
:10452000A400002084000020B00000204159415226
:104530000000000088B00020FCF7B6FD04900023C6
:104540005A1E1946EB48006800F069FA00BF0023C4
:104550005A1E1946E748006800F061FA06A907A844
:10456000FDF79EFD00287CD1E3490798FCF7C6F8CB
:1045700009D3E2490798FCF7B7F804D3DE49069857
:10458000FCF7BCF800D2E2E7DD480068FCF71BF856
:104590000646DC4ADC4BFBF79FFF0446FCF788F835
:1045A00005900798FCF741F880460022D74BFBF7AF
:1045B0008DFF04460D460598FCF737F8064622465F
:1045C0002B46FCF745F804D80020D1490870049028
:1045D00066E00798FCF729F880460022CB4BFBF7F2
:1045E000D4FE04460D460598FCF71FF80646224601
:1045F0002B46FCF745F805D86320C5490870002014
:1046000004904DE007990598FBF787FE044604994E
:10461000FBF731FE049004A90020FDF78DFE0498FD
:10462000FCF703F80446BB4ABB4BFBF755FFCDE94B
:1046300000010798FBF7F9FF04460D460598FBF7C4
:10464000F4FF80460022B14BFBF79FFE0646224650
:104650002B46FBF73BFF8246DDE90023FBF795FE87
:1046600000E057E0CDE90201FCF722F805900021B7
:104670000598FCF739F803D20020A549087008E036
:10468000A6490598FBF74FFE0446FBF7BAFFA04981
:1046900008709F480078632802DD63209C490870F9
:1046A00000235A1E19469E48006800F0B8F9079882
:1046B000FBF7BBFF044622460B469AA19B48FDF739
:1046C000D9FF9A4A04210220FDF73EF90698FBF72C
:1046D000ACFF044622460B4695A19448FDF7CAFF5D
:1046E000924A06210320FDF72FF98948027892A10A
:1046F0008E48FDF7BFFF8D4A00210120FDF724F908
:1047000000231A4619468648006800F04DFAFCF767
:104710004BFFEDE006A907A8FCF7F6F900287DD1CC
:1047200075490798FBF7EAFF09D374490798FBF727
:10473000DBFF04D370490698FBF7E0FF00D206E7E1
:104740006F480068FBF73FFF06466E4A6E4BFBF76B
:10475000C3FE0446FBF7ACFF05900798FBF765FF27
:1047600006460022694BFBF7B1FE04460D4605984C
:10477000FBF75BFF804622462B46FBF769FF04D818
:1047800000206349087004905DE00798FBF74DFF37
:10479000804600225D4BFBF7F8FD04460D46059868
:1047A000FBF743FF064622462B46FBF769FF05D879
:1047B0006320574908700020049044E00799059849
:1047C000FBF7ABFD04460499FBF755FD049004A9E3
:1047D0000020FDF7B1FD0498FBF727FF04464D4A82
:1047E0004D4BFBF779FE804689460798FBF71DFF86
:1047F00004460D460598FBF718FF06460022434B7A
:10480000FBF7C3FD824622462B46FBF75FFE42467E
:104810004B46CDE90001FBF7B8FD00E04DE0CDE9E6
:104820000201FBF745FF05903C490598FBF77BFD2E
:104830000446FBF7E6FE3649087008460078632810
:1048400001DD6320087000235A1E194634480068B1
:1048500000F0E5F80798FBF7E8FE044622460B4611
:1048600030A13248FDF706FF304A04210220FDF74F
:104870006BF80698FBF7D9FE044622460B462CA19E
:104880002A48FDF7F7FE294A06210320FDF75CF8C8
:104890001F48027828A12548FDF7ECFE234A002195
:1048A0000120FDF751F800231A4619461C480068FC
:1048B00000F07AF9FCF778FE1AE000235A1E194638
:1048C0001748006800F0ABF83220114908701CA2AC
:1048D00004210220FDF738F81BA206210320FDF772
:1048E00033F800231A4619460D48006800F05CF9B9
:1048F0002DE60000940000200000C642000020C108
:10490000880000209A9999999999B93F0000E03F51
:10491000920000207B14AE47E17A843F0000C84239
:10492000980000202530322E31660000D071002022
:1049300025322E3066000000253032640000000071
:1049400058582E58000000005858000010B50A486A
:10495000006840F47000084908600846006840F0AC
:1049600070400860FFF710F9002004490860FBF769
:10497000F5FB002010BD000020ED00E068000020E5
:1049800070B505465420FEF7D5FF0446F4B100206B
:1049900060602060A060E060A0630120E063002010
:1049A0002064401E6064A06484F8505004F110003C
:1049B000FFF770F804F12400FFF76CF8FFF76CF9CB
:1049C00000231A461946204600F0EEF8204670BD36
:1049D0002DE9F04705460E4617464FF00009DDB1B8
:1049E0005420FEF7A7FF0446B4B105FB06F000F122
:1049F00001084046FEF79EFF2060206848B1E5634D
:104A000026640121204600F098F884F85070A146F1
:104A100002E02046FFF794F84846BDE8F0872DE90C
:104A2000FF4383B0054688461E464FF000092C46DA
:104A300000BFFFF765F8A06B80B3E76841462046EA
:104A4000FEF768FCB6B9A06B401EA063206810B9E1
:104A500000F006FA6060206908B9012000E000203B
:104A6000B0B904F1100000F0F1FA012810D1FFF7FD
:104A70009BF80DE0E760606A08B9012000E00020C3
:104A800030B904F1240000F0E1FA08B1FFF78CF826
:104A9000FFF746F8012007B0BDE8F083FFE705986F
:104AA00018B9FFF73DF80020F5E7B9F1000F04D180
:104AB00001A8FFF7B7F94FF00109FFF731F8FFF749
:104AC000E7F9FFF71DF8606C401C08B9002060642E
:104AD000A06C401C08B90020A064FFF721F805A9CC
:104AE00001A800F00FF908BB2046FEF799FDB8B108
:104AF000206830B9FFF704F86068FFF73BF9FFF76B
:104B00000FF804F124000599FFF7DAF82046FEF7C4
:104B1000D2FE00F0DBFA00288BD1FFF745F888E7DA
:104B20002046FEF7C8FE00F0D1FA82E72046FEF7E5
:104B3000C2FE00F0CBFA0020ADE770B505460E4688
:104B40002C46FEF7DDFFD4E90F12206801FB0200BE
:104B500060600020A0632068A060E06B401E226CB3
:104B6000216800FB0210E0604FF0FF306064A06439
:104B700076B9206908B9012000E0002080B904F16D
:104B8000100000F063FA01280AD1FFF70DF807E0E2
:104B900004F11000FEF77EFF04F12400FEF77AFF17
:104BA000FEF7BEFF012070BD2DE9FF4383B007462D
:104BB00088461D464FF000093C4600BFFEF7A0FFA7
:104BC000A06BE16B884201D3022D1DD12A464146DC
:104BD0002046FEF7B7FB0646606A08B9012000E0F0
:104BE000002040B904F1240000F030FA012805D17A
:104BF000FEF7DAFF02E00EB1FEF7D6FFFEF790FFF8
:104C0000012007B0BDE8F083059818B9FEF788FFCA
:104C10000020F6E7B9F1000F04D101A8FFF702F96F
:104C20004FF00109FEF77CFFFFF732F9FEF768FF4E
:104C3000606C401C08B900206064A06C401C08B97E
:104C40000020A064FEF76CFF05A901A800F05AF847
:104C5000C0B92046FEF7F1FC70B104F110000599CF
:104C6000FFF72EF82046FEF726FE00F02FFA002868
:104C7000A4D1FEF799FFA1E72046FEF71CFE00F045
:104C800025FA9BE72046FEF716FE00F01FFA0020EB
:104C9000B7E72DE9F0470646894615461F463446D4
:104CA000FBF78EFA8246A06BE16B884201D3022F9C
:104CB00020D13A4649462046FEF744FB10B10DB1DB
:104CC00001202860A06C401C70B9606A08B90120FE
:104CD00000E0002058B904F1240000F0B7F930B129
:104CE0002DB10120286002E0A06C401CA0644FF0B0
:104CF000010801E04FF000085046FBF768FA404613
:104D0000BDE8F08770B504460D46FEF7F9FE12487F
:104D100002682868401C08B9002619E00F4920687D
:104D20000968884204D06068904201D801260FE0EB
:104D30006068101A2968884209D228686168511A87
:104D4000401A28602046FFF76DF8002600E0012693
:104D5000FEF7E6FE304670BD34000020480000201B
:104D60002DE9FF4F81B0804615469946DDE90E7A60
:104D700028461099FEF74CFA0446002C52D0681EC3
:104D8000216B01EB800B2BF0070B00953A46204678
:104D9000119B0299FEF782FB4A4641465846FEF7B0
:104DA00037FE2060BAF1000F01D0CAF80040FEF7CC
:104DB000A7FE25480068401C234908602348006876
:104DC00040B9224804600846006801280CD1FEF76B
:104DD00093FB09E01E48006830B91C480068C06AAF
:104DE000B84201D8194804601A480068401C1949A3
:104DF000086008460068606494F82C100120884020
:104E000015490968084314490860E16A01EB81010A
:104E1000124A02EB8100211DFEF766FE0126FEF715
:104E20007FFE01E04FF0FF36012E09D108480068EF
:104E300030B106480068C06AB84201D2FEF7B4FE3D
:104E4000304605B0BDE8F08F300000202000002083
:104E50003C0000204C00002038000020E000002032
:104E600001490868704700002000002005490968D2
:104E700009B9012005E00449096809B9022000E0E8
:104E8000002070473C0000205400002010B5FEF7C1
:104E900037FE03480468FEF743FE204610BD0000BD
:104EA000340000202DE9F04100273E48006800282A
:104EB0006AD13D480068401C3B49086008460668C6
:104EC0008EB93A48D0F80080394800683749086000
:104ED0003748C0F8008037480068401C35490860F2
:104EE000FEF766FC00BF3448006886423BD300BF33
:104EF0002E480068006808B9012000E0002020B1B9
:104F00004FF0FF302C4908602CE028480068C0684A
:104F1000C4686568AE4202D22748056022E0201DC1
:104F2000FEF786FDA06A18B104F11800FEF780FDB7
:104F300094F82C10012088402049096808431F4933
:104F40000860E16A01EB81011D4A02EB8100211D2D
:104F5000FEF7CAFD1B49E06A0968C96A8842C7D3DF
:104F60000127C5E700BF17480068C06A00EB800052
:104F7000134951F82000012800D901271248006880
:104F800048B9FEF772FD06E00F480068401C0E4964
:104F90000860FEF76AFD0D48006800B10127384639
:104FA000BDE8F081540000203400002024000020DF
:104FB0002800002048000020500000203800002079
:104FC000E0000020200000204000002044000020DD
:104FD00070B505462C46002695B3E16CE06A884220
:104FE0002ED0206D60BB201DFEF722FD78B9E06A4F
:104FF00000EB8000134951F8200040B994F82C10C0
:10500000012088401049096881430F480160E06C25
:10501000E062E06AC0F10500A06194F82C10012064
:10502000884009490968084307490860E16A01EBBB
:105030008101044A02EB8100211DFEF755FD012686
:10504000304670BDE00000203800002070B50646F4
:10505000F068C46804F11800FEF7EAFC154800681F
:10506000A8B9201DFEF7E4FC94F82C10012088401C
:1050700011490968084310490860E16A01EB8101A0
:105080000E4A02EB8100211DFEF72EFD04E004F123
:1050900018010B48FEF728FD0A49E06A0968C96A49
:1050A000884204D9012501200749086000E0002555
:1050B000284670BD5400002038000020E000002089
:1050C0006C010020200000204400002070B5002565
:1050D000FEF716FD2C480068401E2B490860084664
:1050E000006800284BD129480068002847D024E0F8
:1050F0002748C068C46804F11800FEF799FC201D19
:10510000FEF796FC94F82C1001208840214909688C
:10511000084320490860E16A01EB81011E4A02EB65
:105120008100211DFEF7E0FC1C49E06A0968C96A9C
:10513000884202D301201A4908601548006808B95E
:10514000012000E000200028D2D01648006878B185
:105150000AE0FFF7A7FE10B10120114908601148CD
:105160000068401E0F4908600E4800680028F0D112
:105170000B480068012802D10125FEF715FDFEF756
:10518000CFFC284670BD00005400002030000020F5
:105190006C01002038000020E000002020000020EA
:1051A00044000020400000202DE9F04706460D464F
:1051B00017469846DDF820900DB9002410E02C2009
:1051C000FEF7B8FB04465CB1FEF740F82660A56127
:1051D000E761C4F82080C4F82490201DFEF767FC26
:1051E0002046BDE8F08700001FB50024FEF72EF82A
:1051F0000948006860B100200423CDE90030029026
:105200000346462205A103900648FFF7A9FD044680
:10521000204604B010BD000060000020546D7220D4
:10522000537663009D3800082DE9FE4305460C4681
:1052300016461F46DDF828804FF000091448006824
:1052400010B3009401960295062C15DAFFF70EFEB6
:10525000022808D10023424669460D480068FFF73E
:10526000A3FC814610E000231A46694608480068FE
:10527000FFF79AFC814607E000233A466946044856
:105280000068FFF706FD81464846BDE8FE83000042
:105290006000002070B504462646FEF731FC7069B8
:1052A00008B9012000E0002080F00105FEF738FC7D
:1052B000284670BDA5A5A5A5A5A5A5A5A5A5A5A597
:1052C000A5A5A5A5A5A5A5A53B3A41403E3C3D37D2
:1052D000454443423839344B4A49483547314F4EAB
:1052E0004D4C3233302F55545351525B5A59585705
:1052F0005C560000C8520008CF520008D652000881
:10530000DD520008E4520008EB52000801010101DF
:105310000101000001010000000001010001010085
:105320000101010101000001000101000001010172
:105330000001010001010100010101010101010160
:105340000000000001010101010101010101010052
:105350000101000000000000000000000C530008E4
:10536000135300081A53000821530008285300085B
:105370002F530008365300083D53000844530008DB
:105380004B53000852530008F10FF80106F0002DAE
:10539000A8A3FF000101010F0F010101000000009F
:1053A00000000000000000000101010101010101F5
:1053B00000000000000000000000000070507003BA
:1053C0000F3CF00000007FFFE0C0C0E0FF7F000066
:1053D000003070FFFF00000000003870E0C0C0E146
:1053E0007F3F00003060C0C1C1713F1E0000070F49
:1053F0001C3870E0C0000000FFFFC3C3C3C3C3C1BB
:1054000000007FFFC1C1C1C1C1600000C0C0C0C1F8
:10541000C3C6FCF800007CFFC3C3C3C3FF7C00000D
:105420007FFFC1C1C1C1FF7F0000FFFF010101017A
:10543000FFFF00001F3F79E1E1793F1F0000C0C07E
:10544000C0FFFFC0C0C00000FFFFC3C3C3C3FF7ED7
:105450000000F0FC0E03030EFCF00000FFFF000054
:10546000000000000000FFFF781F0300FFFF0000A6
:10547000808080F0F0808080000000000D0E000031
:10548000000000008080808080808080000000001C
:1054900006060000000000001E78E0801C141C00BE
:1054A0000000FCFE0E06060EFEFC0000000606FED6
:1054B000FE06060000000E1E3E76E6C686060000CA
:1054C000180C0686868CFC780000F8F83838FEFE4A
:1054D000383800000C0606060606FEFC0000FCFE3E
:1054E00086868686FEFC00000000FEFE00000000AE
:1054F0000000FCFE06060606FEFC00000C86868602
:105500008686FEFC0000FEFE80808080FEFE00009D
:10551000FEFE80808080FEFE0000000000FEFE0097
:1055200000000000FEFE06060606FEFC000000006D
:1055300000FEFE0000000000FEFE060606060E0E3F
:105540000000FEFE0000E078FEFE0000000000000B
:10555000000000005F000000000300030000143E94
:10556000143E1400242A7F2A120043330866610087
:10557000364955225000000503000000001C22415E
:1055800000000041221C000014083E081400080816
:105590003E08080000503000000008080808080015
:1055A0000060600000002010080402003E514945E0
:1055B0003E0004027F000000426151494600224142
:1055C000494936001814127F100027454545390017
:1055D0003E494949320001017109070036494949EC
:1055E0003600264949493E00003636000000005684
:1055F0003600000008142241000014141414140092
:1056000000412214080002015109060000060909A0
:1056100006007E0909097E007F49494936003E415E
:10562000414122007F4141413E007F4949494100BB
:105630007F09090901003E4141493A007F080808F5
:105640007F0000417F410000304040403F007F0824
:10565000142241007F40404040007F020C027F0046
:105660007F0204087F003E4141413E007F09090955
:1056700006001E2121215E007F09090976002649C6
:105680004949320001017F0101003F4040403F0095
:105690001F2040201F007F2010207F00631408146B
:1056A0006300070870080700615149454300007F07
:1056B000410000000204081020000000417F0000AB
:1056C0000006090906004040404040000001020475
:1056D00000002054545478007F4444443800384437
:1056E00044444400384444447F003854545418001F
:1056F00004047E050500085454543C007F0804044B
:10570000780000447D4000002040443D00007F10B0
:105710002844000000417F4000007C0478047800A9
:105720007C08040478003844444438007C14141481
:105730000800081414147C00007C08040400485479
:105740005454200004043F4444003C4040207C006A
:105750001C2040201C003C4030403C0044281028C5
:1057600044000C5050503C004464544C4400000829
:105770003641410000007F00000041413608000032
:105780000201020402003048C848000010AAAAA87A
:10579000700000007C000000384544453800585433
:1057A000D45430003841404138003E41C1412200CC
:1057B0003C435353340000007D0000003C4342430F
:1057C0003C002649C94932003C4140413C000000B0
:1057D00011150A0010387CFE38383838FE7C381035
:1057E0000824922408003E4888483E00FE92926CAD
:1057F00000007C8282824400788486844800FE8295
:1058000082443800FE9292929200FE909090800026
:105810007C8292925C001CA2AAAA0C00FE101010BE
:10582000FE000082FE8200000022BE2200000C0268
:1058300082FC8000FE102844820002FE82020200E8
:10584000FE403040FE00FE60100CFE007C82828232
:105850007C001CA222A21C00FE9090600000FE9022
:1058600098946200649292924C00649296924C00DA
:10587000C082FE828000FC020202FC003C820282A6
:105880003C00F00C020CF000C0201E20C000868AF4
:1058900092A2C2000000FA0000007C8A92A27C0062
:1058A0000042FE020000468A92620000004492928A
:1058B0006C0018284AFE0A00E49292920C007C9236
:1058C00092920C00C08E90A0C0006C9292926C00DC
:1058D000649292927C0000000000000000004800EA
:1058E0000000408A9060000000000A0C0000020CDA
:1058F000106080000006060000001E203C201E00F4
:10590000C6281028C6007884948C7A00F8041E04F7
:10591000F80030303030300064683058980010386B
:105920007CFE38383838383838383838FE7C38100B
:1059300000204892482010307FFF7F301000000088
:10594000000000F090F000005C9292927C00000257
:1059500000000000C020FC20C00000007C590008AE
:1059600000000020B80000009C260008345A0008FF
:10597000B800002038750000AC26000840420F0037
:10598000030406080C10182030000000000000007E
:1059900000010203040607080900000000000000DF
:1059A00000000000000000000000000000000000F7
:1059B00000000000000000000000000000000000E7
:1059C000000000000000000000000000FFFFFFFFDB
:1059D00000000000000000000000000000000000C7
:1059E00000000000AAAAAAAA00000000000000000F
:1059F00000000000000000000000000000000000A7
:105A00000000000000000000000000000000000096
:105A10000000000000000000000000000000000086
:105A20000000000000000000000000000000000076
:045A3000040000006E
:0400000508000125C9
:00000001FF
