:020000040800F2
:10000000D8810020655D0008A15E0008815A0008C3
:10001000955A0008975A0008995A000800000000F5
:100020000000000000000000000000002B3D000860
:100030009B5A000800000000D93C0008893B0008DA
:10004000C55E0008C95E0008CD5E00089D5A000824
:10005000D55E0008D95E0008A9590008E15E0008D5
:10006000C1590008E95E0008ED5E0008F15E000875
:10007000F55E0008F95E0008FD5E0008015F0008FB
:10008000055F0008095F00080D5F0008115F0008A8
:10009000155F0008195F00081D5F00082D5A000851
:1000A000255F0008295F00082D5F0008315F000808
:1000B000355F0008395F00083D5F0008415F0008B8
:1000C000455F0008495F00084D5F0008515F000868
:1000D000555F0008595F00085D5F0008615F000818
:1000E000655F0008695F00086D5F0008715F0008C8
:1000F000755F0008795F0008D9590008815F000822
:10010000855F0008895F00088D5F0008915F000827
:10011000955F0008995F00089D5F0008A15F0008D7
:10012000A55F0008B121484301E000BF00BF010006
:10013000481E0029F9D1704710B5040003E04FF4C0
:100140007A70FFF7EFFF2000441EC0B20028F6D1FE
:1001500010BD00B585B045F2555000F0D7FD062022
:1001600000F0D8FD4FF4A87000F0D8FD00F0DAFDE3
:1001700000F0DDFDDFF8B80A002101705D2000F01D
:100180004DFE002803D0DFF8A80A012101700120EC
:1001900080F3108800F076FE01F008F901F003FA10
:1001A000DFF88C0A0078002816D1DFF8880A0121D0
:1001B0000180DFF8842A0021022001F062FBDFF8D1
:1001C0007C2A0021032001F0E7FA00F0ABFD0220B9
:1001D000FFF7B2FF00F0A6FDDFF8642A002102203D
:1001E00001F066FADFF85C2A0021032001F060FAD2
:1001F000012001F047FCDFF8501A086003220021BB
:10020000012001F017FCDFF8441A0860DFF83C0A0F
:100210000068002807D0002300220021DFF82C0A04
:10022000006801F05FFC03220021012001F002FCC4
:10023000DFF81C1A0860DFF8180A0068002807D0E9
:10024000002300220021DFF8080A006801F04AFCC0
:1002500003220021012001F0EDFBDFF8F81908600E
:10026000DFF8F0090068002807D0002300220021F1
:10027000DFF8E009006801F035FC032200210120CD
:1002800001F0D8FBDFF8D0190860DFF8CC0900686E
:10029000002807D0002300220021DFF8BC090068F5
:1002A00001F020FC0FF2F5700090002301224FF4C2
:1002B000FA71DFF8A80901F05AFEDFF8A419086006
:1002C0000020039000200290002001900120009067
:1002D00000234FF42F72DFF88C190FF2151001F084
:1002E000F9FF0020039000200290002001900120DF
:1002F000009000234FF42F72DFF86C190FF2815039
:1003000001F0E8FF002003900020029000200190FF
:100310000120009000234FF42F72DFF850190FF2E4
:10032000316001F0D7FF00200390002002900020F0
:1003300001900120009000234FF42F72DFF8301954
:100340000FF2496001F0C6FF0020039000200290E8
:10035000002001900120009000234FF42F72DFF85D
:1003600014190FF6990001F0B5FF0020039000204A
:100370000290002001900120009000234FF42F7282
:100380001AA10FF2C17001F0A5FF0222DFF8E818F0
:10039000002002F067FCDFF8E408DFF8DC180978D9
:1003A0000160DFF8D8080068DFF8CC18497850EA17
:1003B0000120DFF8C81808600122DFF8C418022005
:1003C00002F050FC0122DFF8BC18032002F04AFCC6
:1003D0000422DFF8B418042002F044FCDFF8AC0873
:1003E0000121017002F02DF8FEE700005254430095
:1003F00038B5FFE7322001F0FAFFDFF89418DFF894
:10040000940802F0C9FD002840F02281DFF884083A
:100410000068DFF8841802F0F1FD01D8012200E045
:100420000022DFF870080068DFF8701802F0F8FDAD
:1004300001D2012300E00023DFF854080068DFF850
:10044000581802F0DBFD01D8012000E00020D2B2F4
:10045000DBB253EA0201C0B208430028CAD1DFF878
:100460001C08006802F0EEFDDFF83428DFF83438AD
:1004700002F0F6FD02F0CAFEDFF82C180860DFF883
:100480002808006802F00AFF02000B0014001D009B
:10049000DFF80008006802F001FF0022DFF80C38E6
:1004A00002F024FF22002B0002F094FF08D8DFF8AE
:1004B000000800210170DFF8D007002101607EE014
:1004C000DFF8D007006802F0E9FE0022DFF8E43729
:1004D00002F00CFF02000B0014001D00DFF8C8073B
:1004E000006802F0DBFE22002B0002F073FF08D848
:1004F000DFF8BC0763210170DFF88C070021016081
:100500005DE0DFF8A4070068DFF88817096802F0EB
:1005100079FFDFF87417096802F0E8FFDFF8681761
:100520000860DFF88407006802F0B8FE0022DFF8F8
:10053000843702F0DBFE04000D00DFF85807006886
:1005400002F0ACFE02000B002000290003F010F8BE
:1005500004000D00DFF83007006802F09FFEDFF8AE
:100560005827DFF8583702F07BFD22002B0002F0FD
:10057000BDFE02F04BFEDFF830170860DFF82807F9
:100580000068002102F04CFD04D2DFF824070021AE
:1005900001700BE0DFF810070168DFF8240703F0B3
:1005A000A7F803F011F9DFF808170870DFF8000763
:1005B0000078642803DBDFF8F8066321017000236C
:1005C0005FF0FF320021DFF88006006801F032FBA7
:1005D000DFF8C006006802F061FE02000B00DFF8E1
:1005E000E416DFF8940603F011F9DFF88C260421F5
:1005F000022001F05DF8DFF89806006802F04EFE78
:1006000002000B00DFF8C016DFF86C0603F0FEF8FE
:10061000DFF864260621032001F04AF8DFF890068F
:100620000278DFF8A816DFF8500603F0EFF8DFF8DD
:1006300048260021012001F03BF800230022002180
:10064000DFF80406006801F04DFA00F06BFBD1E61C
:10065000DFF83C16DFF83C0603F05EF9002840F0B6
:10066000ED80DFF81806006802F0ECFCDFF83026B9
:10067000DFF8303602F0F4FC02F0C8FDDFF828168F
:100680000860DFF82406006802F008FE02000B0094
:1006900014001D00DFF8FC05006802F0FFFD0022D9
:1006A000DFF8083602F022FE22002B0002F092FE54
:1006B00008D8DFF8FC0500210170DFF8CC05002127
:1006C000016072E0DFF8CC05006802F0E7FD00226F
:1006D000DFF8E03502F00AFE02000B0014001D00F6
:1006E000DFF8C405006802F0D9FD22002B0002F0FB
:1006F00071FE08D8DFF8B80563210170DFF88805BE
:100700000021016051E0DFF8A0050068DFF88415E2
:10071000096802F077FEDFF87015096802F0E6FE5E
:10072000DFF864150860DFF88005006802F0B6FDA8
:100730000022DFF8803502F0D9FD04000D00DFF85B
:100740005405006802F0AAFD02000B0020002900F9
:1007500002F00EFF04000D00DFF82C05006802F027
:100760009DFDDFF85425DFF8543502F079FC2200B6
:100770002B0002F0BBFD02F049FDDFF82C150860EC
:10078000DFF824050168DFF8380502F0B1FF03F057
:100790001BF8DFF81C150870DFF8140500786428D2
:1007A00003DBDFF80C056321017000235FF0FF32EB
:1007B0000021DFF89404006801F03CFADFF8D4046B
:1007C000006802F06BFD02000B00DFF8F814DFF8A0
:1007D000A80403F01BF8DFF8A0240421022000F095
:1007E00067FFDFF8AC04006802F058FD02000B0060
:1007F000DFF8D414DFF8800403F008F8DFF8782479
:100800000621032000F054FFDFF8A4040278DFF88B
:10081000BC14DFF8640402F0F9FFDFF85C24002167
:10082000012000F045FF002300220021DFF818041A
:10083000006801F057F900F075FADBE500235FF07E
:10084000FF320021DFF80004006801F0F3F9DFF85F
:10085000600432210170DFF878240421022000F0C6
:1008600027FF8DA20621032000F022FF0023002293
:100870000021DFF8D403006801F034F9BAE5000084
:1008800080B5FFE700235FF0FF320021DFF8BC03F3
:10089000006801F0CFF9DFF8980300780028F1D163
:1008A00000235FF0FF320021DFF89C03006801F0B5
:1008B000C1F9DFF8D8030078002820D0DFF814242D
:1008C0000921022000F0DDFFDFF8B00300680A21F3
:1008D000B0FBF1F201FB1203DFF8A00300680A216C
:1008E000B0FBF1F2DFF8F013DFF88C0302F08EFFBB
:1008F000DFF884230921032000F04EFF1FE0DFF81A
:10090000D4230921022000F0D3FEDFF87003006831
:100910000A21B0FBF1F201FB1203DFF8600300686B
:100920000A21B0FBF1F2DFF8B013DFF84C0302F05C
:100930006DFFDFF844230921032000F0B9FE0023F6
:1009400000220021C048006801F0CCF89AE70000BE
:1009500080B5FFE700235FF0FF320021BB4800684D
:1009600001F068F9B24800780028F3D1B1480121BC
:10097000018001F000FE02005FF0FF3000900023D4
:100980000121B748006801F019FBE3E780B534E0C6
:1009900003F0DFF80222B949002002F07EF903F0EB
:1009A000E5F80021CD4803F059F9CA4A092102208F
:1009B00000F07EFEB14800680A21B0FBF1F201FBB5
:1009C0001203AE4800680A21B0FBF1F2C249AA48FE
:1009D00002F01CFFA84A0921032000F069FE002351
:1009E000002200219848006801F07CF800230022D2
:1009F00000219848006801F075F800235FF0FF328D
:100A000000219348006801F015F9052001F0EFFC82
:100A100087480078002802D186480121018001F032
:100A2000AAFD5FF0FF3100910023020001218C48F4
:100A3000006801F0C3FA9548007890F001009349EE
:100A4000087000235FF0FF3200217F48006801F04A
:100A5000F1F88E48007800289AD001219F4803F0D1
:100A6000FDF89C4A0921022000F00BFF8348006832
:100A70000A21B0FBF1F201FB1203804800680A2151
:100A8000B0FBF1F294497C4802F0C0FE7A4A092199
:100A9000032000F081FEA2E75858000080B590487E
:100AA000012101805FF0FF3000900023002203212C
:100AB0006B48006801F082FA74480021017000213F
:100AC000864803F0CBF887480088C00725D46C48D7
:100AD000002101706B4800210170834800210180D2
:100AE00003F037F801226649022002F0D6F801220D
:100AF0006449032002F0D1F803F038F80023002203
:100B000000215448006800F0EDFF0023002200217E
:100B10005148006800F0E6FF13E05C4800780028C8
:100B200008D003F016F802225449002002F0B5F86C
:100B300003F01CF80023002200214448006800F064
:100B4000D1FF01BD80B519E000235FF0FF32002125
:100B50003D48006801F06EF849480378494802783A
:100B60006249454802F052FE434800F000FF00236E
:100B7000002200213448006800F0B4FF00235FF039
:100B8000FF3200213448006801F054F856480088CC
:100B9000401C5549088054480088022802D1244846
:100BA0000021017050480088B0F5616FCCDB4E48E1
:100BB0000021018032480078401C314908703048DB
:100BC0000078182807DB2E48002101702D48007896
:100BD000401C2C49087002F0BCFF01222849022069
:100BE00002F05BF801222749032002F056F80422A4
:100BF0002549042002F051F8FEE7000080B5FFE728
:100C000000235FF0FF3200211248006801F012F863
:100C1000074800780028F3D135484FF4006101807F
:100C2000052001F0E4FB33484FF400610180E7E761
:100C3000CF7100201A040240F45C0008045D000833
:100C4000145D0008245D000870710020747100209C
:100C5000787100207C71002080710020745D000894
:100C600084710020805D0008345D0008445D000848
:100C70008C5D0008B05D00089C70002024040040DA
:100C8000D0710020D17100206C710020CE71002045
:100C900064710020607100200100C642000020C184
:100CA0009A9999999999B93F687100200000E0BF1D
:100CB000D27100200000E03F7B14AE47E17A843F10
:100CC0000000C842B85D0008C05D0008C85D0008AB
:100CD000D05D0008D85D0008E05D00080004004019
:100CE0001804024010000240CC710020545D00083E
:100CF0001A0002401800024080B503F00CF8FEE72D
:100D0000704780B503F007F8FEE770470A4980B2E4
:100D1000086070470949C0B208607047084980B24E
:100D20000860704704484AF6AA21016070470248EB
:100D30004CF6CC4101607047003000400430004068
:100D400008300040DFF8141100220A70DFF80C119F
:100D500008707047DFF80811C0B208607047DFF80C
:100D60000411C0B208607047DFF8FC10C0B2086020
:100D70007047002110F44032B2F5403F08D13649A7
:100D8000096831F0C04110F0C0421143324A11608D
:100D90003649096831F44031344A116033490968F1
:100DA00010F4403008433149086070473049C0B200
:100DB000086070472F49C0B208607047C9B2002967
:100DC00005D02D49096808432B49086005E02A49E8
:100DD000096831EA0000284908607047C9B2002953
:100DE00005D02649096808432449086005E02349DD
:100DF000096831EA0000214908607047C9B200293A
:100E000005D01F49096808431D49086005E01C49D1
:100E1000096831EA00001A490860704710B40022DE
:100E200000230021C0B24409E4B22200012A02D109
:100E300009490B6801E00D490B68C0B210F01F02B0
:100E400033FA02F0C00701D5012100E000210800BB
:100E5000C0B210BC70470000003802403538024074
:100E60008006474270004742AC0647423438024091
:100E7000D8064742DC0647421C3802402038024070
:100E80002438024030B589B0002444F620650121A1
:100E90005FF08050FFF7B2FF012002F067FF0120F2
:100EA000FFF788FF0020FFF785FF0120FFF74AFFCB
:100EB0004920FFF7B3FF002802D16D1E002DF7D1A6
:100EC000002D10D10020FFF73DFF0120FFF742FF6A
:100ED0004120FFF7A3FF0028FAD05FF40030FFF7AE
:100EE00048FF012403E05FF48030FFF742FF012058
:100EF000FFF75CFF0120FFF732FF0120FFF734FF0F
:100F000002F040FF002002F06FFFE4B2002C04D09A
:100F100040F61F1002F084FF03E04FF4006002F07F
:100F20007FFF01214FF4804002F0D0FF012002F04A
:100F300087FF0121072003F00DF8012002F01AFFBE
:100F40000121FF20FFF73AFF03208DF80400002065
:100F50008DF8050000208DF807004FF6FF70009017
:100F600000A9DFF8D80303F007F800A9DFF8D003E1
:100F700003F002F800A9DFF8CC0302F0FDFF00A99E
:100F8000DFF8C40302F0F8FF00A9DFF8C00302F0A5
:100F9000F3FF00A9DFF8B80302F0EEFF00A9DFF8C5
:100FA000B40302F0E9FF49F6FF70009000A9EA4897
:100FB00002F0E2FF0021F820FFF700FF012000907F
:100FC00001208DF8040000208DF8060000208DF827
:100FD000070003208DF8050000A9DD4802F0CCFFD2
:100FE0004FF40060009001208DF8040000208DF87F
:100FF000060000208DF8070003208DF8050000A9E9
:10100000D54802F0B9FF4FF48050009001208DF8D0
:10101000040000208DF8060000208DF80700032052
:101020008DF8050000A9CC4802F0A6FF4FF48070AF
:10103000009001208DF8040000208DF806000020AB
:101040008DF8070003208DF8050000A9C24802F0C2
:1010500093FF46F20700009001208DF80400002065
:101060008DF8060000208DF8070003208DF805009C
:1010700000A9B74802F080FF4FF480700090012073
:101080008DF8040001208DF8060000208DF807007F
:1010900003208DF8050000A9AD4802F06DFF4FF464
:1010A0000070009001208DF8040001208DF80600EA
:1010B00000208DF8070003208DF8050000A9A44842
:1010C00002F05AFF8020009000208DF804000020DC
:1010D0008DF8070003208DF8050000A99C4802F058
:1010E0004BFF1020009002208DF8040003208DF8A3
:1010F000050001208DF8070000A9964802F03CFF8A
:101100002020009002208DF8040003208DF80500B7
:1011100001208DF8070000A98E4802F02DFF012064
:10112000009000208DF8040001208DF807000320B6
:101130008DF8050000A9884802F01EFF04200090E9
:1011400000208DF8040000208DF8070003208DF8A2
:10115000050000A9804802F00FFF80484FF40061AD
:1011600001807E484FF4805101807D48012101803B
:101170007A484FF4807101807A484FF48071018081
:1011800078484FF40071018001210120FFF726FE0D
:101190000021002002F07AFF0221002002F076FFF9
:1011A0000721022002F072FF6F48039000208DF8A3
:1011B00010000C208DF8110001208DF8120003A8FA
:1011C00002F08EFF5FF48010039000208DF8100075
:1011D00008208DF8110001208DF8120003A802F0FC
:1011E0007FFF0420039000208DF8100010208DF860
:1011F000110001208DF8120003A802F071FF0120F8
:1012000002F0B2FF042002F0AFFF802002F0ACFF3A
:1012100006208DF8080001208DF8090001208DF8C6
:101220000A0001208DF80B0002A802F0ABFF082095
:101230008DF8080002208DF8090002208DF80A00C0
:1012400001208DF80B0002A802F09CFF17208DF8FA
:10125000080003208DF8090003208DF80A00012002
:101260008DF80B0002A802F08DFF03208DF8080016
:1012700000208DF8090000208DF80A0001208DF86B
:101280000B0002A802F07EFF01210220FFF7B6FD4D
:10129000022204212F4802F0D0FE022205212D480F
:1012A00002F0CBFE0020ADF814000020ADF81C00C9
:1012B0004FF4167006900020ADF8160005A92B48D3
:1012C00002F08CFC0121294802F0BAFC0223022220
:1012D0000221264802F0E0FC01210820FFF78EFDE4
:1012E0005520ADF814000020ADF81C0064200690D5
:1012F0000020ADF8160005A91D4802F06FFC012181
:101300001B4802F09DFC2E208DF8080004208DF86B
:10131000090004208DF80A0001208DF80B0002A8B6
:1013200002F030FF01220121114802F0A5FC00214A
:101330000F4802F093FC09B030BD00BF001C024012
:10134000001402400018024000100240000C02404D
:101350000008024000040240000002401800024061
:1013600018040240180802408100100000040040E8
:10137000000C004030B583B004000D0010000121C6
:1013800080B2FFF71BFDADB2009501208DF804007F
:1013900000208DF8060000208DF8070001208DF850
:1013A000050000A9200002F0E7FD37BD80B502224C
:1013B0000421DFF8FC05FFF7DDFF02224FF4804136
:1013C000DFF8EC05FFF7D6FF02220221DFF8E00587
:1013D000FFF7D0FF02224FF40051DFF8D405FFF7EA
:1013E000C9FF04222021DFF8CC05FFF7C3FF02224A
:1013F0000121DFF8BC05FFF7BDFF02220221DFF863
:10140000B005FFF7B7FF4FF40051DFF8A40502F075
:1014100010FE2021DFF89C0502F00BFE0121DFF811
:10142000900502F006FE01BD70B504008026022181
:10143000DFF87C0502F0FFFD00250DE04FF4804150
:10144000DFF86C0502F0F7FD0421DFF8640502F017
:10145000F0FDF6B276086D1CEDB2082D12DA04210B
:10146000DFF84C0502F0E7FDE4B2F6B216EA04003C
:10147000F6B2B042E2D14FF48041DFF8340502F019
:10148000D8FDE1E770BDF8B504000D008027E4B297
:10149000012C00D101270221DFF8140502F0C9FD5B
:1014A000002602E0FFB27F08761CF6B2082E22DA90
:1014B0000421DFF8FC0402F0BEFDEDB2FFB217EA32
:1014C0000500FFB2B84206D14FF48041DFF8E004D6
:1014D00002F0AFFD05E04FF48041DFF8D40402F0E4
:1014E000AAFD0421DFF8C80402F0A3FDE4B2012C38
:1014F000D8D17F00D8E7F1BD38B504000D00B82081
:10150000FFF792FF14F00F00FFF78EFF14F0F004C6
:10151000E4B2240954F010042000C0B2FFF784FFA5
:101520002900C9B20020FFF7AEFF31BD70B504003D
:101530000D0016004FF40051DFF8740402F06EFD48
:10154000002825D12000C0B2FFF76EFF15F00F0074
:10155000C0B2FFF769FF15F0F000C0B2102190FB98
:10156000F1F050F0100010F01F00C0B2FFF75CFF68
:1015700000210120FFF787FF6D1CEDB2102D03D174
:10158000E4B2B82C00D12F25EDB2F6B2B542DDD3CE
:1015900070BD10B504008120FFF746FF2000C0B2E7
:1015A000FFF742FF10BD38B5DFF80C4400254FF4BB
:1015B0000051DFF8FC0302F03EFD2021DFF8F403C8
:1015C00002F039FD6D1E2800C0B20028FAD120219A
:1015D000DFF8E00302F02DFD6D1E2800C0B20028E8
:1015E000FAD12078FFF720FF641C2078FF28F8D17B
:1015F0000820FFF7CEFF6D1E2800C0B20028FAD1E8
:10160000AF20FFF711FF60220021B020FFF78EFF0F
:1016100060221021B120FFF789FF60220B21B82042
:10162000FFF784FF31BD0021C0B2C7282AD0D028DF
:101630002AD0D6282CD0DC282ED0DD2826D0DE28B3
:1016400028D0DF282AD0E0282AD0E1282AD0E22892
:101650002AD0E7280AD0F0280AD0F6280CD0FC2897
:101660000ED0FD2806D0FE2808D01EE07F211CE009
:1016700080211AE0812118E0822116E0832114E004
:10168000842112E0852110E086210EE087210CE004
:1016900088210AE0892108E08A2106E08B2104E004
:1016A0008C2102E08D2100E08E210800C0B270473D
:1016B0002DE9F8430F0014005FF0000800255FF0EB
:1016C00000090026C0B2012808D10125B020FFF78B
:1016D000ABFE062000FB07F909261AE0C0B202287B
:1016E0000AD10025B020FFF79FFEFFB2062000FBC5
:1016F00007F010F110090CE0C0B2032809D1002551
:10170000B120FFF791FEFFB2062000FB07F010F1B9
:10171000100919F00F00C0B2FFF786FE19F0F000B3
:10172000C0B2000950F01000C0B2FFF77DFE0021EA
:101730002800C0B2FFF7A7FE207800282AD0761C28
:101740002778641CFFB2002F00D12027FFB27F2F23
:1017500004DB3800C0B2FFF766FF0700203F5FF0F0
:1017600000080FE05FFA88F8FFB20620DFF84C129D
:1017700000FB071018F800102800C0B2FFF783FE26
:1017800018F101085FFA88F8B8F1060FEADBF6B243
:101790000D2ED1DBBDE8F1832DE9F8430F001400D5
:1017A0005FF0000800255FF000090026C0B20128A4
:1017B00008D10125B020FFF737FE062000FB07F90E
:1017C00009261AE0C0B202280AD10025B020FFF78E
:1017D0002BFEFFB2062000FB07F010F110090CE011
:1017E000C0B2032809D10025B120FFF71DFEFFB2CA
:1017F000062000FB07F010F1100919F00F00C0B22D
:10180000FFF712FE19F0F000C0B2000950F010000E
:10181000C0B2FFF709FEFF212800C0B2FFF733FE78
:10182000207800282BD0761C2778641CFFB2002F6C
:1018300000D12027FFB27F2F04DB3800C0B2FFF7B2
:10184000F2FE0700203F5FF0000810E05FFA88F822
:10185000FFB20620594900FB071018F80000C143E9
:10186000C9B22800C0B2FFF70EFE18F101085FFAF6
:1018700088F8B8F1060FE9DBF6B20D2ED0DBBDE833
:10188000F1832DE9F8430F0014005FF000080025F4
:101890005FF000090026C0B2012808D10125B02060
:1018A000FFF7C2FD062000FB07F909261AE0C0B2C7
:1018B00002280AD10025B020FFF7B6FDFFB20620AE
:1018C00000FB07F010F110090CE0C0B2032809D1A9
:1018D0000025B120FFF7A8FDFFB2062000FB07F0AE
:1018E00010F1100919F00F00C0B2FFF79DFD19F0BB
:1018F000F000C0B2000950F01000C0B2FFF794FD34
:1019000080212800C0B2FFF7BEFD207800282CD02F
:10191000761C2778641CFFB2002F00D12027FFB26D
:101920007F2F04DB3800C0B2FFF77DFE0700203FA9
:101930005FF0000811E05FFA88F8FFB206201F4947
:1019400000FB071018F8000050F08001C9B2280011
:10195000C0B2FFF798FD18F101085FFA88F8B8F1F6
:10196000060FE8DBF6B20D2ECFDBBDE8F18370B5D4
:101970000400002515E0F6B22078124911EB800032
:1019800050F8C00C315CF6B2EDB20D4850F82500AD
:10199000305CFFF7B1FD761CF6B2072EEBDB641C62
:1019A0006D1CEDB2062D01DA0026F5E770BD0000D2
:1019B0000004024000080240985D00080C5700082F
:1019C000885C0008105C000838B505000C0002F0C7
:1019D000C0F8E86B296C2A6801FB002068600020D1
:1019E000A8632868A860E86B401E296C2A6801FB80
:1019F0000020E8605FF0FF3068645FF0FF30A864AB
:101A0000002C0BD12869002810D015F1100000F02F
:101A1000EEFE01280AD102F093F807E015F110005C
:101A200002F0ECFB15F1240002F0E8FB02F09EF856
:101A3000012032BD2DE9F04104000D0016005FF0D9
:101A40000008002C1BD0542002F024FC0700002FBB
:101A500015D005FB04F0401C02F01CFC386038680F
:101A6000002809D0FC633D6401213800FFF7ACFF7A
:101A700087F85060B84602E0380002F070FC40463B
:101A8000BDE8F08138B50400542002F003FC0500E5
:101A9000002D25D000206860002028600020A8606C
:101AA0000020E8600020A8630120E863002028648B
:101AB0005FF0FF3068645FF0FF30A86485F8504045
:101AC00015F1100002F09AFB15F1240002F096FBCC
:101AD00001F091F8002300220021280000F002F814
:101AE000280032BDF7B504000D001E00002704E0F9
:101AF000200000F083F900F0D2FC02F02AF8A06B7D
:101B0000E16B884201D3022E18D132002900200057
:101B100000F019F9616A002908D014F1240000F0DE
:101B200066FE012806D102F00BF803E0002801D080
:101B300002F006F802F01AF8012041E002980028AD
:101B400003D102F013F800203AE0002F03D100A8DF
:101B500000F083FE012702F009F800F098FC01F084
:101B6000F8FF606C10F1010F01D100206064A06CDF
:101B700010F1010F01D10020A06401F0F7FF02A9CC
:101B800000A800F072FE002813D1200000F079F9BF
:101B90000028ADD0029914F1100000F0D9FD20000A
:101BA00000F02CF900F07BFC0028A6D101F0C8FF62
:101BB000A3E7200000F022F900F071FC01000020F2
:101BC000FEBD2DE9F04106000F001500984602F019
:101BD000A2F80400B06BF16B884202D3B8F1020F97
:101BE00021D142463900300000F0ADF8002803D082
:101BF000002D01D001202860B06C10F1010F0DD133
:101C0000706A00280DD016F1240000F0F0FD0028C5
:101C100007D0002D05D00120286002E0B06C401CE8
:101C2000B064012500E00025200002F07BF82800C8
:101C3000BDE8F081F7B504000D001E00002704E0A8
:101C4000200000F0DBF800F02AFC01F082FFA06B1E
:101C500000282BD0E7682900200000F0B7F8002EFC
:101C600014D1A06B401EA0632068002802D100F0B0
:101C70002AFF60602069002814D014F1100000F0E1
:101C8000B6FD01280ED101F05BFF0BE0E760606A52
:101C9000002807D014F1240000F0A9FD002801D08D
:101CA00001F04EFF01F062FF01204BE00298002896
:101CB00003D101F05BFF002044E0002F03D100A816
:101CC00000F0CBFD012701F051FF00F0E0FB01F037
:101CD00040FF606C10F1010F01D100206064A06C26
:101CE00010F1010F01D10020A06401F03FFF02A913
:101CF00000A800F0BAFD00281DD1200000F0B3F8C4
:101D000000289DD02068002806D101F022FF6068DD
:101D100000F0ECFE01F02AFF029914F1240000F01B
:101D200017FD200000F06AF800F0B9FB00288CD104
:101D300001F006FF89E7200000F060F800F0AFFB3B
:101D400001000020FEBD70B5040016000025206CC7
:101D500000280BD12068002833D100F056FF6068BE
:101D600000F010FF0500002060602AE0002E0ED178
:101D7000226CA06802F086FB216CA2688918A16021
:101D8000A168626891421CD32068A06019E0226CAF
:101D9000E06802F077FB216C4942E2688918E16053
:101DA000E1682268914204D2206C40426168401888
:101DB000E060022E05D1A06B002802D0A06B401E6F
:101DC000A063A06B401CA063280070BD80B5030019
:101DD0000800196800290ED0196CDA688918D960D2
:101DE000D9685A68914201D31968D9601A6CD968C8
:101DF00002F048FB01E000F0FEFE01BD10B504005A
:101E000001F0A7FE0AE014F1240000F0F0FC002825
:101E100001D000F056FDA06C401EA064A06C01280B
:101E200002DB606A0028EED15FF0FF30A06401F0B1
:101E30009DFE01F08EFE0AE014F1100000F0D7FCC8
:101E4000002801D000F03DFD606C401E6064606CB5
:101E5000012802DB20690028EED15FF0FF306064CA
:101E600001F084FE10BD10B5040001F072FEA06BFD
:101E7000002801D1012400E0002401F077FE2000B9
:101E800010BD10B5040001F064FEA06BE16B884248
:101E900001D1012400E0002401F068FE200010BD03
:101EA000002200E0521C052A0BD2064B53F83230B8
:101EB000002BF7D1034B43F83210024911EBC2015A
:101EC000486070477470002038B504000D0001F0C0
:101ED00040FE606C10F1010F01D100206064A06C25
:101EE00010F1010F01D10020A06401F03FFEA06BB2
:101EF000002804D1290014F1240000F057FC200030
:101F0000FFF77CFF31BD10B450F8041B81B10268AB
:101F10001218001D50F8043BDC0744BFA9F101046E
:101F2000E31852F8044B43F8044B091FF9D1EBE7CF
:101F300010BC70471FB5002400F096F9DFF8740359
:101F40000068002810D0002003900020029000209C
:101F500001900420009000234622DFF85C130FF26A
:101F6000FD0000F0B7F90400200004B010BD2DE919
:101F7000F84304000D0016001F00DDF82080002D3E
:101F800002D15FF0000916E02C2002F083F98146AF
:101F9000B9F1000F0FD000F067F9C9F80040C9F897
:101FA0001850C9F81C60C9F82070C9F8248019F1CC
:101FB000040002F032F94846BDE8F28370B584B0FF
:101FC00004001D00089E0020BA4B1B68002B1FD088
:101FD000009101920294062913DA00F079FD02289B
:101FE00007D10023320000A9B2480068FFF77AFD4C
:101FF0000EE00023002200A9AE480068FFF772FD42
:1020000006E000232A0000A9AA480068FFF7D9FDCE
:1020100004B070BD70B582B004000D00A748006820
:10202000C068C668301D02F022F9F169012910D19B
:1020300023002A00B0690119300000F069F8012876
:1020400007D1002000900023220000213000FFF77C
:10205000B5FF3000716A884773BD000080B500A8E5
:1020600000F02EF8009900F003F800F070F8F6E7A1
:1020700070B582B004000D0000F009FA00A800F06D
:1020800033F806000098002817D1002D09D1A64288
:1020900007D300F004FA050031002000FFF7BAFF73
:1020A0000DE0A11B83480068FFF70EFF00F0F7F971
:1020B000002804D101F044FD01E000F0F0F973BD07
:1020C0007E4909680968002901D1012100E0002149
:1020D000C9B201600068002804D178480068C0686F
:1020E000006800E00020704738B5040000F043FAB3
:1020F000050073480068854204D200F07EF8012094
:10210000206001E0002020606D480560280032BD9D
:1021100010B50024416000618A420BD3D11A826954
:10212000914201D3012410E0011D6648006802F0CD
:1021300083F80AE09A4203D2994201D3012404E0D1
:10214000011D5E48006802F077F8200010BD10B550
:1021500086B018E0029B0298A16909182000FFF7D9
:10216000D7FF01280FD12000616A8847E069012864
:1021700009D10020009000230298A1690A180021CB
:102180002000FFF71BFF0023002201A94948006837
:10219000FFF750FD00282ED001980028F3D4039CAF
:1021A0006069002802D0201D02F061F804A8FFF742
:1021B0009BFF020001980028CCD00228CAD0C9D3C6
:1021C00004280AD008D30628C4D00FD3082803D087
:1021D000C0D3092801D00DE0D5E70298A061130013
:1021E000A06981182000FFF793FFCCE7200002F0E0
:1021F000B6F8C8E7C7E706B010BD70B582B006E014
:1022000068602D61291D2D48006802F015F82B48E3
:102210000068006800281ED028480068C06804686C
:1022200026480068C068C568281D02F020F806002E
:102230002800696A8847E8690128E8D1A869001977
:102240008442DDD3002000900023220000212800DA
:10225000FFF7B4FEDBE7194800681849194A12680D
:102260000A601849086073BD80B501F072FC11481E
:10227000006800281BD1144801F0C0FF134801F08A
:10228000BDFF0E48104901600E4810490160002250
:102290000C210A20FFF7CEFB0649086005480068BC
:1022A000002804D00A4903480068FFF7F9FD01F04F
:1022B0005DFC01BDC4710020785E0008BC71002087
:1022C000C8710020C07100202071002034710020EE
:1022D000805E00082DE9F84F06000F0090469946F1
:1022E0000C99DDF834A0404680B200F0AFFB050049
:1022F0000A9C002D67D01FFA88F8286B10EB880025
:10230000B0F1040B5FEADB0B5FEACB0B1FFA88F836
:10231000CDF80080534622003900280000F0EAFA88
:102320004A463100584601F0E3FB28600B9800282C
:1023300000D0056001F00DFCDFF8AC050068401C22
:10234000DFF8A4150860DFF8FC06006800280AD151
:10235000DFF8F0060560DFF890050068012810D16D
:1023600000F0EEFA0DE0DFF884050068002808D1DF
:10237000DFF8D0060068C06A844202D3DFF8C406E2
:102380000560DFF86C050068401CDFF86415086024
:10239000DFF85C0500686864DFF8F8050068012173
:1023A000EA6A91400843DFF8EC150860291DE86AE5
:1023B0001422DFF8E43502FB003001F031FF012583
:1023C00001F0D4FB01E05FF0FF35012D0CD1DFF807
:1023D0001C050068002807D0DFF868060068C06A9E
:1023E000A04201D201F0ACFB2800BDE8F28F10B58D
:1023F00004000020002C1FD000F049F8DFF8480648
:1024000000682418DFF83C060068001D01F02FFF6B
:1024100000280CD1DFF87C0500680121DFF82426B4
:102420001268D26A91408843DFF86815086020007E
:1024300000F0E8FA00F033F8002801D101F080FB49
:1024400010BD00B585B00020039000200290002050
:1024500001900020009000234622DFF8D4170FF2ED
:102460006D40FFF737FF012801D1FFF763FD012819
:102470000BD101F050FCDFF8740401210160DFF89A
:10248000C8050021016001F045FB05B000BDDFF883
:102490009C070068401CDFF8941708607047F8B587
:1024A000002401F056FBDFF884070068401EDFF8C7
:1024B0007C170860DFF874070068002857D1DFF840
:1024C0002804006800282BD151E0DFF85C07C068C1
:1024D000C56815F1180001F0CAFE0600281D01F0BC
:1024E000C6FE0700DFF8AC0400680121EA6A9140EB
:1024F0000843DFF8A0140860291DE86A1422DFF8F9
:10250000983402FB003001F08BFEE86ADFF83415E6
:102510000968C96A884203D3DFF8180701210160FE
:10252000DFF8040700680028CFD1DFF80C07006847
:1025300000280FD113E000F028F8002803D0DFF8BE
:10254000F40601210160DFF8F0060068401EDFF8A4
:10255000E8160860DFF8E00600680028EBD1DFF835
:10256000D4060068012802D1012401F0E9FA01F043
:10257000FDFA2000F2BD10B501F0EBFADFF8C80457
:10258000046801F0F3FA200010BD70B50024DFF8F4
:102590009C060068002877D1DFF8AC040068401C76
:1025A000DFF8A4140860DFF8A0040568002D14D13A
:1025B000DFF88C060068DFF88816DFF888261268D6
:1025C0000A60DFF880160860DFF87C060068401CAF
:1025D000DFF87416086000F064FADFF8700600682F
:1025E00085423CD324E0301D01F041FEB16A002950
:1025F00003D016F1180001F03AFEDFF898030068E6
:102600000121F26A91400843DFF888130860311D08
:10261000F06A1422DFF8803302FB003001F000FE84
:10262000F06ADFF820140968C96A884200D30124DF
:10263000DFF80C0600680068002805D1DFF80C06FA
:102640005FF0FF3101600AE0DFF8F4050068C06860
:10265000C66870688542C6D2DFF8F0150860DFF8FA
:10266000E4030068C06A1421DFF82C2301FB00207A
:102670000068022800D30124DFF8BC0500680028A8
:102680000BD1FEF742FB08E0DFF8AC050068401C08
:10269000DFF8A4150860FEF738FBDFF8980500683E
:1026A000002800D00124200070BD80B5DFF87C0533
:1026B0000068002804D0DFF87C050121016046E0B5
:1026C000DFF8700500210160DFF800040068006B8E
:1026D000DFF8F81309680968884209D3DFF8EC03CA
:1026E000006810F13401DFF8E4030068FEF709FB2D
:1026F0001422DFF85C15DFF8D4030068006B01F0EA
:10270000C9FE002809D0DFF8C403006810F13401C5
:10271000DFF8B8030068FEF7F4FA9E480068B0FAE4
:1027200080F0D0F11F0014219B4A01FB002041687A
:1027300049684160416810F10802914202D1416844
:10274000496841604068C068DFF88013086001BDD7
:1027500010B50C00DFF874130968183101F06CFD36
:10276000DFF868030068001D01F081FD00280AD130
:10277000884800680121DFF854231268D26A91402A
:1027800088438449086014F1010F08D1DFF83C0345
:102790000068011DDFF8E80301F042FD05E0DFF805
:1027A000A8020068201800F02DF910BD10B50C002B
:1027B000DFF818130968183101F032FDDFF80C0357
:1027C0000068001D01F053FD00280AD1714800681F
:1027D0000121DFF8F8221268D26A914088436D49DE
:1027E000086099480068201800F00CF910BD38B551
:1027F000C068C46814F1180001F039FDDFF82C142A
:102800000968002914D1201D01F031FD050061483F
:1028100000680121E26A914008435E490860211D79
:10282000E06A14225C4B02FB003001F0F9FC05E089
:1028300014F11801DFF8F00301F0F2FCDFF88C026C
:102840000068C06AE16A884205D20120DFF8E4131B
:1028500001220A6000E0002032BDDFF8EC130968B5
:102860000160794909684160704738B504000D007E
:1028700001F06FF974480068296811F1010F01D166
:1028800000241AE0DFF8C01309682268914204D0DE
:102890006168884201D301240FE06168411A2A6807
:1028A000914209D22968081A616808182860200036
:1028B000FFF7D3FF002400E0012401F057F92000C6
:1028C00032BDDFF8700301210160704780B500F070
:1028D00065F8DFF84C030068022801D301F030F9F5
:1028E000FEF70EFAF3E7000098710020A4710020B3
:1028F000B471002038B504001500002000E0401C31
:10290000102806D20219435C82F83430425C002A57
:10291000F5D1002084F84300052D00D30425E5629D
:10292000E56400202065201D01F077FC14F11800FB
:1029300001F073FC2461D5F10500A061646231BD32
:1029400010B5002406E01420134900FB041001F028
:1029500055FC641C052CF6D3DFF8F80201F04EFCA0
:10296000DFF8F40201F04AFCDFF8BC0201F046FC9B
:10297000224801F043FC824801F040FCDFF8C0022D
:10298000DFF8D0120160DFF8BC02DFF8CC12016082
:1029900010BD0000A07100201070002038B51FE0AD
:1029A0000024E4B2FFF77BFD002C19D101F0D1F82F
:1029B0001248C068C468201D01F059FC0500DFF80A
:1029C0007C020068401EDFF8741208600C48006842
:1029D000401E0B49086001F0C9F8200000F058F8CB
:1029E00007480068002807D0FFF751FD034800683A
:1029F0000028D5D10124D4E731BD0000F8700020B3
:102A00009471002010B504003048006844600E48FE
:102A10000068844207D22D480068011D894800687B
:102A200001F00AFC0CE029480068011D8448006898
:102A300001F002FC85480068844201D283480460AA
:102A400010BD0000887100209C71002070B504004A
:102A50000D00542001F01EFC0600002E16D0002DA3
:102A600005D1A4B2A00001F015FC0500FFE7356315
:102A7000306B002804D1300001F071FC002605E025
:102A8000A4B2A200A521306B01F035FD300070BD6D
:102A900010B50400206B01F062FC200001F05FFC27
:102AA00010BD674800680068002804D167485FF0DF
:102AB000FF31016006E062480068C068C068406895
:102AC00062490860704701480068704788710020BB
:102AD00054480068002801D1012006E053480068EE
:102AE000002801D1022000E00020704710B504004A
:102AF000002C44D0E06A59490968C96A88423ED22C
:102B0000A069002805D455480068C06AD0F10500C6
:102B1000A0616069E16A1422414B02FB01318842E5
:102B200029D1201D01F0A3FB00280FD1E06A142158
:102B30003B4A01FB00200068002807D14848006894
:102B40000121E26A91408843454908604348006892
:102B5000C06AE062424800680121E26A914008438D
:102B60003F490860211DE06A14222D4B02FB003012
:102B700001F056FB03E039480068C06AE06210BD0E
:102B80000C71002010B504000020002C32D0E16A46
:102B9000E26C91422ED0216D00292BD1201D01F035
:102BA00066FB00280FD1E06A14211D4A01FB0020BA
:102BB0000068002807D12A4800680121E26A914094
:102BC000884327490860E06CE062E06AD0F10500C4
:102BD000A061234800680121E26A9140084320492E
:102BE0000860211DE06A14220D4B02FB003001F049
:102BF00017FB012010BD19480068002804D01748B1
:102C00000068016D491C0165704714480068002880
:102C100004D012480068016D491E0165704700002C
:102C200010700020A4710020E4700020B871002012
:102C3000705E0008AC710020A8710020987100201F
:102C40008C71002090710020B071002008000020DD
:102C5000E05C0008BC700020D0700020887100206B
:102C6000A071002070B504000D00D2B210191F49E8
:102C70000E181E480419012080F3108801F046FC4C
:102C800003E0207828706D1C641CB442F9D301F075
:102C90004DFC002080F3108870BD70B504000D005D
:102CA000D2B2101911490E1810480419012080F3EE
:102CB000108801F02BFC01E0641C6D1CB4420ED2A4
:102CC0002978200001F03BFC094908700848007889
:102CD0000428F1D040F6027001F046FCEEE701F066
:102CE00025FC002080F3108870BD0000000008085B
:102CF0000C00002098484FF48071018000BF00BF95
:102D000096484FF40071018000BF00BF92484FF415
:102D10000071018000BF00BF90484FF480710180B6
:102D200070478E484FF4807101808B484FF40071DA
:102D3000018000BF00BF89484FF40071018000BFCF
:102D400000BF8748008810F4807080B2000AC0B2CB
:102D500070478021804A4FF4007313800200D2B282
:102D60000A4204D07D4A4FF48073138003E07A4A0C
:102D70004FF48073138000BF784A4FF400731380C0
:102D8000C9B2490800BFC9B20029E3D1704780B574
:102D900072484FF40071018070484FF480710180D7
:102DA000FF20FFF7D6FF6C484FF40071018000BF91
:102DB00000BF6A484FF40071018000BF01BD664842
:102DC0004FF40071018000BF00BF64484FF40071F0
:102DD000018000BF00BF60484FF48071018000BFD8
:102DE00000BF5D484FF40071018000BF00BF00BF0D
:102DF00000BF5A484FF40071018000BF00BF574820
:102E00004FF48071018000BF00BF53484FF4007140
:102E1000018000BF00BF50484FF48071018000BFA7
:102E200000BF7047002080214C4A4FF4007313808C
:102E300000BF4B4A1288D20500D5084300BF464A5E
:102E40004FF400731380C9B2490800BFC9B200290A
:102E5000EAD1C0B2704770B505000C0044F6206698
:102E6000FFF795FFFFF7ABFF2800C0B2FFF771FF38
:102E7000FFF757FF002801D0012021E036484FF42A
:102E80000071018000BF00BF00BF00BF761E002E92
:102E900001D1012014E032480088C005F6D4FFF7C4
:102EA000C1FF0500FFF726FF2D02FFF7BBFF05431B
:102EB000FFF737FFADB2280001F098FB206000203B
:102EC00070BD2DE9F04304000D002E68206800F06D
:102ED000E5F9244A244B00F0C3F8244A244B00F0BF
:102EE00005FA00F093F9070022480068310000F06D
:102EF000FFFB310000F0FCFB80461F4800683100FA
:102F000000F0F6FB414600F0F1FA1C49096800F0B8
:102F1000EDFA80461A48390000F0E8FA814619486F
:102F20000068310000F0E4FB1749096800F0DEFAA0
:102F3000494600F0DDFB414600F0D8FA134900F0A5
:102F40005DF800D81248134900F06AF800D2114821
:102F500028602760BDE8F0831A0802401808024084
:102F6000100802407B14AE47E17A843F9A99999900
:102F700099D943C0945E0008905E00088C5E0008FA
:102F80000000C8C19C5E0008985E00080100C642AF
:102F90000000C642CDCCCC3D7CB504000D0000261F
:102FA00000A90320FFF757FF064301A90520FFF7FB
:102FB00052FF0643F6B2002E05D00020206000200C
:102FC0002860012008E001A900A8FFF77AFF009817
:102FD000206001982860002076BD50F8041B61B184
:102FE00050F8042BD30744BFA9F101039A1800231A
:102FF00042F8043B091FFAD1EFE770474FF0807C9D
:103000001CEB400F94BF1CEB410F05E040EA010CA4
:103010005FEA4C0C01D28142704718BF884270476A
:103020004FF0807C1CEB400F94BF1CEB410F05E080
:1030300040EA010C5FEA4C0C01D28842704718BF8D
:1030400081427047010000BF09D0B0FA80F188408A
:10305000C91CC1F58461090501EBD0214005704709
:10306000B0B581EA030C0CF0004C40F2FF7515EA94
:1030700011541DBF15EA1357AC42AF4239E0E419B1
:1030800023EA455343F48013C90241F0004141EA69
:10309000505EC7021100A7FB020200284FF000009B
:1030A000EEFB01204FF00001E3FB072118BF42F0C7
:1030B0000102401800214941E3FB0E01A4F58064A0
:1030C0000F0302D252004041494154F101046CDD2A
:1030D000470872F1004250F1000051EB0451A1F594
:1030E00080115CBF41EA0C01B0BD4CEA05510020E3
:1030F000B0BD05EA1357AC4214BFAF4241E050EAFD
:10310000410E1CBF52EA430E02E061460020B0BDF2
:1031100024423C441BD15FEA070EF6D0090302BFEC
:1031200001460020AEF1140EB1FA81F7AEEB0704B0
:1031300001FA07FE0C37C7F1200100FA07F7C84073
:103140004EEA000E23EA455343F48013A2E733F01E
:103150000043B3FA83F704BFB2FA82FE77440B3F11
:10316000E41BB7F1200E2FBF02FA0EF3BB40C7F1EC
:10317000200E22FA0EFE38BF43EA0E03BA40641C4A
:1031800082E750EA410E14BF52EA430E6FF000018D
:103190004FF4001717EB430F8ABF194617EB410F87
:1031A000B5E74CEA05510020B0BDD4F10104B4F1FB
:1031B00020070FDAC4F12007520828BF42F00102AD
:1031C00010FA07F501FA07F7E1BF2A43E040384358
:1031D000E1400FE0352C98DCC7F1200452EA4002B0
:1031E00020FA07F218BF42F0010231FA07F0A140BD
:1031F0000A43002172F1004250F1000051EB0C0132
:10320000B0BD0268531C0360117070474FEAF17C37
:10321000BCF1E04C2CBFBCF5001F11E05FEA4C0C88
:1032200034BFBCF17F5F2EE05FEA9C0C4FEA0C1CC0
:103230004FEA3C0CC10071F100414CEB50707047FB
:10324000C90241EA5051C00218BF41F0010141F0EA
:1032500000414FEA6C50C0F10900212810D240EA29
:10326000CC7CCCF1200C11FA0CF070F10040CCF1C8
:10327000200C21FA0CF00CF0004C40EB0C007047D5
:103280004FEACC707047490011F5001F04D84FEA8F
:10329000CC10FF30C0057047C81770475FF0FF0CB7
:1032A0001CEAD05114BF614506E0C110400721F06F
:1032B000E04101F16051704779B900F0004100022E
:1032C0000AD0B0FA80FC00FA0CF001F16051A1EBD9
:1032D0000C5101EBD0214005704741020CBF40F476
:1032E000E0016FF0000100207047000070B44FF063
:1032F000004591EA030C44BF6B4000F043B900BFA6
:10330000841A71EB030603D2001BB14112197341F9
:103310004FF4001C1CEB410F34BF7CEB430443E033
:103320000C0DA4EB1356352E50DC45EAC323DB0A03
:1033300045EAC121C912B6F120050DDD63FA05F693
:10334000EB4086EA0305124218BF45F00105C0189C
:1033500051F100010CD213E062FA06F5F24055403B
:10336000F3415A40B340F3405A408018594107D3C3
:1033700049085FEA30005FEA350528BF45F00105DE
:1033800001F58011420875F1004250F1000041EB57
:10339000045170BC4FF4001C1CEB410F38BF704748
:1033A0000020090D090570471CEB410F10D252EAAD
:1033B00043060BD0BCEB410F05D80C0DAB43661E8A
:1033C000342EB5DD02E0AB438018594170BC704724
:1033D00070BC70474FF4001C1CEB410F94BF1CEBFA
:1033E000430F09E041EA030C50EA4C0C52EA0C0C82
:1033F00003D28B4208BF8242704714BF9942904269
:103400007047000090EA010F44BF81F0004100F0D6
:1034100075B800BF431A4FF000423EBF5340C01A78
:10342000C91800BFD3095FEAD05C13EB400F34BF6B
:10343000B3EB410F40E07CEBD1530CD342EA0121C6
:1034400022D8D1EB402009D3400A28BF5FEA5001BF
:1034500040EBCC507047401A15D04002B0FA80F2D1
:10346000521C9040400A4FEA3C23B3EB026384BFF6
:1034700000EB730007E040F400001A16DB07C2F10E
:103480000102D04018437047182BFCDC31FA03F2DC
:1034900002FA03F3591A38BF42F00102D2EB40207E
:1034A0003CBF4000ACF1010C5FEACC5CC20572F19C
:1034B00000414CEB5020704713EB400F0FD24B00F4
:1034C00009D0ACEBD153022B03DB4902172BDDDD16
:1034D00070479143401A4300D5D10020704713EB49
:1034E000410FD0D36FF000007047000090EA010F49
:1034F00044BF81F00041FFF78DBF00BF421A3CBFBF
:10350000801A89184FF0004CC0F3C752FF2A24D00C
:10351000C1F3C75313B3D21AD2F1190327DD4CEA12
:1035200001214CFA03F321EA0303D140C20D4CEA16
:103530000020401834BF20EA0C004CEA5000D205AD
:1035400053EA006373EB0C0C52EB1020420012F1B3
:10355000807F38BF7047C00DC0057047490212BF59
:103560009A4200EB5120F8E7D2F11703D9D5704702
:1035700070B44FF0004591EA030F44BF6B40FFF772
:10358000BFBE00BF841A71EB030604D26E40001B5D
:10359000B141121973414FF4001C1CEB410F34BFB1
:1035A0007CEB430684E00C0DA4EB1356362E7DDC39
:1035B000012E43DC45EAC32343EA525312BFD20231
:1035C00092025B08240545EAC12141EA5051D2EB41
:1035D000C020994125D407D1B0FA80F610FA06F13F
:1035E00064D00020203608E0B1FA81F6B140C6F17F
:1035F000200220FA02F21143B0404FEAF474B4EB17
:10360000465434F001064FEA74040AD8D6F5001681
:10361000760D04F00044F04061FA06F25040F140AB
:103620004840C00A40EA415021F0004128BF5FEA0B
:10363000500550F1000044EBD12137E045EAC323A7
:10364000DB0A45EAC121C90AB6F120050EDD42EACE
:103650000242120CC5F1200603FA06F6EB4042EADC
:1036600006056D42984161F100010DE062FA06F530
:10367000F240554063FA06FC82EA0C02F3405A40DD
:103680006D42904161EB030111F4801F05D1641E6E
:10369000620502D06D004041494121F48011430888
:1036A00075F1004350F1000041EB045170BC7047CC
:1036B0001CEB410F15D223F0004352EA43060BD016
:1036C0004FEA4C0CBCEB410F04D80C0D661E342E97
:1036D000B7DDEBE7801A994150EA410608BF0021A7
:1036E000E4E708BF1CEB430F28BF6FF00001DDE7E4
:1036F000FF2212EAD05C1DBF12EAD15394459342D7
:103700002BE09C44D30780EA01021A4043EA0020E0
:1037100043EA0121A1FB0030410038BF40007CF1A9
:103720007F010BDBFE294ADA5B0842EAC15153EA0A
:10373000006373F1004C51EB10207047D1F1080C7D
:10374000DCF120012FDB5B0810FA01F10B4373F170
:10375000004120FA0CF05041704794451CBF02EA2A
:10376000D153934280EA010202F000421DD0400092
:1037700019D0490017D05BB9634514D00902B1FADA
:1037800081F39940BCEB030CC00140F00040C1E75D
:103790000002B0FA80FC10FA0CF0B3EB0C0CC9017B
:1037A00041F00041B6E71000704740000AD04900E0
:1037B00008D010F1807F94BF11F1807F02E042F0C9
:1037C000FF407047D04370474100090E7F3915D440
:1037D000D1F11F0114D4400007D2C00140F00040D5
:1037E000C84048BF6FF000407047C00140F0004043
:1037F000C8404CBF4FF00040404270470020704727
:1038000000424FF0004058BFC04370470CB41CB595
:10381000044604A801900A46009401AB00A9074899
:103820007844183000F0F2FE009900220A70002857
:103830005CBF0098001B16BC5DF80CFBC7F9FFFFCE
:1038400065E000BF00BF00BF00BF00BF00BF00BFFA
:1038500000BF00BF00BF00BF00BF00BF00BF00BF70
:1038600000BF00BF00BF00BF00BF00BF00BF00BF60
:1038700000BF00BF00BF00BF00BF00BF00BF00BF50
:1038800000BF00BF00BF00BF00BF00BF00BF00BF40
:1038900000BF00BF00BF00BF00BF00BF00BF00BF30
:1038A00000BF00BF00BF00BF00BF00BF00BF00BF20
:1038B00000BF00BF00BF00BF00BF00BF00BF00BF10
:1038C00000BF00BF00BF00BF00BF00BF00BF00BF00
:1038D00000BF00BF00BF00BF00BF00BF00BF00BFF0
:1038E00000BF00BF00BF00BF00BF00BF00BF00BFE0
:1038F00000BF00BF00BF00BF00BF00BF00BF00BFD0
:1039000000BF00BF00BF00BF00BF00BF00BF01007D
:10391000481E002995D170472DE9FC4104000D0097
:10392000002607274CF25038002004E0C0B200A95E
:1039300000224254401CC0B20528F7DB66484FF411
:1039400080710180B420FFF77BFF012080F3108895
:1039500062484FF48071018000BF00BF00BF00BF0C
:1039600000BF00BF00BF00BF00BF00BF00BF00BF5F
:1039700000BF00BF00BF00BF00BF00BF00BF00BF4F
:1039800000BF00BF00BF00BF00BF00BF00BF00BF3F
:1039900000BF00BF00BF00BF00BF00BF00BF00BF2F
:1039A00000BF00BF00BF00BF00BF00BF4C48008881
:1039B000C0050AD44046B0F1010880B20028F5D114
:1039C000002080F31088012084E045480088C0056D
:1039D0000AD54046B0F1010880B20028F5D1002098
:1039E00080F31088012075E0002001E07F1E401C5C
:1039F000C0B2282833DA3A490988C9050AD44146B1
:103A0000B1F1010889B20029F5D1002080F31088B6
:103A100001205FE033490968314A1288D2050AD58E
:103A20004246B2F1010892B2002AF5D1002080F39B
:103A3000108801204EE02B4A1268891A052908D304
:103A4000F6B200A9715C0122BA401143F6B200AA95
:103A5000B154FFB2002FC9D10727761CC7E7002059
:103A600080F310889DF800009DF8011008189DF85B
:103A7000021008189DF8031008189DF804108842D9
:103A800001D0022026E09DF8020000F0AFFD20608A
:103A90009DF80300FFF7D6FA134A144BFFF7E0FA3C
:103AA000FFF7B4FB2168FFF721FD20609DF80000BF
:103AB00000F09CFD28609DF80100FFF7C3FA0A4A58
:103AC0000A4BFFF7CDFAFFF7A1FB2968FFF70EFDC0
:103AD00028600020BDE8F6811A080240180802405C
:103AE0001008024018E000E09A9999999999B93F15
:103AF000001F5FF080730360001F0160001F0FF262
:103B00000D010160143802602038704780B500F064
:103B100002F9FEE780B52B48006850F4700029498F
:103B200008602848006850F070402649086000F09E
:103B30003BF825480021016000F007F9002002BD94
:103B400022485FF080510160BFF34F8FBFF36F8F4A
:103B5000704780B500F0DFF81B480068401C1A4928
:103B60000860BFF34F8FBFF36F8F01BD80B516485C
:103B70000068401E1449086013480068002802D1FC
:103B8000002000F0CFF801BD10B500F0C4F804002B
:103B9000FEF7FBFC002803D00C485FF08051016069
:103BA000002000F0BFF810BD09480068C00864217B
:103BB000B0FBF1F0401E074908600748032101608F
:103BC0007047000020ED00E00000002004ED00E060
:103BD0000400002014E000E010E000E00022038870
:103BE0001A00B0F1804F08D0104B984205D0104B0E
:103BF000984202D00F4B984204D14FF68F731A406F
:103C00004B881A430C4B984207D00C4B984204D077
:103C10004FF6FF431A400B891A4302804A68C2627A
:103C2000098801850121818270470000000400405D
:103C300000080040000C004000100040001400404C
:103C4000C9B2002904D0018851F08001018004E04C
:103C500001884FF67F72114001807047C9B2002978
:103C600004D0018851F00101018004E001884FF681
:103C7000FE72114001807047D2B2002A03D08289BF
:103C80001143818103E0828932EA01018181704719
:103C900089B2C94301827047F0B400240025002690
:103CA00007893C00078B3D00078C3E004FF6F877F4
:103CB0003C400C434FF6FC410D4040F201110D43D6
:103CC0004FF6DD710E4052EA03110E430481058365
:103CD0000684F0BC70470000EFF30980BFF36F8FDC
:103CE000204B1A6820E9F00F106008B54FF0500023
:103CF00080F31188FEF7D9FC4FF0000080F31188A3
:103D0000BDE8084019680868B0E8F00F80F309883A
:103D1000BFF36F8F7047EFF311804FF0500181F3C5
:103D20001188704780F3118870470E4B1968086836
:103D3000B0E8F00F80F30988BFF36F8F4FF00000F9
:103D400080F311884EF00D0E704707480068006838
:103D500080F3088862B661B6BFF34F8FBFF36F8FF1
:103D600000DF00008871002008ED00E00349C0B2C8
:103D7000086070470249C0B20860704720000E42D8
:103D800024000E4281B00020009000200021DFF8C6
:103D90003421CA231360DFF82C2153231360DFF88A
:103DA0002821126832F0A002DFF81C311A60DFF817
:103DB0001801006810F020010098401C0090009845
:103DC000B0F5004F01D00029F1D0DFF8FC00006809
:103DD000800601D5012000E00020DFF8E810FF2276
:103DE0000A60C0B201B07047DFF83811CA220A6019
:103DF000DFF8301153220A60DFF8C0100968C908E3
:103E0000C900DFF8B8201160DFF8B0100968084376
:103E1000DFF8A8100860DFF80C01FF21016070478F
:103E2000DFF80011CA220A60DFF8F81053220A6096
:103E3000DFF88C100860DFF8EC00FF2101607047AC
:103E400018B40021009100220021DFF8D830CA24E4
:103E50001C60DFF8D03053241C60C0B2002808D0AA
:103E6000DFF85800006850F48060144908600121B0
:103E70001BE01248006830F4806010490860DFF8E9
:103E80004800006810F004020098401C0090009860
:103E9000B0F5005F01D0002AF1D0DFF82C000068F7
:103EA000400701D4002100E00121DFF87800FF2263
:103EB00002600800C0B212BC704700000828004031
:103EC00014280040242800400C280040154ACA232A
:103ED0001360144A53231360C9B200290ED01B4942
:103EE000096830F004021143184A11601849096842
:103EF00010F004000843164908600EE013490968F1
:103F000030F004029143114A11601149096810F020
:103F1000040031EA00000E4908600248FF210160F8
:103F2000704700002428004000210009010088B2E9
:103F300050F080000449096811F0800171EA000026
:103F400001490860704700000C2800400828004024
:103F500040280040C9B2002905D006490968084335
:103F60000449086005E00349096831EA0000014995
:103F700008607047042004E030B4002200230024CD
:103F800000252A0046E0012393400C681C409C4217
:103F90003FD1036803241500EDB26D00AC40A3438C
:103FA000036003680C791500EDB26D00AC4023434B
:103FB00003600B79012B02D00B79022B19D1836896
:103FC00003241500EDB26D00AC40A3438360836809
:103FD0004C791500EDB26D00AC40234383608388BB
:103FE00001249440A343838083888C7994402343A5
:103FF0008380C36803241500EDB26D00AC40A34379
:10400000C360C368CC791500EDB26D00AC402343AA
:10401000C360521C102AB6D330BC70470022808A7D
:1040200089B2084201D0012200E000221000C0B293
:1040300070470183704741837047F0B40023002428
:10404000D2B211F00705EDB2AD00AA40130089B25B
:10405000CA1010EB820289B2CD1010EB85052D6AD3
:104060000F2611F00707FFB2BF00BE40B54315622F
:1040700089B2CA1010EB8202126A1A43140089B284
:10408000C91010EB81000462F0BC704710B400222C
:104090000F2311F00304E4B2A400A3401A00C9B234
:1040A0008B100E4C54F8233033EA0202C9B28B1045
:1040B0000A4C44F82320C9B28A10084B53F8222036
:1040C000C0B211F00303DBB29B0098401043C9B2A9
:1040D0008910024A42F8210010BC704708000140D4
:1040E0000021234A11008279002A35D0204A126823
:1040F00003689A431E4B1A601E4A126803689A436B
:104100001C4B1A60027951180A6803681A430A6046
:104110001949096802689143174A116017490968EB
:1041200002689143154A1160417910290CD1124956
:10413000096802681143104A116010490968006853
:1041400008430E4908600EE00949427951180A688F
:1041500000681043086006E0027951180A68006898
:1041600032EA0000086070470549086070470000A7
:104170000004014004040140080401400C04014013
:104180001404014010B4002100220F23C478002C35
:104190001FD01649096811F4E061D1F5E061090A00
:1041A000D1F10402DBB20B414178914082781A4090
:1041B0001143090102780E4BD154017849110D4A7F
:1041C0000123007810F01F0013FA00F042F82100DC
:1041D0000AE001784911084A0123007810F01F0015
:1041E00013FA00F042F8210010BC70470CED00E01B
:1041F00000E400E000E100E080E100E010F10801EF
:1042000041605FF0FF31816010F10801C16010F181
:1042100008010161002101607047002101617047C0
:1042200042684A6093688B60936859609160086146
:104230000168491C0160704710B40B6813F1010F4D
:1042400001D1026907E010F1080200E052685468E9
:104250002468A342FAD253684B604B6899608A6025
:10426000516008610168491C016010BC7047016918
:104270004268836893608268436853604A688242F8
:1042800001D182684A60002202610868401E08600D
:104290000868704770B505000024FEF7F8F872480A
:1042A0000068002801D100F07DF8704800680542E0
:1042B0004DD1002D0AD06E480068451915F0070F42
:1042C00004D015F1080015F00701451A002D3ED065
:1042D00068480068A8423AD3674867490E6801E019
:1042E000300036687168A94202D231680029F7D1DE
:1042F0005D4909688E422AD05D49096802688C18B8
:10430000316801605A48006840007168491B884262
:1043100006D2A8197168491B4160756000F074F8F5
:10432000544800687168401A524908605148006852
:1043300052490968884203D250484E4909680160D1
:1043400070684A4909680843706000203060FEF7D1
:10435000A6F8002C01D1FCF7CFFC200070BD10B5F1
:104360000400002C1DD042480068404204196068D7
:104370003E490968084214D02068002811D16068BD
:104380003A49096888436060FEF781F83948006857
:104390006168081837490860200000F035F8FEF71A
:1043A0007EF810BD4FF4E042354911F0070F05D0FB
:1043B000C91DC908C900501A314A121808002E49EF
:1043C00008602D4900234B601118294A1268891A88
:1043D000C908C900244A1160234A126800235360A7
:1043E000214A126800231360091A41601E490968B6
:1043F00001604168214A116040681E4908601B48FD
:104400005FF00041016070471B4900E009680A68DD
:104410008242FBD30A004B689A18824204D14A6850
:104420004068801848600800020043689A180B68CA
:104430009A4211D10A680C4B1B689A4208D0426814
:104440000B685B689A1842600A681268026005E0AF
:10445000054A1268026001E00A680260814200D0E9
:104460000860704700000000507100205C7100205F
:10447000885E0008547100204871002058710020A7
:104480001000002010B50400200000F087FE20007E
:1044900010BD00000300002013F0030F09D0521ECE
:1044A00022BF13F8010B11F801CBB0EB0C00F3D0D5
:1044B0007047121F22BF53F8040B51F804CB60451C
:1044C000F7D0121D0AD200BA9CFA8CFCB0EB0C009B
:1044D00038BF6FF0000088BF01207047521E22BF16
:1044E00013F8010B11F801CBB0EB0C00F6D0521C05
:1044F00008BF1046704710B5040010000A00010004
:10450000200000F087FE200010BD0000DFF88C00C6
:104510000068C00709D5DFF88800DFF8881001605F
:10452000DFF87C00DFF8801001607047DFF86C0076
:10453000006850F00100DFF864100860704770B543
:1045400004000D0004264FF4004000F031F806008E
:10455000F6B2042E05D125704FF4004000F028F883
:1045600006003000C0B270BD1049086070470420DA
:104570000E490968C90701D501200DE00B48006804
:10458000C00501D5022007E00848006810F4F05F7C
:1045900001D0032000E00420C0B27047043C024078
:1045A0000C3C0240EFCDAB8905040302183C0240ED
:1045B00010B582B0040004208DF80000FFF7D7FF8B
:1045C0008DF8000004E0FFF7D2FF8DF80000641EB4
:1045D0009DF80000012801D1002CF4D1002C02D15B
:1045E00005208DF800009DF8000016BD002800BFD2
:1045F0000AD0B0FA80F18840D1F19D01C9050206C8
:1046000072F1004241EB1020704700002DE9F04F9D
:10461000A1B0824602AE002017461D46029170628C
:104620000DF144080AE017F8011B0298D0470290E8
:10463000002800F08782706A401C7062387808B9E0
:10464000706A81E22528EED10020F060306170614F
:10465000B061F061306201E040F0010017F8011F25
:104660002029F9D023290DD02B2904D02D2906D0BB
:1046700030290AD00CE040F0020080B2EEE740F0B2
:104680000400FAE740F00800F7E740F01000F4E714
:104690002A290DD129680A1D2A600968F1620029BA
:1046A00004D5494240F00400F16280B27F1C13E05F
:1046B0000021F1620BE0F16A6FF00043994205D0EE
:1046C00001EB810302EB43013039F1627F1C3A7840
:1046D000A2F130010A29EED339782E2903D04FF008
:1046E000FF31B1621EE017F8011F2A2906D129689F
:1046F0000A1D2A607F1C0968B16213E00021B162C3
:104700000BE0B16A6FF00043994205D001EB8103E1
:1047100002EB43013039B1627F1C3A78A2F13001DB
:104720000A29EED330860FF65820397800F0A6FD1E
:1047300008B117F8010B8DF83A009DF83A00682887
:1047400002BF39786829622005D06C2804BF387808
:104750006C2803D171208DF83A007F1C11A8B0603D
:104760003978B1F125001FD0203802286CD91338D0
:1047700000F095800B3800F02B81401E00F0D480B3
:10478000401E022860D9001F00F0CE80401F30D0AC
:10479000401E00F08480401E20D0C01E09D0801E24
:1047A0007DD0C01E7BD01BE1F068411CF16025214B
:1047B00020E12868011D29600068B26A7060002A43
:1047C00002D500F067FD07E0002100F07FFD002822
:1047D0001ABF7168401AB06A30610DE12868011D86
:1047E000296000210068CDE9000111A870607821DE
:1047F000EAE09DF83A00622818D0682806D06A28B6
:104800000BD06C2819D0712807D016E02868011D3C
:1048100029600068716A0180EEE02A68101D286036
:104820001268706AC117C2E90001E5E02868011D3D
:1048300029600068716A0170DEE02868011D296046
:104840000068716A0160D7E02868C01D20F0070089
:10485000286000F108022A60D0E90023CDE9002396
:10486000002B04D5F068421CF2602D220DE0308E42
:10487000820704D5F068421CF2602B2205E0C007D5
:1048800005D5F068421CF260202200F80820F0688C
:1048900011AA8018706000A800F008FAACE09DF83A
:1048A0003A006C2808BF2A6811D0712808BF2A680E
:1048B00002D02A686A280AD1D21D22F007022A6093
:1048C000144604F108022A60D4E9002303E0131D12
:1048D0002B6000231268CDE90023682808BF92B23C
:1048E00007D0622808BFD2B203D0742818BF7A2834
:1048F00002D10023CDE9002396F8300000075FD5F0
:10490000DDE90023002B08BF002A59D041F0200028
:10491000782855D1F068302200F80820401C421C4D
:10492000F26000F808104BE09DF83A0062280CD0C5
:10493000682810D06A281AD06C2823D0712816D085
:1049400074281FD07A280CD01CE02868021D2A6029
:1049500090F900201AE02868021D2A60B0F90020B2
:1049600014E02868021D2A60002302680FE028680E
:10497000C01D20F00700286000F108022A60D0E97D
:10498000002304E02868021D2A600268D317CDE9DD
:104990000023002B04DAF068421CF2602D220DE0A7
:1049A000308E820704D5F068421CF2602B2205E0AD
:1049B000C00705D5F068421CF260202200F80820EC
:1049C000F06811AA8018706000A800F0C0F813E029
:1049D000F068411CF16029680A1D2A60096809E035
:1049E000F068421CF260252200F8082021B1F0682E
:1049F000421CF26000F80810F06AF168401AB169D0
:104A0000401A3169401AF169401A7169401A316AD5
:104A1000A0EB010996F830007F1C400710D420203D
:104A20008DF84000002409E0012310AA00A9504697
:104A300000F08FFB002840F08580641C4C45F3DBC0
:104A4000F4680DF1440B0AE01BF8011B0298D047F3
:104A50000290002876D0706A401C7062641E002CA0
:104A6000F2D130208DF840004FF0000BB46909E01E
:104A7000012310AA00A9504600F06BFB002861D169
:104A80000BF1010BA345F3DB3469D6F804B00AE05F
:104A90001BF8011B0298D0470290002852D0706A80
:104AA000401C7062641E002CF2D130208DF8400052
:104AB0004FF0000BF46909E0012310AA00A9504649
:104AC00000F047FB00283DD10BF1010BA345F3DBC0
:104AD00030697168746900EB010B09E01BF8011B78
:104AE0000298D047029068B3706A401C7062641EDE
:104AF000002CF3D130208DF840004FF0000B346AC9
:104B000008E0012310AA00A9504600F022FBC8B912
:104B10000BF1010BA345F4DB96F8300040077FF55D
:104B20008DAD20208DF84000002400E0641C4C4531
:104B3000BFF684AD012310AA00A9504600F009FB7E
:104B40000028F3D04FF0FF3021B0BDE8F08F2DE901
:104B5000FA47064682B035690A466F2A08BF082719
:104B600005D041F02000782814BF0A271027D6E985
:104B700000013C2480468946642A18BF692A05D171
:104B8000002903DAD8F1000869EB4909B9F1000FEF
:104B900008BFB8F1000F0CD1306B50B9082F3BD1D2
:104BA00096F83800000737D530203B2485F83B00C5
:104BB00032E0CDE90089FB17404649463A4600F00D
:104BC000B1FBB846A8FB0023DDE90089A8EB02028F
:104BD0003032A4F1010AD2B254463A2A03DB9DF8DE
:104BE0000830513B9A180AF8052080465FEA01090F
:104BF00008BFB8F1000F03D0F06861198842D8D31C
:104C0000082F09D196F83800000705D5605D3028D7
:104C100002D0641E30206055C4F13C00B0616119BF
:104C2000F160316B884207DA081A30624FF6EF7193
:104C3000308F0840308710E000290ED596F83810E4
:104C400001F01401102908D1716B7269891A326A56
:104C5000891A081A0128A8BF306204B0BDE8F0879D
:104C60002DE9D04306460F4614464FF00008DFF802
:104C7000389012E0E00707D542464B4630463946A9
:104C8000FEF7EEF906460F46641040464946424696
:104C90004B46FEF7E5F980468946002CEAD13046BE
:104CA0003946BDE8D0830000000024402DE9F34FD1
:104CB0008BB0D0E90089006B01AF002802D50B98BA
:104CC000062106E004BF41F02000672802D10B98BE
:104CD000012101630B984168C1F30A5040F2FF7251
:104CE000904220D1080302BF0B98006800280AD127
:104CF0000B98032181619DF8300061381A2844D354
:104D00000FF2904109E00B98032181619DF830007A
:104D100061381A2836D30FF274410B98C068032209
:104D200000F03CFAEFE0012807DA0B9800F071FB85
:104D3000012802DB00230026DCE00B9A526840F2D7
:104D4000FE3161F31E520B994A6040F2FE31461A61
:104D5000404649460022002300F07CFB38BF89F022
:104D6000004936B247F297507043414990FBF1F643
:104D700036B2C6F10702012A0ADB40464946FFF770
:104D80006FFF27E00FF20041C7E70FF20441C4E7CD
:104D900057420024374DDFF8E0B09A4612E0F8079A
:104DA00007D552465B4620462946FEF759F9044688
:104DB0000D467F105046594652465B46FEF750F965
:104DC00082468B46002FEAD14046494622462B4672
:104DD00000F058FB80469DF8300040F020058946E1
:104DE000662D0CBF06F10A0006200B99096B4718C7
:104DF000142FA8BF132730208DF804000DF10504EF
:104E0000DFF878B0012F3BDB4046494600F05EFCFE
:104E1000014604F1080204234FF00A0CB1FBFCFC2C
:104E20000CEB8C04A1EB4401303102F8011D0A2186
:104E3000BCFBF1FE0EEB8E04ACEB44043034714647
:104E400002F8014D5B1EE7D1083F02F10804012F73
:104E5000D8DBFEF7F7F802460B4640464946FEF718
:104E600087FB00225B46FEF7FBF880468946CBE7CE
:104E7000A08601000000F03F0000244084D7974145
:104E80000DF10500201A0DF1050702E0401E761E07
:104E90007F1C39783029F9D0662D02D136B2711CC9
:104EA00003E0652D0CBF012100210B9A126B8B18BA
:104EB0001BB29842B8BF03461BB219001AD48142F4
:104EC00004DAC85D3528A8BF392000DA3020CA19B5
:104ED000521E00E05B1E12F80159491E8542F9D0AE
:104EE000392802D1C85D401CC855002902D57F1E53
:104EF0005B1C761C36B29DF830100B9800961BB2E6
:104F00003A4600F003F80DB0BDE8F08F2DE9F0430C
:104F1000054685B01E46D5F8308089461746012ED5
:104F200002DA01260FF2702749F02000BDF9304067
:104F3000662808BF641C15D0672840F0928014F1E1
:104F4000040F7BDB444579DA95F83800641C0007D0
:104F500002D44645B8BFB04624B2B8EB040848BFF7
:104F60004FF00008E868A96924B2012C25DA302343
:104F70004A1C0B54B8F1010F03DA95F838100907F1
:104F800002D52E211154521CAA6118EB040FB8BF90
:104F9000C8F1000424B26142A0446962B045B8BFC0
:104FA000464636B2EE613246AB693946181800F013
:104FB000F5F8A8EB0600A862B4E00818A64218DAD3
:104FC0003246394600F0EAF8A9697118A961A01BB8
:104FD0006862B8F1010F03DA95F83800000705D5CB
:104FE000E8682E220A54E869401CE861C5F8288068
:104FF00098E02246394600F0D1F8A8692018361BFF
:10500000B8F1010F03DA95F83810090703D5E968FC
:105010002E224254401C36B2A861B045B8BF464665
:10502000EB6836B23246E119C01800F0B7F8A8694B
:105030003018A861A8EB0600686273E0464504DA00
:1050400095F83810090758BFB046B8F1010848BFB5
:105050004FF00008B9F1670F0CBF4FF065094FF032
:105060004509A969E86817F8013B0B544A1CB8F1D7
:10507000010F05DA95F83810090758BFAA6117D54E
:105080002E211154531CAB61B8F1010F10DB761EB9
:1050900036B2B045B8BF464636B232463946181821
:1050A00000F07CF8A8693018A861A8EB06006862D7
:1050B000A869E9684718200007F8019B03D42B2052
:1050C00007F8010B03E02D2107F8011B44420026DD
:1050D0000DF1080808E00A2200A800F00DFB019875
:1050E00008F8010B761C009C21B20129F3DA022E8C
:1050F00006DA49F02000652804BF302007F8010BCC
:105100004EB9302007F8010B07E0761E02A8305C8C
:10511000303007F8010B012EF7DAA869E96840186A
:10512000381AE86195F8380000F0140010280DD105
:105130006869A9690818696A0818E9690818A96AF4
:105140000818696B8842BCBF081A286205B0BDE820
:10515000F083F8B504460D4616461F46002004E0CD
:10516000E86A401CE8627F1E002047B116F8011B68
:10517000A868A047A8600028F2D14FF0FF30F2BD28
:10518000686A6C747A4C00006E616E004E414E008D
:10519000696E6600494E46003000000062B38B071E
:1051A00008D0521E11F8013B00F8013B00F02480AA
:1051B0008B07F6D1830740F0208000BF103A07D359
:1051C00030B4B1E83810103AA0E83810F9D230BC49
:1051D000530724BFB1E80810A0E8081044BF51F8F5
:1051E000043B40F8043BD20724BF31F8022B20F8DF
:1051F000022B44BF0B7803707047083A07D3B1E81D
:105200000810083A40F8043B40F804CBF7D25307A3
:10521000E4E7000062F30F2262F31F42401810F02F
:10522000030308D0C91A1FD3DB0748BF00F8012DBC
:1052300028BF20F8022D130030B41446154610394B
:1052400028BF20E93C00FAD8490728BF20E90C0014
:1052500048BF40F8042D890028BF20F8022D48BF20
:1052600000F8012D30BC7047C91818BF00F8012D97
:10527000CB0728BF00F8012D704700000278C9B2A3
:105280008A421AB11CBF10F8012FF9E718BF00209D
:105290007047000000F10103810704D010F8011BE2
:1052A00089B18107FAD10268B2F10131914311F05D
:1052B000803F04BF50F8042FF6E710F8011B11B12E
:1052C00010F8011BFBE7C01A70470000C9B2830742
:1052D00006D0521E22D310F8013B9942F7D11FE0AD
:1052E000083A13D302F1040241EA012141EA0141E3
:1052F00050F8043B121F21BF4B40A3F1013C2CEAA4
:10530000030C1CF0803FF3D0C9B2001F083210F824
:10531000013B521E28BF91EA030FF8D818BF0120A5
:10532000401E70471B4213D1094236D12AB1844630
:10533000B0FBF2F002FB10C2704700F0E5B9FCD3FD
:105340000022002370470B0002000021002070475C
:10535000904271EB030CF6D370B5B1FA81F4B3FA55
:1053600083F52C1BA340C4F1200532FA05F6334324
:10537000A2405FF00046E64002E05B085FEA3202CE
:10538000841A71EB030524BF204629467641F4D3E5
:1053900002000B003000002170BD012ACFD970B58A
:1053A000140C20D0B1FA81F4B2FA82F5C4F12004D1
:1053B0006419B4F12006D6D3B2405FF00044F44043
:1053C000002502E052085FEA3303C61A71EB020EB1
:1053D00024BF3046714664416D41F3D302000B0097
:1053E0002000290070BD0C46B1FBF2F102FB114513
:1053F0002D0445EA1045B5FBF2F402FB145580B2CA
:1054000040EA0545B5FBF2F002FB105240EA0440C9
:1054100070BD30B4436803F0004201211B031B0B35
:10542000436004BF0368002B08D10DE00368DD0F63
:1054300045EA440444605B000360491E4468E3029B
:10544000F4D523031B0B436043681A4342600846AC
:1054500030BC70474FF4001C1CEB410F94BF1CEB99
:10546000430F09E041EA030C50EA4C0C52EA0C0CE1
:1054700003D2994208BF9042704714BF8B428242C8
:1054800070470000F0B540F2FF7581EA030C0CF0A4
:10549000004C15EA11541DBF15EA1357AC42AF4238
:1054A000E5E0BC41C1F31301C3F31303801A994132
:1054B00043F4801304D2641E4000494180185941CE
:1054C000C90241EA5051B1FBF3F603FB1611A2FBEE
:1054D0000675D7EBC020A94102D2761E801859412B
:1054E000C90241EA5051B1FBF3FE03FB1E11A2FBBE
:1054F0000E75D7EBC020A94103D2AEF1010E801882
:105500005941890241EA9051760546EA8E2EB1FB57
:10551000F3F603FB1611A2FB0675D7EB8020A94119
:1055200002D2761E80185941C90241EA50514EEA12
:10553000060EB1FBF3F603FB1611A2FB0675D7EBC3
:10554000C020A94102D2761E80185941C90241EA01
:105550005051B1FBF3F703FB1711A2FB0735D3EB57
:10556000C020A94167F100070CBF004247F00107C6
:1055700066F3D5274FEA1E31B80814F5806412DDB2
:10558000BD0775F1004250EB0E5051EB045111F57F
:10559000801F5CBF41EA0C01F0BD4CF07F6141F01F
:1055A000E0410020F0BDBD076D0840EA0E5041F417
:1055B0008011D4F10104B4F120060ADAC4F1200606
:1055C0000200E04001FA06F3E1401843B2401543FF
:1055D0000EE0342C13DCC6F1200445EA40056D08CA
:1055E00020FA06F2154321FA06F0A1400D430021EE
:1055F00075F1004250F1000051EB0C01F0BD0020AC
:105600005FEA0C01F0BDCFB992185B41B3FA83F7A2
:1056100004BFB2FA82F6BF190B3FB7F120062FBFC5
:1056200002FA06F3BB40C7F1200622FA06F638BF9D
:105630003343BA401CB1E419641E33E77F4231F0B2
:105640000041B1FA81F404BFB0FA80F6A4190B3C12
:10565000B4F120062FBF00FA06F1A140C4F12006E4
:1056600020FA06F638BF3143A0403C1B1AE7AC4293
:105670001ABF05EA1357AF4212E050EA41061CBFB9
:1056800052EA4306BFE750EA4107304661461CBF75
:1056900041EA0551F0BD52EA430C08BFC143F0BDD9
:1056A00000204FF4001616EB410F98BF16EB430F86
:1056B00008BF16EB410F24BFC14305E016EB430FB3
:1056C0000CBF61464CEA0551F0BD0000400D40EAB8
:1056D000C120490080F00D8040F00040490DA1F547
:1056E0008061491C05D4D1F11F0154BFC840C017C7
:1056F00070474FF00000704791FBF2F303FB12116B
:10570000C0E9003170470000704700000000000051
:10571000000000005F000000000300030000143ED2
:10572000143E1400242A7F2A1200433308666100C5
:10573000364955225000000503000000001C22419C
:1057400000000041221C000014083E081400080854
:105750003E08080000503000000008080808080053
:105760000060600000002010080402003E5149451E
:105770003E0004027F000000426151494600224180
:10578000494936001814127F100027454545390055
:105790003E4949493200010171090700364949492A
:1057A0003600264949493E000036360000000056C2
:1057B00036000000081422410000141414141400D0
:1057C00000412214080002015109060000060909DF
:1057D00006007E0909097E007F49494936003E419D
:1057E000414122007F4141413E007F4949494100FA
:1057F0007F09090901003E4141493A007F08080834
:105800007F0000417F410000304040403F007F0862
:10581000142241007F40404040007F020C027F0084
:105820007F0204087F003E4141413E007F09090993
:1058300006001E2121215E007F0909097600264904
:105840004949320001017F0101003F4040403F00D3
:105850001F2040201F007F2010207F0063140814A9
:105860006300070870080700615149454300007F45
:10587000410000000204081020000000417F0000E9
:1058800000060909060040404040400000010204B3
:1058900000002054545478007F4444443800384475
:1058A00044444400384444447F003854545418005D
:1058B00004047E050500085454543C007F08040489
:1058C000780000447D4000002040443D00007F10EF
:1058D0002844000000417F4000007C0478047800E8
:1058E0007C08040478003844444438007C141414C0
:1058F0000800081414147C00007C080404004854B8
:105900005454200004043F4444003C4040207C00A8
:105910001C2040201C003C4030403C004428102803
:1059200044000C5050503C004464544C4400000867
:105930003641410000007F00000041413608000070
:105940000201020402003048C848000010AAAAA8B8
:10595000700000007C000000384544453800585471
:10596000D45430003841404138003E41C14122000A
:105970003C435353340000007D0000003C4342434D
:105980003C002649C94932003C4140413C000000EE
:1059900011150A0010387CFE38383838FE7C381073
:1059A000082492240800000080B50120FEF7DCFBEB
:1059B00000230022002142480068FCF702F901BDE3
:1059C00080B50420FEF7D0FB0023002200213D48D3
:1059D0000068FCF7F6F801BD80B501213A48FEF7F2
:1059E00057F900213848FEF739F93848012101807C
:1059F00000BF00BF00BF00BF00BF00BF00BF00BFAF
:105A000000BF00BF00BF00BF00BF00BF00BF00BF9E
:105A100000BF00BF00BF00BF00BF00BF00BF00BF8E
:105A200000BF00BF2A480121018001BD80B5802050
:105A3000FEF79AFB27482849097801602648007834
:105A4000002803D001212048FEF708F922480078F9
:105A5000632802D11D480121018001BD10B5040059
:105A6000042214F114014FF44070FDF716F90422DA
:105A700014F118014FF44170FDF70FF9FEE7000033
:105A80001EF0040F0CBFEFF30880EFF30980FFF75F
:105A9000E5BF7047FEE7FEE7FEE7FEE780B54FF49F
:105AA0008040FEF741FA5FF48010FEF75DFB0023B3
:105AB0000022002109480068FCF783F801BD0000BE
:105AC0007871002074710020000C0040180802401A
:105AD0001A080240240C0040D2710020807100207E
